{
	"compilerInput": "{\"language\":\"Solidity\",\"sources\":{\"TroupStorage.sol\":{\"content\":\"pragma solidity 0.4.18;\\r\\n\\r\\n/// @title TroupStorage for Realms of Ether (https://www.realmsofether.com)\\r\\n/// @notice Reconstructed by wilt.eth/@wilty_stilty\\r\\n///\\r\\n/// @notice Persistent on-chain storage contract for \\\"troup\\\" game units in Realms of Ether.\\r\\n/// Stores stats (life, strength, intelligence, dexterity) and resources (gold, wood, stone)\\r\\n/// for each troup, keyed by a bytes32 hash identifier.\\r\\n///\\r\\n/// @dev This contract is an on-chain storage contract that manages \\r\\n/// all persistent data for \\\"troups\\\" in Realms of Ether.\\r\\n/// @dev RECONSTRUCTION NOTICE: The original source code for this contract was lost.\\r\\n/// This file has been reconstructed in its entirety from the deployed bytecode.\\r\\ncontract TroupStorage {\\r\\n    address public owner;\\r\\n    bytes32[] internal troupHashes;\\r\\n\\r\\n    // tracks whether a given hash has been registered via createTroup()\\r\\n    mapping(bytes32 => bool) internal exists;\\r\\n    mapping(bytes32 => bytes16) internal names;\\r\\n\\r\\n    // core combat stats\\r\\n    mapping(bytes32 => uint256) internal life;\\r\\n    mapping(bytes32 => uint256) internal strength;\\r\\n    mapping(bytes32 => uint256) internal intelligence;\\r\\n    mapping(bytes32 => uint256) internal dexterity;\\r\\n\\r\\n    // held resources\\r\\n    mapping(bytes32 => uint256) internal gold;\\r\\n    mapping(bytes32 => uint256) internal wood;\\r\\n    mapping(bytes32 => uint256) internal stone;\\r\\n    \\r\\n    // Events\\r\\n    event OwnershipTransferred(address indexed previousOwner, address indexed newOwner);\\r\\n\\r\\n    function TroupStorage() public {\\r\\n        owner = msg.sender;\\r\\n    }\\r\\n\\r\\n    function() public payable {\\r\\n        revert();\\r\\n    }\\r\\n\\r\\n    function setStrength(bytes32 _troupHash, uint256 _amount) \\r\\n        public \\r\\n    {\\r\\n        require(msg.sender == owner);\\r\\n        require(exists[_troupHash]);\\r\\n        strength[_troupHash] = _amount;\\r\\n    }\\r\\n\\r\\n    function setIntelligence(bytes32 _troupHash, uint256 _amount) \\r\\n        public \\r\\n    { \\r\\n        require(msg.sender == owner);\\r\\n        require(exists[_troupHash]);\\r\\n        intelligence[_troupHash] = _amount;\\r\\n    }\\r\\n\\r\\n    function getName(bytes32 _troupHash) \\r\\n        public\\r\\n        returns (bytes16)\\r\\n    {\\r\\n        require(exists[_troupHash]);\\r\\n        return names[_troupHash];\\r\\n    }\\r\\n\\r\\n    function getStrength(bytes32 _troupHash) \\r\\n        public\\r\\n        returns (uint256)\\r\\n    { \\r\\n        require(exists[_troupHash]);\\r\\n        return strength[_troupHash];\\r\\n    }\\r\\n\\r\\n    function getHash(uint256 _nonce) \\r\\n        public \\r\\n        returns (bytes32)\\r\\n    {\\r\\n        return troupHashes[_nonce];\\r\\n    }\\r\\n\\r\\n    function setStone(bytes32 _troupHash, uint256 _amount)\\r\\n        public \\r\\n    { \\r\\n        require(msg.sender == owner);\\r\\n        require(exists[_troupHash]);\\r\\n        stone[_troupHash] = _amount;\\r\\n    }\\r\\n\\r\\n    function setGold(bytes32 _troupHash, uint256 _amount)\\r\\n        public \\r\\n    { \\r\\n        require(msg.sender == owner);\\r\\n        require(exists[_troupHash]);\\r\\n        gold[_troupHash] = _amount;\\r\\n    }\\r\\n\\r\\n    function setDexterity(bytes32 _troupHash, uint256 _amount)\\r\\n        public \\r\\n    { \\r\\n        require(msg.sender == owner);\\r\\n        require(exists[_troupHash]);\\r\\n        dexterity[_troupHash] = _amount;\\r\\n    }\\r\\n\\r\\n    function getIntelligence(bytes32 _troupHash)\\r\\n        public\\r\\n        returns (uint256)\\r\\n    { \\r\\n        require(exists[_troupHash]);\\r\\n        return intelligence[_troupHash];\\r\\n    }\\r\\n\\r\\n    /// @notice Registers a new troup hash. Must be called before any stats can be read or written.\\r\\n    /// @dev Reverts if the hash is already registered.\\r\\n    function createTroup(bytes32 _troupHash)\\r\\n        public \\r\\n    { \\r\\n        require(msg.sender == owner);\\r\\n        require(!exists[_troupHash]);\\r\\n\\r\\n        troupHashes.push(_troupHash);\\r\\n        exists[_troupHash] = true;\\r\\n    }\\r\\n\\r\\n    function getLife(bytes32 _troupHash)\\r\\n        public\\r\\n        returns (uint256)\\r\\n    { \\r\\n        require(exists[_troupHash]);\\r\\n        return life[_troupHash];\\r\\n    }\\r\\n\\r\\n    function getDexterity(bytes32 _troupHash)\\r\\n        public\\r\\n        returns (uint256)\\r\\n    { \\r\\n        require(exists[_troupHash]);\\r\\n        return dexterity[_troupHash];\\r\\n    }\\r\\n\\r\\n    function setWood(bytes32 _troupHash, uint256 _amount)\\r\\n        public \\r\\n    { \\r\\n        require(msg.sender == owner);\\r\\n        require(exists[_troupHash]);\\r\\n        wood[_troupHash] = _amount;\\r\\n    }\\r\\n\\r\\n    function setLife(bytes32 _troupHash, uint256 _amount)\\r\\n        public \\r\\n    { \\r\\n        require(msg.sender == owner);\\r\\n        require(exists[_troupHash]);\\r\\n        life[_troupHash] = _amount;\\r\\n    }\\r\\n\\r\\n    function getWood(bytes32 _troupHash)\\r\\n        public\\r\\n        returns (uint256)\\r\\n    { \\r\\n        require(exists[_troupHash]);\\r\\n        return wood[_troupHash];\\r\\n    }\\r\\n\\r\\n    function getIndexLength()\\r\\n        public\\r\\n        returns (uint256)\\r\\n    { \\r\\n        return troupHashes.length;\\r\\n    }\\r\\n\\r\\n    function getStone(bytes32 _troupHash)\\r\\n        public\\r\\n        returns (uint256)\\r\\n    { \\r\\n        require(exists[_troupHash]);\\r\\n        return stone[_troupHash];\\r\\n    }\\r\\n\\r\\n    function getGold(bytes32 _troupHash)\\r\\n        public\\r\\n        returns (uint256)\\r\\n    { \\r\\n        require(exists[_troupHash]);\\r\\n        return gold[_troupHash];\\r\\n    }\\r\\n\\r\\n    function transferOwnership(address newOwner) \\r\\n        public \\r\\n    { \\r\\n        require(msg.sender == owner);\\r\\n        require(bool(newOwner != address(0x0)));\\r\\n        OwnershipTransferred(owner, newOwner);\\r\\n        owner = newOwner;\\r\\n    }\\r\\n\\r\\n    function setName(bytes32 _troupHash, bytes16 _name)\\r\\n        public \\r\\n    { \\r\\n        require(msg.sender == owner);\\r\\n        require(exists[_troupHash]);\\r\\n\\r\\n        names[_troupHash] = _name;\\r\\n    }\\r\\n}\"}},\"settings\":{\"optimizer\":{\"enabled\":false,\"runs\":200},\"outputSelection\":{\"*\":{\"\":[\"ast\"],\"*\":[\"abi\",\"metadata\",\"devdoc\",\"userdoc\",\"storageLayout\",\"evm.legacyAssembly\",\"evm.bytecode\",\"evm.deployedBytecode\",\"evm.methodIdentifiers\",\"evm.gasEstimates\",\"evm.assembly\"]}},\"remappings\":[],\"evmVersion\":\"byzantium\"}}",
	"name": "TroupStorage",
	"bytecode": {
		"linkReferences": {},
		"object": "6060604052341561000f57600080fd5b336000806101000a81548173ffffffffffffffffffffffffffffffffffffffff021916908373ffffffffffffffffffffffffffffffffffffffff16021790555061119f8061005e6000396000f30060606040526004361061011d576000357c0100000000000000000000000000000000000000000000000000000000900463ffffffff168063080461f91461012257806341731f8b1461015257806354b8d5e3146101825780636453da9a146101e35780636b2fafa91461021e5780636d0af38e1461025d57806370c921251461028d578063718de536146102bd57806379525281146102ed5780637a65efc91461032857806382f0b31c1461034f5780638da5cb5b1461038a5780639342ccc2146103df5780639c8b85881461041a578063c74d89031461044a578063e0d87dc21461047a578063e1ba7d01146104b5578063e382af35146104de578063e75f787114610519578063f2fde38b14610554578063f776c0711461058d575b600080fd5b341561012d57600080fd5b6101506004808035600019169060200190919080359060200190919050506105d0565b005b341561015d57600080fd5b610180600480803560001916906020019091908035906020019091905050610683565b005b341561018d57600080fd5b6101a7600480803560001916906020019091905050610736565b60405180826fffffffffffffffffffffffffffffffff19166fffffffffffffffffffffffffffffffff1916815260200191505060405180910390f35b34156101ee57600080fd5b6102086004808035600019169060200190919050506107ac565b6040518082815260200191505060405180910390f35b341561022957600080fd5b61023f6004808035906020019091905050610805565b60405180826000191660001916815260200191505060405180910390f35b341561026857600080fd5b61028b600480803560001916906020019091908035906020019091905050610829565b005b341561029857600080fd5b6102bb6004808035600019169060200190919080359060200190919050506108dc565b005b34156102c857600080fd5b6102eb60048080356000191690602001909190803590602001909190505061098f565b005b34156102f857600080fd5b610312600480803560001916906020019091905050610a42565b6040518082815260200191505060405180910390f35b341561033357600080fd5b61034d600480803560001916906020019091905050610a9b565b005b341561035a57600080fd5b610374600480803560001916906020019091905050610b91565b6040518082815260200191505060405180910390f35b341561039557600080fd5b61039d610bea565b604051808273ffffffffffffffffffffffffffffffffffffffff1673ffffffffffffffffffffffffffffffffffffffff16815260200191505060405180910390f35b34156103ea57600080fd5b610404600480803560001916906020019091905050610c0f565b6040518082815260200191505060405180910390f35b341561042557600080fd5b610448600480803560001916906020019091908035906020019091905050610c68565b005b341561045557600080fd5b610478600480803560001916906020019091908035906020019091905050610d1b565b005b341561048557600080fd5b61049f600480803560001916906020019091905050610dce565b6040518082815260200191505060405180910390f35b34156104c057600080fd5b6104c8610e27565b6040518082815260200191505060405180910390f35b34156104e957600080fd5b610503600480803560001916906020019091905050610e34565b6040518082815260200191505060405180910390f35b341561052457600080fd5b61053e600480803560001916906020019091905050610e8d565b6040518082815260200191505060405180910390f35b341561055f57600080fd5b61058b600480803573ffffffffffffffffffffffffffffffffffffffff16906020019091905050610ee6565b005b341561059857600080fd5b6105ce6004808035600019169060200190919080356fffffffffffffffffffffffffffffffff191690602001909190505061103b565b005b6000809054906101000a900473ffffffffffffffffffffffffffffffffffffffff1673ffffffffffffffffffffffffffffffffffffffff163373ffffffffffffffffffffffffffffffffffffffff1614151561062b57600080fd5b60026000836000191660001916815260200190815260200160002060009054906101000a900460ff16151561065f57600080fd5b80600560008460001916600019168152602001908152602001600020819055505050565b6000809054906101000a900473ffffffffffffffffffffffffffffffffffffffff1673ffffffffffffffffffffffffffffffffffffffff163373ffffffffffffffffffffffffffffffffffffffff161415156106de57600080fd5b60026000836000191660001916815260200190815260200160002060009054906101000a900460ff16151561071257600080fd5b80600660008460001916600019168152602001908152602001600020819055505050565b600060026000836000191660001916815260200190815260200160002060009054906101000a900460ff16151561076c57600080fd5b60036000836000191660001916815260200190815260200160002060009054906101000a9004700100000000000000000000000000000000029050919050565b600060026000836000191660001916815260200190815260200160002060009054906101000a900460ff1615156107e257600080fd5b600560008360001916600019168152602001908152602001600020549050919050565b600060018281548110151561081657fe5b9060005260206000209001549050919050565b6000809054906101000a900473ffffffffffffffffffffffffffffffffffffffff1673ffffffffffffffffffffffffffffffffffffffff163373ffffffffffffffffffffffffffffffffffffffff1614151561088457600080fd5b60026000836000191660001916815260200190815260200160002060009054906101000a900460ff1615156108b857600080fd5b80600a60008460001916600019168152602001908152602001600020819055505050565b6000809054906101000a900473ffffffffffffffffffffffffffffffffffffffff1673ffffffffffffffffffffffffffffffffffffffff163373ffffffffffffffffffffffffffffffffffffffff1614151561093757600080fd5b60026000836000191660001916815260200190815260200160002060009054906101000a900460ff16151561096b57600080fd5b80600860008460001916600019168152602001908152602001600020819055505050565b6000809054906101000a900473ffffffffffffffffffffffffffffffffffffffff1673ffffffffffffffffffffffffffffffffffffffff163373ffffffffffffffffffffffffffffffffffffffff161415156109ea57600080fd5b60026000836000191660001916815260200190815260200160002060009054906101000a900460ff161515610a1e57600080fd5b80600760008460001916600019168152602001908152602001600020819055505050565b600060026000836000191660001916815260200190815260200160002060009054906101000a900460ff161515610a7857600080fd5b600660008360001916600019168152602001908152602001600020549050919050565b6000809054906101000a900473ffffffffffffffffffffffffffffffffffffffff1673ffffffffffffffffffffffffffffffffffffffff163373ffffffffffffffffffffffffffffffffffffffff16141515610af657600080fd5b60026000826000191660001916815260200190815260200160002060009054906101000a900460ff16151515610b2b57600080fd5b60018054806001018281610b3f9190611122565b916000526020600020900160008390919091509060001916905550600160026000836000191660001916815260200190815260200160002060006101000a81548160ff02191690831515021790555050565b600060026000836000191660001916815260200190815260200160002060009054906101000a900460ff161515610bc757600080fd5b600460008360001916600019168152602001908152602001600020549050919050565b6000809054906101000a900473ffffffffffffffffffffffffffffffffffffffff1681565b600060026000836000191660001916815260200190815260200160002060009054906101000a900460ff161515610c4557600080fd5b600760008360001916600019168152602001908152602001600020549050919050565b6000809054906101000a900473ffffffffffffffffffffffffffffffffffffffff1673ffffffffffffffffffffffffffffffffffffffff163373ffffffffffffffffffffffffffffffffffffffff16141515610cc357600080fd5b60026000836000191660001916815260200190815260200160002060009054906101000a900460ff161515610cf757600080fd5b80600960008460001916600019168152602001908152602001600020819055505050565b6000809054906101000a900473ffffffffffffffffffffffffffffffffffffffff1673ffffffffffffffffffffffffffffffffffffffff163373ffffffffffffffffffffffffffffffffffffffff16141515610d7657600080fd5b60026000836000191660001916815260200190815260200160002060009054906101000a900460ff161515610daa57600080fd5b80600460008460001916600019168152602001908152602001600020819055505050565b600060026000836000191660001916815260200190815260200160002060009054906101000a900460ff161515610e0457600080fd5b600960008360001916600019168152602001908152602001600020549050919050565b6000600180549050905090565b600060026000836000191660001916815260200190815260200160002060009054906101000a900460ff161515610e6a57600080fd5b600a60008360001916600019168152602001908152602001600020549050919050565b600060026000836000191660001916815260200190815260200160002060009054906101000a900460ff161515610ec357600080fd5b600860008360001916600019168152602001908152602001600020549050919050565b6000809054906101000a900473ffffffffffffffffffffffffffffffffffffffff1673ffffffffffffffffffffffffffffffffffffffff163373ffffffffffffffffffffffffffffffffffffffff16141515610f4157600080fd5b600073ffffffffffffffffffffffffffffffffffffffff168173ffffffffffffffffffffffffffffffffffffffff1614151515610f7d57600080fd5b8073ffffffffffffffffffffffffffffffffffffffff166000809054906101000a900473ffffffffffffffffffffffffffffffffffffffff1673ffffffffffffffffffffffffffffffffffffffff167f8be0079c531659141344cd1fd0a4f28419497f9722a3daafe3b4186f6b6457e060405160405180910390a3806000806101000a81548173ffffffffffffffffffffffffffffffffffffffff021916908373ffffffffffffffffffffffffffffffffffffffff16021790555050565b6000809054906101000a900473ffffffffffffffffffffffffffffffffffffffff1673ffffffffffffffffffffffffffffffffffffffff163373ffffffffffffffffffffffffffffffffffffffff1614151561109657600080fd5b60026000836000191660001916815260200190815260200160002060009054906101000a900460ff1615156110ca57600080fd5b8060036000846000191660001916815260200190815260200160002060006101000a8154816fffffffffffffffffffffffffffffffff0219169083700100000000000000000000000000000000900402179055505050565b81548183558181151161114957818360005260206000209182019101611148919061114e565b5b505050565b61117091905b8082111561116c576000816000905550600101611154565b5090565b905600a165627a7a72305820cbcb0ad96a4bb924cf48928124b15a1df64cdaac33d0762f408d2d4e834316a90029",
		"opcodes": "PUSH1 0x60 PUSH1 0x40 MSTORE CALLVALUE ISZERO PUSH2 0xF JUMPI PUSH1 0x0 DUP1 REVERT JUMPDEST CALLER PUSH1 0x0 DUP1 PUSH2 0x100 EXP DUP2 SLOAD DUP2 PUSH20 0xFFFFFFFFFFFFFFFFFFFFFFFFFFFFFFFFFFFFFFFF MUL NOT AND SWAP1 DUP4 PUSH20 0xFFFFFFFFFFFFFFFFFFFFFFFFFFFFFFFFFFFFFFFF AND MUL OR SWAP1 SSTORE POP PUSH2 0x119F DUP1 PUSH2 0x5E PUSH1 0x0 CODECOPY PUSH1 0x0 RETURN STOP PUSH1 0x60 PUSH1 0x40 MSTORE PUSH1 0x4 CALLDATASIZE LT PUSH2 0x11D JUMPI PUSH1 0x0 CALLDATALOAD PUSH29 0x100000000000000000000000000000000000000000000000000000000 SWAP1 DIV PUSH4 0xFFFFFFFF AND DUP1 PUSH4 0x80461F9 EQ PUSH2 0x122 JUMPI DUP1 PUSH4 0x41731F8B EQ PUSH2 0x152 JUMPI DUP1 PUSH4 0x54B8D5E3 EQ PUSH2 0x182 JUMPI DUP1 PUSH4 0x6453DA9A EQ PUSH2 0x1E3 JUMPI DUP1 PUSH4 0x6B2FAFA9 EQ PUSH2 0x21E JUMPI DUP1 PUSH4 0x6D0AF38E EQ PUSH2 0x25D JUMPI DUP1 PUSH4 0x70C92125 EQ PUSH2 0x28D JUMPI DUP1 PUSH4 0x718DE536 EQ PUSH2 0x2BD JUMPI DUP1 PUSH4 0x79525281 EQ PUSH2 0x2ED JUMPI DUP1 PUSH4 0x7A65EFC9 EQ PUSH2 0x328 JUMPI DUP1 PUSH4 0x82F0B31C EQ PUSH2 0x34F JUMPI DUP1 PUSH4 0x8DA5CB5B EQ PUSH2 0x38A JUMPI DUP1 PUSH4 0x9342CCC2 EQ PUSH2 0x3DF JUMPI DUP1 PUSH4 0x9C8B8588 EQ PUSH2 0x41A JUMPI DUP1 PUSH4 0xC74D8903 EQ PUSH2 0x44A JUMPI DUP1 PUSH4 0xE0D87DC2 EQ PUSH2 0x47A JUMPI DUP1 PUSH4 0xE1BA7D01 EQ PUSH2 0x4B5 JUMPI DUP1 PUSH4 0xE382AF35 EQ PUSH2 0x4DE JUMPI DUP1 PUSH4 0xE75F7871 EQ PUSH2 0x519 JUMPI DUP1 PUSH4 0xF2FDE38B EQ PUSH2 0x554 JUMPI DUP1 PUSH4 0xF776C071 EQ PUSH2 0x58D JUMPI JUMPDEST PUSH1 0x0 DUP1 REVERT JUMPDEST CALLVALUE ISZERO PUSH2 0x12D JUMPI PUSH1 0x0 DUP1 REVERT JUMPDEST PUSH2 0x150 PUSH1 0x4 DUP1 DUP1 CALLDATALOAD PUSH1 0x0 NOT AND SWAP1 PUSH1 0x20 ADD SWAP1 SWAP2 SWAP1 DUP1 CALLDATALOAD SWAP1 PUSH1 0x20 ADD SWAP1 SWAP2 SWAP1 POP POP PUSH2 0x5D0 JUMP JUMPDEST STOP JUMPDEST CALLVALUE ISZERO PUSH2 0x15D JUMPI PUSH1 0x0 DUP1 REVERT JUMPDEST PUSH2 0x180 PUSH1 0x4 DUP1 DUP1 CALLDATALOAD PUSH1 0x0 NOT AND SWAP1 PUSH1 0x20 ADD SWAP1 SWAP2 SWAP1 DUP1 CALLDATALOAD SWAP1 PUSH1 0x20 ADD SWAP1 SWAP2 SWAP1 POP POP PUSH2 0x683 JUMP JUMPDEST STOP JUMPDEST CALLVALUE ISZERO PUSH2 0x18D JUMPI PUSH1 0x0 DUP1 REVERT JUMPDEST PUSH2 0x1A7 PUSH1 0x4 DUP1 DUP1 CALLDATALOAD PUSH1 0x0 NOT AND SWAP1 PUSH1 0x20 ADD SWAP1 SWAP2 SWAP1 POP POP PUSH2 0x736 JUMP JUMPDEST PUSH1 0x40 MLOAD DUP1 DUP3 PUSH16 0xFFFFFFFFFFFFFFFFFFFFFFFFFFFFFFFF NOT AND PUSH16 0xFFFFFFFFFFFFFFFFFFFFFFFFFFFFFFFF NOT AND DUP2 MSTORE PUSH1 0x20 ADD SWAP2 POP POP PUSH1 0x40 MLOAD DUP1 SWAP2 SUB SWAP1 RETURN JUMPDEST CALLVALUE ISZERO PUSH2 0x1EE JUMPI PUSH1 0x0 DUP1 REVERT JUMPDEST PUSH2 0x208 PUSH1 0x4 DUP1 DUP1 CALLDATALOAD PUSH1 0x0 NOT AND SWAP1 PUSH1 0x20 ADD SWAP1 SWAP2 SWAP1 POP POP PUSH2 0x7AC JUMP JUMPDEST PUSH1 0x40 MLOAD DUP1 DUP3 DUP2 MSTORE PUSH1 0x20 ADD SWAP2 POP POP PUSH1 0x40 MLOAD DUP1 SWAP2 SUB SWAP1 RETURN JUMPDEST CALLVALUE ISZERO PUSH2 0x229 JUMPI PUSH1 0x0 DUP1 REVERT JUMPDEST PUSH2 0x23F PUSH1 0x4 DUP1 DUP1 CALLDATALOAD SWAP1 PUSH1 0x20 ADD SWAP1 SWAP2 SWAP1 POP POP PUSH2 0x805 JUMP JUMPDEST PUSH1 0x40 MLOAD DUP1 DUP3 PUSH1 0x0 NOT AND PUSH1 0x0 NOT AND DUP2 MSTORE PUSH1 0x20 ADD SWAP2 POP POP PUSH1 0x40 MLOAD DUP1 SWAP2 SUB SWAP1 RETURN JUMPDEST CALLVALUE ISZERO PUSH2 0x268 JUMPI PUSH1 0x0 DUP1 REVERT JUMPDEST PUSH2 0x28B PUSH1 0x4 DUP1 DUP1 CALLDATALOAD PUSH1 0x0 NOT AND SWAP1 PUSH1 0x20 ADD SWAP1 SWAP2 SWAP1 DUP1 CALLDATALOAD SWAP1 PUSH1 0x20 ADD SWAP1 SWAP2 SWAP1 POP POP PUSH2 0x829 JUMP JUMPDEST STOP JUMPDEST CALLVALUE ISZERO PUSH2 0x298 JUMPI PUSH1 0x0 DUP1 REVERT JUMPDEST PUSH2 0x2BB PUSH1 0x4 DUP1 DUP1 CALLDATALOAD PUSH1 0x0 NOT AND SWAP1 PUSH1 0x20 ADD SWAP1 SWAP2 SWAP1 DUP1 CALLDATALOAD SWAP1 PUSH1 0x20 ADD SWAP1 SWAP2 SWAP1 POP POP PUSH2 0x8DC JUMP JUMPDEST STOP JUMPDEST CALLVALUE ISZERO PUSH2 0x2C8 JUMPI PUSH1 0x0 DUP1 REVERT JUMPDEST PUSH2 0x2EB PUSH1 0x4 DUP1 DUP1 CALLDATALOAD PUSH1 0x0 NOT AND SWAP1 PUSH1 0x20 ADD SWAP1 SWAP2 SWAP1 DUP1 CALLDATALOAD SWAP1 PUSH1 0x20 ADD SWAP1 SWAP2 SWAP1 POP POP PUSH2 0x98F JUMP JUMPDEST STOP JUMPDEST CALLVALUE ISZERO PUSH2 0x2F8 JUMPI PUSH1 0x0 DUP1 REVERT JUMPDEST PUSH2 0x312 PUSH1 0x4 DUP1 DUP1 CALLDATALOAD PUSH1 0x0 NOT AND SWAP1 PUSH1 0x20 ADD SWAP1 SWAP2 SWAP1 POP POP PUSH2 0xA42 JUMP JUMPDEST PUSH1 0x40 MLOAD DUP1 DUP3 DUP2 MSTORE PUSH1 0x20 ADD SWAP2 POP POP PUSH1 0x40 MLOAD DUP1 SWAP2 SUB SWAP1 RETURN JUMPDEST CALLVALUE ISZERO PUSH2 0x333 JUMPI PUSH1 0x0 DUP1 REVERT JUMPDEST PUSH2 0x34D PUSH1 0x4 DUP1 DUP1 CALLDATALOAD PUSH1 0x0 NOT AND SWAP1 PUSH1 0x20 ADD SWAP1 SWAP2 SWAP1 POP POP PUSH2 0xA9B JUMP JUMPDEST STOP JUMPDEST CALLVALUE ISZERO PUSH2 0x35A JUMPI PUSH1 0x0 DUP1 REVERT JUMPDEST PUSH2 0x374 PUSH1 0x4 DUP1 DUP1 CALLDATALOAD PUSH1 0x0 NOT AND SWAP1 PUSH1 0x20 ADD SWAP1 SWAP2 SWAP1 POP POP PUSH2 0xB91 JUMP JUMPDEST PUSH1 0x40 MLOAD DUP1 DUP3 DUP2 MSTORE PUSH1 0x20 ADD SWAP2 POP POP PUSH1 0x40 MLOAD DUP1 SWAP2 SUB SWAP1 RETURN JUMPDEST CALLVALUE ISZERO PUSH2 0x395 JUMPI PUSH1 0x0 DUP1 REVERT JUMPDEST PUSH2 0x39D PUSH2 0xBEA JUMP JUMPDEST PUSH1 0x40 MLOAD DUP1 DUP3 PUSH20 0xFFFFFFFFFFFFFFFFFFFFFFFFFFFFFFFFFFFFFFFF AND PUSH20 0xFFFFFFFFFFFFFFFFFFFFFFFFFFFFFFFFFFFFFFFF AND DUP2 MSTORE PUSH1 0x20 ADD SWAP2 POP POP PUSH1 0x40 MLOAD DUP1 SWAP2 SUB SWAP1 RETURN JUMPDEST CALLVALUE ISZERO PUSH2 0x3EA JUMPI PUSH1 0x0 DUP1 REVERT JUMPDEST PUSH2 0x404 PUSH1 0x4 DUP1 DUP1 CALLDATALOAD PUSH1 0x0 NOT AND SWAP1 PUSH1 0x20 ADD SWAP1 SWAP2 SWAP1 POP POP PUSH2 0xC0F JUMP JUMPDEST PUSH1 0x40 MLOAD DUP1 DUP3 DUP2 MSTORE PUSH1 0x20 ADD SWAP2 POP POP PUSH1 0x40 MLOAD DUP1 SWAP2 SUB SWAP1 RETURN JUMPDEST CALLVALUE ISZERO PUSH2 0x425 JUMPI PUSH1 0x0 DUP1 REVERT JUMPDEST PUSH2 0x448 PUSH1 0x4 DUP1 DUP1 CALLDATALOAD PUSH1 0x0 NOT AND SWAP1 PUSH1 0x20 ADD SWAP1 SWAP2 SWAP1 DUP1 CALLDATALOAD SWAP1 PUSH1 0x20 ADD SWAP1 SWAP2 SWAP1 POP POP PUSH2 0xC68 JUMP JUMPDEST STOP JUMPDEST CALLVALUE ISZERO PUSH2 0x455 JUMPI PUSH1 0x0 DUP1 REVERT JUMPDEST PUSH2 0x478 PUSH1 0x4 DUP1 DUP1 CALLDATALOAD PUSH1 0x0 NOT AND SWAP1 PUSH1 0x20 ADD SWAP1 SWAP2 SWAP1 DUP1 CALLDATALOAD SWAP1 PUSH1 0x20 ADD SWAP1 SWAP2 SWAP1 POP POP PUSH2 0xD1B JUMP JUMPDEST STOP JUMPDEST CALLVALUE ISZERO PUSH2 0x485 JUMPI PUSH1 0x0 DUP1 REVERT JUMPDEST PUSH2 0x49F PUSH1 0x4 DUP1 DUP1 CALLDATALOAD PUSH1 0x0 NOT AND SWAP1 PUSH1 0x20 ADD SWAP1 SWAP2 SWAP1 POP POP PUSH2 0xDCE JUMP JUMPDEST PUSH1 0x40 MLOAD DUP1 DUP3 DUP2 MSTORE PUSH1 0x20 ADD SWAP2 POP POP PUSH1 0x40 MLOAD DUP1 SWAP2 SUB SWAP1 RETURN JUMPDEST CALLVALUE ISZERO PUSH2 0x4C0 JUMPI PUSH1 0x0 DUP1 REVERT JUMPDEST PUSH2 0x4C8 PUSH2 0xE27 JUMP JUMPDEST PUSH1 0x40 MLOAD DUP1 DUP3 DUP2 MSTORE PUSH1 0x20 ADD SWAP2 POP POP PUSH1 0x40 MLOAD DUP1 SWAP2 SUB SWAP1 RETURN JUMPDEST CALLVALUE ISZERO PUSH2 0x4E9 JUMPI PUSH1 0x0 DUP1 REVERT JUMPDEST PUSH2 0x503 PUSH1 0x4 DUP1 DUP1 CALLDATALOAD PUSH1 0x0 NOT AND SWAP1 PUSH1 0x20 ADD SWAP1 SWAP2 SWAP1 POP POP PUSH2 0xE34 JUMP JUMPDEST PUSH1 0x40 MLOAD DUP1 DUP3 DUP2 MSTORE PUSH1 0x20 ADD SWAP2 POP POP PUSH1 0x40 MLOAD DUP1 SWAP2 SUB SWAP1 RETURN JUMPDEST CALLVALUE ISZERO PUSH2 0x524 JUMPI PUSH1 0x0 DUP1 REVERT JUMPDEST PUSH2 0x53E PUSH1 0x4 DUP1 DUP1 CALLDATALOAD PUSH1 0x0 NOT AND SWAP1 PUSH1 0x20 ADD SWAP1 SWAP2 SWAP1 POP POP PUSH2 0xE8D JUMP JUMPDEST PUSH1 0x40 MLOAD DUP1 DUP3 DUP2 MSTORE PUSH1 0x20 ADD SWAP2 POP POP PUSH1 0x40 MLOAD DUP1 SWAP2 SUB SWAP1 RETURN JUMPDEST CALLVALUE ISZERO PUSH2 0x55F JUMPI PUSH1 0x0 DUP1 REVERT JUMPDEST PUSH2 0x58B PUSH1 0x4 DUP1 DUP1 CALLDATALOAD PUSH20 0xFFFFFFFFFFFFFFFFFFFFFFFFFFFFFFFFFFFFFFFF AND SWAP1 PUSH1 0x20 ADD SWAP1 SWAP2 SWAP1 POP POP PUSH2 0xEE6 JUMP JUMPDEST STOP JUMPDEST CALLVALUE ISZERO PUSH2 0x598 JUMPI PUSH1 0x0 DUP1 REVERT JUMPDEST PUSH2 0x5CE PUSH1 0x4 DUP1 DUP1 CALLDATALOAD PUSH1 0x0 NOT AND SWAP1 PUSH1 0x20 ADD SWAP1 SWAP2 SWAP1 DUP1 CALLDATALOAD PUSH16 0xFFFFFFFFFFFFFFFFFFFFFFFFFFFFFFFF NOT AND SWAP1 PUSH1 0x20 ADD SWAP1 SWAP2 SWAP1 POP POP PUSH2 0x103B JUMP JUMPDEST STOP JUMPDEST PUSH1 0x0 DUP1 SWAP1 SLOAD SWAP1 PUSH2 0x100 EXP SWAP1 DIV PUSH20 0xFFFFFFFFFFFFFFFFFFFFFFFFFFFFFFFFFFFFFFFF AND PUSH20 0xFFFFFFFFFFFFFFFFFFFFFFFFFFFFFFFFFFFFFFFF AND CALLER PUSH20 0xFFFFFFFFFFFFFFFFFFFFFFFFFFFFFFFFFFFFFFFF AND EQ ISZERO ISZERO PUSH2 0x62B JUMPI PUSH1 0x0 DUP1 REVERT JUMPDEST PUSH1 0x2 PUSH1 0x0 DUP4 PUSH1 0x0 NOT AND PUSH1 0x0 NOT AND DUP2 MSTORE PUSH1 0x20 ADD SWAP1 DUP2 MSTORE PUSH1 0x20 ADD PUSH1 0x0 KECCAK256 PUSH1 0x0 SWAP1 SLOAD SWAP1 PUSH2 0x100 EXP SWAP1 DIV PUSH1 0xFF AND ISZERO ISZERO PUSH2 0x65F JUMPI PUSH1 0x0 DUP1 REVERT JUMPDEST DUP1 PUSH1 0x5 PUSH1 0x0 DUP5 PUSH1 0x0 NOT AND PUSH1 0x0 NOT AND DUP2 MSTORE PUSH1 0x20 ADD SWAP1 DUP2 MSTORE PUSH1 0x20 ADD PUSH1 0x0 KECCAK256 DUP2 SWAP1 SSTORE POP POP POP JUMP JUMPDEST PUSH1 0x0 DUP1 SWAP1 SLOAD SWAP1 PUSH2 0x100 EXP SWAP1 DIV PUSH20 0xFFFFFFFFFFFFFFFFFFFFFFFFFFFFFFFFFFFFFFFF AND PUSH20 0xFFFFFFFFFFFFFFFFFFFFFFFFFFFFFFFFFFFFFFFF AND CALLER PUSH20 0xFFFFFFFFFFFFFFFFFFFFFFFFFFFFFFFFFFFFFFFF AND EQ ISZERO ISZERO PUSH2 0x6DE JUMPI PUSH1 0x0 DUP1 REVERT JUMPDEST PUSH1 0x2 PUSH1 0x0 DUP4 PUSH1 0x0 NOT AND PUSH1 0x0 NOT AND DUP2 MSTORE PUSH1 0x20 ADD SWAP1 DUP2 MSTORE PUSH1 0x20 ADD PUSH1 0x0 KECCAK256 PUSH1 0x0 SWAP1 SLOAD SWAP1 PUSH2 0x100 EXP SWAP1 DIV PUSH1 0xFF AND ISZERO ISZERO PUSH2 0x712 JUMPI PUSH1 0x0 DUP1 REVERT JUMPDEST DUP1 PUSH1 0x6 PUSH1 0x0 DUP5 PUSH1 0x0 NOT AND PUSH1 0x0 NOT AND DUP2 MSTORE PUSH1 0x20 ADD SWAP1 DUP2 MSTORE PUSH1 0x20 ADD PUSH1 0x0 KECCAK256 DUP2 SWAP1 SSTORE POP POP POP JUMP JUMPDEST PUSH1 0x0 PUSH1 0x2 PUSH1 0x0 DUP4 PUSH1 0x0 NOT AND PUSH1 0x0 NOT AND DUP2 MSTORE PUSH1 0x20 ADD SWAP1 DUP2 MSTORE PUSH1 0x20 ADD PUSH1 0x0 KECCAK256 PUSH1 0x0 SWAP1 SLOAD SWAP1 PUSH2 0x100 EXP SWAP1 DIV PUSH1 0xFF AND ISZERO ISZERO PUSH2 0x76C JUMPI PUSH1 0x0 DUP1 REVERT JUMPDEST PUSH1 0x3 PUSH1 0x0 DUP4 PUSH1 0x0 NOT AND PUSH1 0x0 NOT AND DUP2 MSTORE PUSH1 0x20 ADD SWAP1 DUP2 MSTORE PUSH1 0x20 ADD PUSH1 0x0 KECCAK256 PUSH1 0x0 SWAP1 SLOAD SWAP1 PUSH2 0x100 EXP SWAP1 DIV PUSH17 0x100000000000000000000000000000000 MUL SWAP1 POP SWAP2 SWAP1 POP JUMP JUMPDEST PUSH1 0x0 PUSH1 0x2 PUSH1 0x0 DUP4 PUSH1 0x0 NOT AND PUSH1 0x0 NOT AND DUP2 MSTORE PUSH1 0x20 ADD SWAP1 DUP2 MSTORE PUSH1 0x20 ADD PUSH1 0x0 KECCAK256 PUSH1 0x0 SWAP1 SLOAD SWAP1 PUSH2 0x100 EXP SWAP1 DIV PUSH1 0xFF AND ISZERO ISZERO PUSH2 0x7E2 JUMPI PUSH1 0x0 DUP1 REVERT JUMPDEST PUSH1 0x5 PUSH1 0x0 DUP4 PUSH1 0x0 NOT AND PUSH1 0x0 NOT AND DUP2 MSTORE PUSH1 0x20 ADD SWAP1 DUP2 MSTORE PUSH1 0x20 ADD PUSH1 0x0 KECCAK256 SLOAD SWAP1 POP SWAP2 SWAP1 POP JUMP JUMPDEST PUSH1 0x0 PUSH1 0x1 DUP3 DUP2 SLOAD DUP2 LT ISZERO ISZERO PUSH2 0x816 JUMPI INVALID JUMPDEST SWAP1 PUSH1 0x0 MSTORE PUSH1 0x20 PUSH1 0x0 KECCAK256 SWAP1 ADD SLOAD SWAP1 POP SWAP2 SWAP1 POP JUMP JUMPDEST PUSH1 0x0 DUP1 SWAP1 SLOAD SWAP1 PUSH2 0x100 EXP SWAP1 DIV PUSH20 0xFFFFFFFFFFFFFFFFFFFFFFFFFFFFFFFFFFFFFFFF AND PUSH20 0xFFFFFFFFFFFFFFFFFFFFFFFFFFFFFFFFFFFFFFFF AND CALLER PUSH20 0xFFFFFFFFFFFFFFFFFFFFFFFFFFFFFFFFFFFFFFFF AND EQ ISZERO ISZERO PUSH2 0x884 JUMPI PUSH1 0x0 DUP1 REVERT JUMPDEST PUSH1 0x2 PUSH1 0x0 DUP4 PUSH1 0x0 NOT AND PUSH1 0x0 NOT AND DUP2 MSTORE PUSH1 0x20 ADD SWAP1 DUP2 MSTORE PUSH1 0x20 ADD PUSH1 0x0 KECCAK256 PUSH1 0x0 SWAP1 SLOAD SWAP1 PUSH2 0x100 EXP SWAP1 DIV PUSH1 0xFF AND ISZERO ISZERO PUSH2 0x8B8 JUMPI PUSH1 0x0 DUP1 REVERT JUMPDEST DUP1 PUSH1 0xA PUSH1 0x0 DUP5 PUSH1 0x0 NOT AND PUSH1 0x0 NOT AND DUP2 MSTORE PUSH1 0x20 ADD SWAP1 DUP2 MSTORE PUSH1 0x20 ADD PUSH1 0x0 KECCAK256 DUP2 SWAP1 SSTORE POP POP POP JUMP JUMPDEST PUSH1 0x0 DUP1 SWAP1 SLOAD SWAP1 PUSH2 0x100 EXP SWAP1 DIV PUSH20 0xFFFFFFFFFFFFFFFFFFFFFFFFFFFFFFFFFFFFFFFF AND PUSH20 0xFFFFFFFFFFFFFFFFFFFFFFFFFFFFFFFFFFFFFFFF AND CALLER PUSH20 0xFFFFFFFFFFFFFFFFFFFFFFFFFFFFFFFFFFFFFFFF AND EQ ISZERO ISZERO PUSH2 0x937 JUMPI PUSH1 0x0 DUP1 REVERT JUMPDEST PUSH1 0x2 PUSH1 0x0 DUP4 PUSH1 0x0 NOT AND PUSH1 0x0 NOT AND DUP2 MSTORE PUSH1 0x20 ADD SWAP1 DUP2 MSTORE PUSH1 0x20 ADD PUSH1 0x0 KECCAK256 PUSH1 0x0 SWAP1 SLOAD SWAP1 PUSH2 0x100 EXP SWAP1 DIV PUSH1 0xFF AND ISZERO ISZERO PUSH2 0x96B JUMPI PUSH1 0x0 DUP1 REVERT JUMPDEST DUP1 PUSH1 0x8 PUSH1 0x0 DUP5 PUSH1 0x0 NOT AND PUSH1 0x0 NOT AND DUP2 MSTORE PUSH1 0x20 ADD SWAP1 DUP2 MSTORE PUSH1 0x20 ADD PUSH1 0x0 KECCAK256 DUP2 SWAP1 SSTORE POP POP POP JUMP JUMPDEST PUSH1 0x0 DUP1 SWAP1 SLOAD SWAP1 PUSH2 0x100 EXP SWAP1 DIV PUSH20 0xFFFFFFFFFFFFFFFFFFFFFFFFFFFFFFFFFFFFFFFF AND PUSH20 0xFFFFFFFFFFFFFFFFFFFFFFFFFFFFFFFFFFFFFFFF AND CALLER PUSH20 0xFFFFFFFFFFFFFFFFFFFFFFFFFFFFFFFFFFFFFFFF AND EQ ISZERO ISZERO PUSH2 0x9EA JUMPI PUSH1 0x0 DUP1 REVERT JUMPDEST PUSH1 0x2 PUSH1 0x0 DUP4 PUSH1 0x0 NOT AND PUSH1 0x0 NOT AND DUP2 MSTORE PUSH1 0x20 ADD SWAP1 DUP2 MSTORE PUSH1 0x20 ADD PUSH1 0x0 KECCAK256 PUSH1 0x0 SWAP1 SLOAD SWAP1 PUSH2 0x100 EXP SWAP1 DIV PUSH1 0xFF AND ISZERO ISZERO PUSH2 0xA1E JUMPI PUSH1 0x0 DUP1 REVERT JUMPDEST DUP1 PUSH1 0x7 PUSH1 0x0 DUP5 PUSH1 0x0 NOT AND PUSH1 0x0 NOT AND DUP2 MSTORE PUSH1 0x20 ADD SWAP1 DUP2 MSTORE PUSH1 0x20 ADD PUSH1 0x0 KECCAK256 DUP2 SWAP1 SSTORE POP POP POP JUMP JUMPDEST PUSH1 0x0 PUSH1 0x2 PUSH1 0x0 DUP4 PUSH1 0x0 NOT AND PUSH1 0x0 NOT AND DUP2 MSTORE PUSH1 0x20 ADD SWAP1 DUP2 MSTORE PUSH1 0x20 ADD PUSH1 0x0 KECCAK256 PUSH1 0x0 SWAP1 SLOAD SWAP1 PUSH2 0x100 EXP SWAP1 DIV PUSH1 0xFF AND ISZERO ISZERO PUSH2 0xA78 JUMPI PUSH1 0x0 DUP1 REVERT JUMPDEST PUSH1 0x6 PUSH1 0x0 DUP4 PUSH1 0x0 NOT AND PUSH1 0x0 NOT AND DUP2 MSTORE PUSH1 0x20 ADD SWAP1 DUP2 MSTORE PUSH1 0x20 ADD PUSH1 0x0 KECCAK256 SLOAD SWAP1 POP SWAP2 SWAP1 POP JUMP JUMPDEST PUSH1 0x0 DUP1 SWAP1 SLOAD SWAP1 PUSH2 0x100 EXP SWAP1 DIV PUSH20 0xFFFFFFFFFFFFFFFFFFFFFFFFFFFFFFFFFFFFFFFF AND PUSH20 0xFFFFFFFFFFFFFFFFFFFFFFFFFFFFFFFFFFFFFFFF AND CALLER PUSH20 0xFFFFFFFFFFFFFFFFFFFFFFFFFFFFFFFFFFFFFFFF AND EQ ISZERO ISZERO PUSH2 0xAF6 JUMPI PUSH1 0x0 DUP1 REVERT JUMPDEST PUSH1 0x2 PUSH1 0x0 DUP3 PUSH1 0x0 NOT AND PUSH1 0x0 NOT AND DUP2 MSTORE PUSH1 0x20 ADD SWAP1 DUP2 MSTORE PUSH1 0x20 ADD PUSH1 0x0 KECCAK256 PUSH1 0x0 SWAP1 SLOAD SWAP1 PUSH2 0x100 EXP SWAP1 DIV PUSH1 0xFF AND ISZERO ISZERO ISZERO PUSH2 0xB2B JUMPI PUSH1 0x0 DUP1 REVERT JUMPDEST PUSH1 0x1 DUP1 SLOAD DUP1 PUSH1 0x1 ADD DUP3 DUP2 PUSH2 0xB3F SWAP2 SWAP1 PUSH2 0x1122 JUMP JUMPDEST SWAP2 PUSH1 0x0 MSTORE PUSH1 0x20 PUSH1 0x0 KECCAK256 SWAP1 ADD PUSH1 0x0 DUP4 SWAP1 SWAP2 SWAP1 SWAP2 POP SWAP1 PUSH1 0x0 NOT AND SWAP1 SSTORE POP PUSH1 0x1 PUSH1 0x2 PUSH1 0x0 DUP4 PUSH1 0x0 NOT AND PUSH1 0x0 NOT AND DUP2 MSTORE PUSH1 0x20 ADD SWAP1 DUP2 MSTORE PUSH1 0x20 ADD PUSH1 0x0 KECCAK256 PUSH1 0x0 PUSH2 0x100 EXP DUP2 SLOAD DUP2 PUSH1 0xFF MUL NOT AND SWAP1 DUP4 ISZERO ISZERO MUL OR SWAP1 SSTORE POP POP JUMP JUMPDEST PUSH1 0x0 PUSH1 0x2 PUSH1 0x0 DUP4 PUSH1 0x0 NOT AND PUSH1 0x0 NOT AND DUP2 MSTORE PUSH1 0x20 ADD SWAP1 DUP2 MSTORE PUSH1 0x20 ADD PUSH1 0x0 KECCAK256 PUSH1 0x0 SWAP1 SLOAD SWAP1 PUSH2 0x100 EXP SWAP1 DIV PUSH1 0xFF AND ISZERO ISZERO PUSH2 0xBC7 JUMPI PUSH1 0x0 DUP1 REVERT JUMPDEST PUSH1 0x4 PUSH1 0x0 DUP4 PUSH1 0x0 NOT AND PUSH1 0x0 NOT AND DUP2 MSTORE PUSH1 0x20 ADD SWAP1 DUP2 MSTORE PUSH1 0x20 ADD PUSH1 0x0 KECCAK256 SLOAD SWAP1 POP SWAP2 SWAP1 POP JUMP JUMPDEST PUSH1 0x0 DUP1 SWAP1 SLOAD SWAP1 PUSH2 0x100 EXP SWAP1 DIV PUSH20 0xFFFFFFFFFFFFFFFFFFFFFFFFFFFFFFFFFFFFFFFF AND DUP2 JUMP JUMPDEST PUSH1 0x0 PUSH1 0x2 PUSH1 0x0 DUP4 PUSH1 0x0 NOT AND PUSH1 0x0 NOT AND DUP2 MSTORE PUSH1 0x20 ADD SWAP1 DUP2 MSTORE PUSH1 0x20 ADD PUSH1 0x0 KECCAK256 PUSH1 0x0 SWAP1 SLOAD SWAP1 PUSH2 0x100 EXP SWAP1 DIV PUSH1 0xFF AND ISZERO ISZERO PUSH2 0xC45 JUMPI PUSH1 0x0 DUP1 REVERT JUMPDEST PUSH1 0x7 PUSH1 0x0 DUP4 PUSH1 0x0 NOT AND PUSH1 0x0 NOT AND DUP2 MSTORE PUSH1 0x20 ADD SWAP1 DUP2 MSTORE PUSH1 0x20 ADD PUSH1 0x0 KECCAK256 SLOAD SWAP1 POP SWAP2 SWAP1 POP JUMP JUMPDEST PUSH1 0x0 DUP1 SWAP1 SLOAD SWAP1 PUSH2 0x100 EXP SWAP1 DIV PUSH20 0xFFFFFFFFFFFFFFFFFFFFFFFFFFFFFFFFFFFFFFFF AND PUSH20 0xFFFFFFFFFFFFFFFFFFFFFFFFFFFFFFFFFFFFFFFF AND CALLER PUSH20 0xFFFFFFFFFFFFFFFFFFFFFFFFFFFFFFFFFFFFFFFF AND EQ ISZERO ISZERO PUSH2 0xCC3 JUMPI PUSH1 0x0 DUP1 REVERT JUMPDEST PUSH1 0x2 PUSH1 0x0 DUP4 PUSH1 0x0 NOT AND PUSH1 0x0 NOT AND DUP2 MSTORE PUSH1 0x20 ADD SWAP1 DUP2 MSTORE PUSH1 0x20 ADD PUSH1 0x0 KECCAK256 PUSH1 0x0 SWAP1 SLOAD SWAP1 PUSH2 0x100 EXP SWAP1 DIV PUSH1 0xFF AND ISZERO ISZERO PUSH2 0xCF7 JUMPI PUSH1 0x0 DUP1 REVERT JUMPDEST DUP1 PUSH1 0x9 PUSH1 0x0 DUP5 PUSH1 0x0 NOT AND PUSH1 0x0 NOT AND DUP2 MSTORE PUSH1 0x20 ADD SWAP1 DUP2 MSTORE PUSH1 0x20 ADD PUSH1 0x0 KECCAK256 DUP2 SWAP1 SSTORE POP POP POP JUMP JUMPDEST PUSH1 0x0 DUP1 SWAP1 SLOAD SWAP1 PUSH2 0x100 EXP SWAP1 DIV PUSH20 0xFFFFFFFFFFFFFFFFFFFFFFFFFFFFFFFFFFFFFFFF AND PUSH20 0xFFFFFFFFFFFFFFFFFFFFFFFFFFFFFFFFFFFFFFFF AND CALLER PUSH20 0xFFFFFFFFFFFFFFFFFFFFFFFFFFFFFFFFFFFFFFFF AND EQ ISZERO ISZERO PUSH2 0xD76 JUMPI PUSH1 0x0 DUP1 REVERT JUMPDEST PUSH1 0x2 PUSH1 0x0 DUP4 PUSH1 0x0 NOT AND PUSH1 0x0 NOT AND DUP2 MSTORE PUSH1 0x20 ADD SWAP1 DUP2 MSTORE PUSH1 0x20 ADD PUSH1 0x0 KECCAK256 PUSH1 0x0 SWAP1 SLOAD SWAP1 PUSH2 0x100 EXP SWAP1 DIV PUSH1 0xFF AND ISZERO ISZERO PUSH2 0xDAA JUMPI PUSH1 0x0 DUP1 REVERT JUMPDEST DUP1 PUSH1 0x4 PUSH1 0x0 DUP5 PUSH1 0x0 NOT AND PUSH1 0x0 NOT AND DUP2 MSTORE PUSH1 0x20 ADD SWAP1 DUP2 MSTORE PUSH1 0x20 ADD PUSH1 0x0 KECCAK256 DUP2 SWAP1 SSTORE POP POP POP JUMP JUMPDEST PUSH1 0x0 PUSH1 0x2 PUSH1 0x0 DUP4 PUSH1 0x0 NOT AND PUSH1 0x0 NOT AND DUP2 MSTORE PUSH1 0x20 ADD SWAP1 DUP2 MSTORE PUSH1 0x20 ADD PUSH1 0x0 KECCAK256 PUSH1 0x0 SWAP1 SLOAD SWAP1 PUSH2 0x100 EXP SWAP1 DIV PUSH1 0xFF AND ISZERO ISZERO PUSH2 0xE04 JUMPI PUSH1 0x0 DUP1 REVERT JUMPDEST PUSH1 0x9 PUSH1 0x0 DUP4 PUSH1 0x0 NOT AND PUSH1 0x0 NOT AND DUP2 MSTORE PUSH1 0x20 ADD SWAP1 DUP2 MSTORE PUSH1 0x20 ADD PUSH1 0x0 KECCAK256 SLOAD SWAP1 POP SWAP2 SWAP1 POP JUMP JUMPDEST PUSH1 0x0 PUSH1 0x1 DUP1 SLOAD SWAP1 POP SWAP1 POP SWAP1 JUMP JUMPDEST PUSH1 0x0 PUSH1 0x2 PUSH1 0x0 DUP4 PUSH1 0x0 NOT AND PUSH1 0x0 NOT AND DUP2 MSTORE PUSH1 0x20 ADD SWAP1 DUP2 MSTORE PUSH1 0x20 ADD PUSH1 0x0 KECCAK256 PUSH1 0x0 SWAP1 SLOAD SWAP1 PUSH2 0x100 EXP SWAP1 DIV PUSH1 0xFF AND ISZERO ISZERO PUSH2 0xE6A JUMPI PUSH1 0x0 DUP1 REVERT JUMPDEST PUSH1 0xA PUSH1 0x0 DUP4 PUSH1 0x0 NOT AND PUSH1 0x0 NOT AND DUP2 MSTORE PUSH1 0x20 ADD SWAP1 DUP2 MSTORE PUSH1 0x20 ADD PUSH1 0x0 KECCAK256 SLOAD SWAP1 POP SWAP2 SWAP1 POP JUMP JUMPDEST PUSH1 0x0 PUSH1 0x2 PUSH1 0x0 DUP4 PUSH1 0x0 NOT AND PUSH1 0x0 NOT AND DUP2 MSTORE PUSH1 0x20 ADD SWAP1 DUP2 MSTORE PUSH1 0x20 ADD PUSH1 0x0 KECCAK256 PUSH1 0x0 SWAP1 SLOAD SWAP1 PUSH2 0x100 EXP SWAP1 DIV PUSH1 0xFF AND ISZERO ISZERO PUSH2 0xEC3 JUMPI PUSH1 0x0 DUP1 REVERT JUMPDEST PUSH1 0x8 PUSH1 0x0 DUP4 PUSH1 0x0 NOT AND PUSH1 0x0 NOT AND DUP2 MSTORE PUSH1 0x20 ADD SWAP1 DUP2 MSTORE PUSH1 0x20 ADD PUSH1 0x0 KECCAK256 SLOAD SWAP1 POP SWAP2 SWAP1 POP JUMP JUMPDEST PUSH1 0x0 DUP1 SWAP1 SLOAD SWAP1 PUSH2 0x100 EXP SWAP1 DIV PUSH20 0xFFFFFFFFFFFFFFFFFFFFFFFFFFFFFFFFFFFFFFFF AND PUSH20 0xFFFFFFFFFFFFFFFFFFFFFFFFFFFFFFFFFFFFFFFF AND CALLER PUSH20 0xFFFFFFFFFFFFFFFFFFFFFFFFFFFFFFFFFFFFFFFF AND EQ ISZERO ISZERO PUSH2 0xF41 JUMPI PUSH1 0x0 DUP1 REVERT JUMPDEST PUSH1 0x0 PUSH20 0xFFFFFFFFFFFFFFFFFFFFFFFFFFFFFFFFFFFFFFFF AND DUP2 PUSH20 0xFFFFFFFFFFFFFFFFFFFFFFFFFFFFFFFFFFFFFFFF AND EQ ISZERO ISZERO ISZERO PUSH2 0xF7D JUMPI PUSH1 0x0 DUP1 REVERT JUMPDEST DUP1 PUSH20 0xFFFFFFFFFFFFFFFFFFFFFFFFFFFFFFFFFFFFFFFF AND PUSH1 0x0 DUP1 SWAP1 SLOAD SWAP1 PUSH2 0x100 EXP SWAP1 DIV PUSH20 0xFFFFFFFFFFFFFFFFFFFFFFFFFFFFFFFFFFFFFFFF AND PUSH20 0xFFFFFFFFFFFFFFFFFFFFFFFFFFFFFFFFFFFFFFFF AND PUSH32 0x8BE0079C531659141344CD1FD0A4F28419497F9722A3DAAFE3B4186F6B6457E0 PUSH1 0x40 MLOAD PUSH1 0x40 MLOAD DUP1 SWAP2 SUB SWAP1 LOG3 DUP1 PUSH1 0x0 DUP1 PUSH2 0x100 EXP DUP2 SLOAD DUP2 PUSH20 0xFFFFFFFFFFFFFFFFFFFFFFFFFFFFFFFFFFFFFFFF MUL NOT AND SWAP1 DUP4 PUSH20 0xFFFFFFFFFFFFFFFFFFFFFFFFFFFFFFFFFFFFFFFF AND MUL OR SWAP1 SSTORE POP POP JUMP JUMPDEST PUSH1 0x0 DUP1 SWAP1 SLOAD SWAP1 PUSH2 0x100 EXP SWAP1 DIV PUSH20 0xFFFFFFFFFFFFFFFFFFFFFFFFFFFFFFFFFFFFFFFF AND PUSH20 0xFFFFFFFFFFFFFFFFFFFFFFFFFFFFFFFFFFFFFFFF AND CALLER PUSH20 0xFFFFFFFFFFFFFFFFFFFFFFFFFFFFFFFFFFFFFFFF AND EQ ISZERO ISZERO PUSH2 0x1096 JUMPI PUSH1 0x0 DUP1 REVERT JUMPDEST PUSH1 0x2 PUSH1 0x0 DUP4 PUSH1 0x0 NOT AND PUSH1 0x0 NOT AND DUP2 MSTORE PUSH1 0x20 ADD SWAP1 DUP2 MSTORE PUSH1 0x20 ADD PUSH1 0x0 KECCAK256 PUSH1 0x0 SWAP1 SLOAD SWAP1 PUSH2 0x100 EXP SWAP1 DIV PUSH1 0xFF AND ISZERO ISZERO PUSH2 0x10CA JUMPI PUSH1 0x0 DUP1 REVERT JUMPDEST DUP1 PUSH1 0x3 PUSH1 0x0 DUP5 PUSH1 0x0 NOT AND PUSH1 0x0 NOT AND DUP2 MSTORE PUSH1 0x20 ADD SWAP1 DUP2 MSTORE PUSH1 0x20 ADD PUSH1 0x0 KECCAK256 PUSH1 0x0 PUSH2 0x100 EXP DUP2 SLOAD DUP2 PUSH16 0xFFFFFFFFFFFFFFFFFFFFFFFFFFFFFFFF MUL NOT AND SWAP1 DUP4 PUSH17 0x100000000000000000000000000000000 SWAP1 DIV MUL OR SWAP1 SSTORE POP POP POP JUMP JUMPDEST DUP2 SLOAD DUP2 DUP4 SSTORE DUP2 DUP2 ISZERO GT PUSH2 0x1149 JUMPI DUP2 DUP4 PUSH1 0x0 MSTORE PUSH1 0x20 PUSH1 0x0 KECCAK256 SWAP2 DUP3 ADD SWAP2 ADD PUSH2 0x1148 SWAP2 SWAP1 PUSH2 0x114E JUMP JUMPDEST JUMPDEST POP POP POP JUMP JUMPDEST PUSH2 0x1170 SWAP2 SWAP1 JUMPDEST DUP1 DUP3 GT ISZERO PUSH2 0x116C JUMPI PUSH1 0x0 DUP2 PUSH1 0x0 SWAP1 SSTORE POP PUSH1 0x1 ADD PUSH2 0x1154 JUMP JUMPDEST POP SWAP1 JUMP JUMPDEST SWAP1 JUMP STOP LOG1 PUSH6 0x627A7A723058 KECCAK256 0xcb 0xcb EXP 0xd9 PUSH11 0x4BB924CF48928124B15A1D 0xf6 0x4c 0xda 0xac CALLER 0xd0 PUSH23 0x2F408D2D4E834316A90029000000000000000000000000 "
	},
	"abi": [
		{
			"constant": false,
			"inputs": [
				{
					"name": "_troupHash",
					"type": "bytes32"
				},
				{
					"name": "_amount",
					"type": "uint256"
				}
			],
			"name": "setStrength",
			"outputs": [],
			"payable": false,
			"stateMutability": "nonpayable",
			"type": "function"
		},
		{
			"constant": false,
			"inputs": [
				{
					"name": "_troupHash",
					"type": "bytes32"
				},
				{
					"name": "_amount",
					"type": "uint256"
				}
			],
			"name": "setIntelligence",
			"outputs": [],
			"payable": false,
			"stateMutability": "nonpayable",
			"type": "function"
		},
		{
			"constant": false,
			"inputs": [
				{
					"name": "_troupHash",
					"type": "bytes32"
				}
			],
			"name": "getName",
			"outputs": [
				{
					"name": "",
					"type": "bytes16"
				}
			],
			"payable": false,
			"stateMutability": "nonpayable",
			"type": "function"
		},
		{
			"constant": false,
			"inputs": [
				{
					"name": "_troupHash",
					"type": "bytes32"
				}
			],
			"name": "getStrength",
			"outputs": [
				{
					"name": "",
					"type": "uint256"
				}
			],
			"payable": false,
			"stateMutability": "nonpayable",
			"type": "function"
		},
		{
			"constant": false,
			"inputs": [
				{
					"name": "_nonce",
					"type": "uint256"
				}
			],
			"name": "getHash",
			"outputs": [
				{
					"name": "",
					"type": "bytes32"
				}
			],
			"payable": false,
			"stateMutability": "nonpayable",
			"type": "function"
		},
		{
			"constant": false,
			"inputs": [
				{
					"name": "_troupHash",
					"type": "bytes32"
				},
				{
					"name": "_amount",
					"type": "uint256"
				}
			],
			"name": "setStone",
			"outputs": [],
			"payable": false,
			"stateMutability": "nonpayable",
			"type": "function"
		},
		{
			"constant": false,
			"inputs": [
				{
					"name": "_troupHash",
					"type": "bytes32"
				},
				{
					"name": "_amount",
					"type": "uint256"
				}
			],
			"name": "setGold",
			"outputs": [],
			"payable": false,
			"stateMutability": "nonpayable",
			"type": "function"
		},
		{
			"constant": false,
			"inputs": [
				{
					"name": "_troupHash",
					"type": "bytes32"
				},
				{
					"name": "_amount",
					"type": "uint256"
				}
			],
			"name": "setDexterity",
			"outputs": [],
			"payable": false,
			"stateMutability": "nonpayable",
			"type": "function"
		},
		{
			"constant": false,
			"inputs": [
				{
					"name": "_troupHash",
					"type": "bytes32"
				}
			],
			"name": "getIntelligence",
			"outputs": [
				{
					"name": "",
					"type": "uint256"
				}
			],
			"payable": false,
			"stateMutability": "nonpayable",
			"type": "function"
		},
		{
			"constant": false,
			"inputs": [
				{
					"name": "_troupHash",
					"type": "bytes32"
				}
			],
			"name": "createTroup",
			"outputs": [],
			"payable": false,
			"stateMutability": "nonpayable",
			"type": "function"
		},
		{
			"constant": false,
			"inputs": [
				{
					"name": "_troupHash",
					"type": "bytes32"
				}
			],
			"name": "getLife",
			"outputs": [
				{
					"name": "",
					"type": "uint256"
				}
			],
			"payable": false,
			"stateMutability": "nonpayable",
			"type": "function"
		},
		{
			"constant": true,
			"inputs": [],
			"name": "owner",
			"outputs": [
				{
					"name": "",
					"type": "address"
				}
			],
			"payable": false,
			"stateMutability": "view",
			"type": "function"
		},
		{
			"constant": false,
			"inputs": [
				{
					"name": "_troupHash",
					"type": "bytes32"
				}
			],
			"name": "getDexterity",
			"outputs": [
				{
					"name": "",
					"type": "uint256"
				}
			],
			"payable": false,
			"stateMutability": "nonpayable",
			"type": "function"
		},
		{
			"constant": false,
			"inputs": [
				{
					"name": "_troupHash",
					"type": "bytes32"
				},
				{
					"name": "_amount",
					"type": "uint256"
				}
			],
			"name": "setWood",
			"outputs": [],
			"payable": false,
			"stateMutability": "nonpayable",
			"type": "function"
		},
		{
			"constant": false,
			"inputs": [
				{
					"name": "_troupHash",
					"type": "bytes32"
				},
				{
					"name": "_amount",
					"type": "uint256"
				}
			],
			"name": "setLife",
			"outputs": [],
			"payable": false,
			"stateMutability": "nonpayable",
			"type": "function"
		},
		{
			"constant": false,
			"inputs": [
				{
					"name": "_troupHash",
					"type": "bytes32"
				}
			],
			"name": "getWood",
			"outputs": [
				{
					"name": "",
					"type": "uint256"
				}
			],
			"payable": false,
			"stateMutability": "nonpayable",
			"type": "function"
		},
		{
			"constant": false,
			"inputs": [],
			"name": "getIndexLength",
			"outputs": [
				{
					"name": "",
					"type": "uint256"
				}
			],
			"payable": false,
			"stateMutability": "nonpayable",
			"type": "function"
		},
		{
			"constant": false,
			"inputs": [
				{
					"name": "_troupHash",
					"type": "bytes32"
				}
			],
			"name": "getStone",
			"outputs": [
				{
					"name": "",
					"type": "uint256"
				}
			],
			"payable": false,
			"stateMutability": "nonpayable",
			"type": "function"
		},
		{
			"constant": false,
			"inputs": [
				{
					"name": "_troupHash",
					"type": "bytes32"
				}
			],
			"name": "getGold",
			"outputs": [
				{
					"name": "",
					"type": "uint256"
				}
			],
			"payable": false,
			"stateMutability": "nonpayable",
			"type": "function"
		},
		{
			"constant": false,
			"inputs": [
				{
					"name": "newOwner",
					"type": "address"
				}
			],
			"name": "transferOwnership",
			"outputs": [],
			"payable": false,
			"stateMutability": "nonpayable",
			"type": "function"
		},
		{
			"constant": false,
			"inputs": [
				{
					"name": "_troupHash",
					"type": "bytes32"
				},
				{
					"name": "_name",
					"type": "bytes16"
				}
			],
			"name": "setName",
			"outputs": [],
			"payable": false,
			"stateMutability": "nonpayable",
			"type": "function"
		},
		{
			"inputs": [],
			"payable": false,
			"stateMutability": "nonpayable",
			"type": "constructor"
		},
		{
			"payable": true,
			"stateMutability": "payable",
			"type": "fallback"
		},
		{
			"anonymous": false,
			"inputs": [
				{
					"indexed": true,
					"name": "previousOwner",
					"type": "address"
				},
				{
					"indexed": true,
					"name": "newOwner",
					"type": "address"
				}
			],
			"name": "OwnershipTransferred",
			"type": "event"
		}
	],
	"web3Deploy": "var troupstorageContract = new web3.eth.Contract([{\"constant\":false,\"inputs\":[{\"name\":\"_troupHash\",\"type\":\"bytes32\"},{\"name\":\"_amount\",\"type\":\"uint256\"}],\"name\":\"setStrength\",\"outputs\":[],\"payable\":false,\"stateMutability\":\"nonpayable\",\"type\":\"function\"},{\"constant\":false,\"inputs\":[{\"name\":\"_troupHash\",\"type\":\"bytes32\"},{\"name\":\"_amount\",\"type\":\"uint256\"}],\"name\":\"setIntelligence\",\"outputs\":[],\"payable\":false,\"stateMutability\":\"nonpayable\",\"type\":\"function\"},{\"constant\":false,\"inputs\":[{\"name\":\"_troupHash\",\"type\":\"bytes32\"}],\"name\":\"getName\",\"outputs\":[{\"name\":\"\",\"type\":\"bytes16\"}],\"payable\":false,\"stateMutability\":\"nonpayable\",\"type\":\"function\"},{\"constant\":false,\"inputs\":[{\"name\":\"_troupHash\",\"type\":\"bytes32\"}],\"name\":\"getStrength\",\"outputs\":[{\"name\":\"\",\"type\":\"uint256\"}],\"payable\":false,\"stateMutability\":\"nonpayable\",\"type\":\"function\"},{\"constant\":false,\"inputs\":[{\"name\":\"_nonce\",\"type\":\"uint256\"}],\"name\":\"getHash\",\"outputs\":[{\"name\":\"\",\"type\":\"bytes32\"}],\"payable\":false,\"stateMutability\":\"nonpayable\",\"type\":\"function\"},{\"constant\":false,\"inputs\":[{\"name\":\"_troupHash\",\"type\":\"bytes32\"},{\"name\":\"_amount\",\"type\":\"uint256\"}],\"name\":\"setStone\",\"outputs\":[],\"payable\":false,\"stateMutability\":\"nonpayable\",\"type\":\"function\"},{\"constant\":false,\"inputs\":[{\"name\":\"_troupHash\",\"type\":\"bytes32\"},{\"name\":\"_amount\",\"type\":\"uint256\"}],\"name\":\"setGold\",\"outputs\":[],\"payable\":false,\"stateMutability\":\"nonpayable\",\"type\":\"function\"},{\"constant\":false,\"inputs\":[{\"name\":\"_troupHash\",\"type\":\"bytes32\"},{\"name\":\"_amount\",\"type\":\"uint256\"}],\"name\":\"setDexterity\",\"outputs\":[],\"payable\":false,\"stateMutability\":\"nonpayable\",\"type\":\"function\"},{\"constant\":false,\"inputs\":[{\"name\":\"_troupHash\",\"type\":\"bytes32\"}],\"name\":\"getIntelligence\",\"outputs\":[{\"name\":\"\",\"type\":\"uint256\"}],\"payable\":false,\"stateMutability\":\"nonpayable\",\"type\":\"function\"},{\"constant\":false,\"inputs\":[{\"name\":\"_troupHash\",\"type\":\"bytes32\"}],\"name\":\"createTroup\",\"outputs\":[],\"payable\":false,\"stateMutability\":\"nonpayable\",\"type\":\"function\"},{\"constant\":false,\"inputs\":[{\"name\":\"_troupHash\",\"type\":\"bytes32\"}],\"name\":\"getLife\",\"outputs\":[{\"name\":\"\",\"type\":\"uint256\"}],\"payable\":false,\"stateMutability\":\"nonpayable\",\"type\":\"function\"},{\"constant\":true,\"inputs\":[],\"name\":\"owner\",\"outputs\":[{\"name\":\"\",\"type\":\"address\"}],\"payable\":false,\"stateMutability\":\"view\",\"type\":\"function\"},{\"constant\":false,\"inputs\":[{\"name\":\"_troupHash\",\"type\":\"bytes32\"}],\"name\":\"getDexterity\",\"outputs\":[{\"name\":\"\",\"type\":\"uint256\"}],\"payable\":false,\"stateMutability\":\"nonpayable\",\"type\":\"function\"},{\"constant\":false,\"inputs\":[{\"name\":\"_troupHash\",\"type\":\"bytes32\"},{\"name\":\"_amount\",\"type\":\"uint256\"}],\"name\":\"setWood\",\"outputs\":[],\"payable\":false,\"stateMutability\":\"nonpayable\",\"type\":\"function\"},{\"constant\":false,\"inputs\":[{\"name\":\"_troupHash\",\"type\":\"bytes32\"},{\"name\":\"_amount\",\"type\":\"uint256\"}],\"name\":\"setLife\",\"outputs\":[],\"payable\":false,\"stateMutability\":\"nonpayable\",\"type\":\"function\"},{\"constant\":false,\"inputs\":[{\"name\":\"_troupHash\",\"type\":\"bytes32\"}],\"name\":\"getWood\",\"outputs\":[{\"name\":\"\",\"type\":\"uint256\"}],\"payable\":false,\"stateMutability\":\"nonpayable\",\"type\":\"function\"},{\"constant\":false,\"inputs\":[],\"name\":\"getIndexLength\",\"outputs\":[{\"name\":\"\",\"type\":\"uint256\"}],\"payable\":false,\"stateMutability\":\"nonpayable\",\"type\":\"function\"},{\"constant\":false,\"inputs\":[{\"name\":\"_troupHash\",\"type\":\"bytes32\"}],\"name\":\"getStone\",\"outputs\":[{\"name\":\"\",\"type\":\"uint256\"}],\"payable\":false,\"stateMutability\":\"nonpayable\",\"type\":\"function\"},{\"constant\":false,\"inputs\":[{\"name\":\"_troupHash\",\"type\":\"bytes32\"}],\"name\":\"getGold\",\"outputs\":[{\"name\":\"\",\"type\":\"uint256\"}],\"payable\":false,\"stateMutability\":\"nonpayable\",\"type\":\"function\"},{\"constant\":false,\"inputs\":[{\"name\":\"newOwner\",\"type\":\"address\"}],\"name\":\"transferOwnership\",\"outputs\":[],\"payable\":false,\"stateMutability\":\"nonpayable\",\"type\":\"function\"},{\"constant\":false,\"inputs\":[{\"name\":\"_troupHash\",\"type\":\"bytes32\"},{\"name\":\"_name\",\"type\":\"bytes16\"}],\"name\":\"setName\",\"outputs\":[],\"payable\":false,\"stateMutability\":\"nonpayable\",\"type\":\"function\"},{\"inputs\":[],\"payable\":false,\"stateMutability\":\"nonpayable\",\"type\":\"constructor\"},{\"payable\":true,\"stateMutability\":\"payable\",\"type\":\"fallback\"},{\"anonymous\":false,\"inputs\":[{\"indexed\":true,\"name\":\"previousOwner\",\"type\":\"address\"},{\"indexed\":true,\"name\":\"newOwner\",\"type\":\"address\"}],\"name\":\"OwnershipTransferred\",\"type\":\"event\"}]);\nvar troupstorage = troupstorageContract.deploy({\n     data: '0x6060604052341561000f57600080fd5b336000806101000a81548173ffffffffffffffffffffffffffffffffffffffff021916908373ffffffffffffffffffffffffffffffffffffffff16021790555061119f8061005e6000396000f30060606040526004361061011d576000357c0100000000000000000000000000000000000000000000000000000000900463ffffffff168063080461f91461012257806341731f8b1461015257806354b8d5e3146101825780636453da9a146101e35780636b2fafa91461021e5780636d0af38e1461025d57806370c921251461028d578063718de536146102bd57806379525281146102ed5780637a65efc91461032857806382f0b31c1461034f5780638da5cb5b1461038a5780639342ccc2146103df5780639c8b85881461041a578063c74d89031461044a578063e0d87dc21461047a578063e1ba7d01146104b5578063e382af35146104de578063e75f787114610519578063f2fde38b14610554578063f776c0711461058d575b600080fd5b341561012d57600080fd5b6101506004808035600019169060200190919080359060200190919050506105d0565b005b341561015d57600080fd5b610180600480803560001916906020019091908035906020019091905050610683565b005b341561018d57600080fd5b6101a7600480803560001916906020019091905050610736565b60405180826fffffffffffffffffffffffffffffffff19166fffffffffffffffffffffffffffffffff1916815260200191505060405180910390f35b34156101ee57600080fd5b6102086004808035600019169060200190919050506107ac565b6040518082815260200191505060405180910390f35b341561022957600080fd5b61023f6004808035906020019091905050610805565b60405180826000191660001916815260200191505060405180910390f35b341561026857600080fd5b61028b600480803560001916906020019091908035906020019091905050610829565b005b341561029857600080fd5b6102bb6004808035600019169060200190919080359060200190919050506108dc565b005b34156102c857600080fd5b6102eb60048080356000191690602001909190803590602001909190505061098f565b005b34156102f857600080fd5b610312600480803560001916906020019091905050610a42565b6040518082815260200191505060405180910390f35b341561033357600080fd5b61034d600480803560001916906020019091905050610a9b565b005b341561035a57600080fd5b610374600480803560001916906020019091905050610b91565b6040518082815260200191505060405180910390f35b341561039557600080fd5b61039d610bea565b604051808273ffffffffffffffffffffffffffffffffffffffff1673ffffffffffffffffffffffffffffffffffffffff16815260200191505060405180910390f35b34156103ea57600080fd5b610404600480803560001916906020019091905050610c0f565b6040518082815260200191505060405180910390f35b341561042557600080fd5b610448600480803560001916906020019091908035906020019091905050610c68565b005b341561045557600080fd5b610478600480803560001916906020019091908035906020019091905050610d1b565b005b341561048557600080fd5b61049f600480803560001916906020019091905050610dce565b6040518082815260200191505060405180910390f35b34156104c057600080fd5b6104c8610e27565b6040518082815260200191505060405180910390f35b34156104e957600080fd5b610503600480803560001916906020019091905050610e34565b6040518082815260200191505060405180910390f35b341561052457600080fd5b61053e600480803560001916906020019091905050610e8d565b6040518082815260200191505060405180910390f35b341561055f57600080fd5b61058b600480803573ffffffffffffffffffffffffffffffffffffffff16906020019091905050610ee6565b005b341561059857600080fd5b6105ce6004808035600019169060200190919080356fffffffffffffffffffffffffffffffff191690602001909190505061103b565b005b6000809054906101000a900473ffffffffffffffffffffffffffffffffffffffff1673ffffffffffffffffffffffffffffffffffffffff163373ffffffffffffffffffffffffffffffffffffffff1614151561062b57600080fd5b60026000836000191660001916815260200190815260200160002060009054906101000a900460ff16151561065f57600080fd5b80600560008460001916600019168152602001908152602001600020819055505050565b6000809054906101000a900473ffffffffffffffffffffffffffffffffffffffff1673ffffffffffffffffffffffffffffffffffffffff163373ffffffffffffffffffffffffffffffffffffffff161415156106de57600080fd5b60026000836000191660001916815260200190815260200160002060009054906101000a900460ff16151561071257600080fd5b80600660008460001916600019168152602001908152602001600020819055505050565b600060026000836000191660001916815260200190815260200160002060009054906101000a900460ff16151561076c57600080fd5b60036000836000191660001916815260200190815260200160002060009054906101000a9004700100000000000000000000000000000000029050919050565b600060026000836000191660001916815260200190815260200160002060009054906101000a900460ff1615156107e257600080fd5b600560008360001916600019168152602001908152602001600020549050919050565b600060018281548110151561081657fe5b9060005260206000209001549050919050565b6000809054906101000a900473ffffffffffffffffffffffffffffffffffffffff1673ffffffffffffffffffffffffffffffffffffffff163373ffffffffffffffffffffffffffffffffffffffff1614151561088457600080fd5b60026000836000191660001916815260200190815260200160002060009054906101000a900460ff1615156108b857600080fd5b80600a60008460001916600019168152602001908152602001600020819055505050565b6000809054906101000a900473ffffffffffffffffffffffffffffffffffffffff1673ffffffffffffffffffffffffffffffffffffffff163373ffffffffffffffffffffffffffffffffffffffff1614151561093757600080fd5b60026000836000191660001916815260200190815260200160002060009054906101000a900460ff16151561096b57600080fd5b80600860008460001916600019168152602001908152602001600020819055505050565b6000809054906101000a900473ffffffffffffffffffffffffffffffffffffffff1673ffffffffffffffffffffffffffffffffffffffff163373ffffffffffffffffffffffffffffffffffffffff161415156109ea57600080fd5b60026000836000191660001916815260200190815260200160002060009054906101000a900460ff161515610a1e57600080fd5b80600760008460001916600019168152602001908152602001600020819055505050565b600060026000836000191660001916815260200190815260200160002060009054906101000a900460ff161515610a7857600080fd5b600660008360001916600019168152602001908152602001600020549050919050565b6000809054906101000a900473ffffffffffffffffffffffffffffffffffffffff1673ffffffffffffffffffffffffffffffffffffffff163373ffffffffffffffffffffffffffffffffffffffff16141515610af657600080fd5b60026000826000191660001916815260200190815260200160002060009054906101000a900460ff16151515610b2b57600080fd5b60018054806001018281610b3f9190611122565b916000526020600020900160008390919091509060001916905550600160026000836000191660001916815260200190815260200160002060006101000a81548160ff02191690831515021790555050565b600060026000836000191660001916815260200190815260200160002060009054906101000a900460ff161515610bc757600080fd5b600460008360001916600019168152602001908152602001600020549050919050565b6000809054906101000a900473ffffffffffffffffffffffffffffffffffffffff1681565b600060026000836000191660001916815260200190815260200160002060009054906101000a900460ff161515610c4557600080fd5b600760008360001916600019168152602001908152602001600020549050919050565b6000809054906101000a900473ffffffffffffffffffffffffffffffffffffffff1673ffffffffffffffffffffffffffffffffffffffff163373ffffffffffffffffffffffffffffffffffffffff16141515610cc357600080fd5b60026000836000191660001916815260200190815260200160002060009054906101000a900460ff161515610cf757600080fd5b80600960008460001916600019168152602001908152602001600020819055505050565b6000809054906101000a900473ffffffffffffffffffffffffffffffffffffffff1673ffffffffffffffffffffffffffffffffffffffff163373ffffffffffffffffffffffffffffffffffffffff16141515610d7657600080fd5b60026000836000191660001916815260200190815260200160002060009054906101000a900460ff161515610daa57600080fd5b80600460008460001916600019168152602001908152602001600020819055505050565b600060026000836000191660001916815260200190815260200160002060009054906101000a900460ff161515610e0457600080fd5b600960008360001916600019168152602001908152602001600020549050919050565b6000600180549050905090565b600060026000836000191660001916815260200190815260200160002060009054906101000a900460ff161515610e6a57600080fd5b600a60008360001916600019168152602001908152602001600020549050919050565b600060026000836000191660001916815260200190815260200160002060009054906101000a900460ff161515610ec357600080fd5b600860008360001916600019168152602001908152602001600020549050919050565b6000809054906101000a900473ffffffffffffffffffffffffffffffffffffffff1673ffffffffffffffffffffffffffffffffffffffff163373ffffffffffffffffffffffffffffffffffffffff16141515610f4157600080fd5b600073ffffffffffffffffffffffffffffffffffffffff168173ffffffffffffffffffffffffffffffffffffffff1614151515610f7d57600080fd5b8073ffffffffffffffffffffffffffffffffffffffff166000809054906101000a900473ffffffffffffffffffffffffffffffffffffffff1673ffffffffffffffffffffffffffffffffffffffff167f8be0079c531659141344cd1fd0a4f28419497f9722a3daafe3b4186f6b6457e060405160405180910390a3806000806101000a81548173ffffffffffffffffffffffffffffffffffffffff021916908373ffffffffffffffffffffffffffffffffffffffff16021790555050565b6000809054906101000a900473ffffffffffffffffffffffffffffffffffffffff1673ffffffffffffffffffffffffffffffffffffffff163373ffffffffffffffffffffffffffffffffffffffff1614151561109657600080fd5b60026000836000191660001916815260200190815260200160002060009054906101000a900460ff1615156110ca57600080fd5b8060036000846000191660001916815260200190815260200160002060006101000a8154816fffffffffffffffffffffffffffffffff0219169083700100000000000000000000000000000000900402179055505050565b81548183558181151161114957818360005260206000209182019101611148919061114e565b5b505050565b61117091905b8082111561116c576000816000905550600101611154565b5090565b905600a165627a7a72305820cbcb0ad96a4bb924cf48928124b15a1df64cdaac33d0762f408d2d4e834316a90029', \n     arguments: [\n     ]\n}).send({\n     from: web3.eth.accounts[0], \n     gas: '4700000'\n   }, function (e, contract){\n    console.log(e, contract);\n    if (typeof contract.address !== 'undefined') {\n         console.log('Contract mined! address: ' + contract.address + ' transactionHash: ' + contract.transactionHash);\n    }\n })",
	"metadataHash": "cbcb0ad96a4bb924cf48928124b15a1df64cdaac33d0762f408d2d4e834316a9",
	"swarmLocation": "bzzr://cbcb0ad96a4bb924cf48928124b15a1df64cdaac33d0762f408d2d4e834316a9",
	"functionHashes": {
		"79525281": "getIntelligence(bytes32)",
		"7a65efc9": "createTroup(bytes32)",
		"9342ccc2": "getDexterity(bytes32)",
		"e75f7871": "getGold(bytes32)",
		"6b2fafa9": "getHash(uint256)",
		"e1ba7d01": "getIndexLength()",
		"82f0b31c": "getLife(bytes32)",
		"54b8d5e3": "getName(bytes32)",
		"e382af35": "getStone(bytes32)",
		"6453da9a": "getStrength(bytes32)",
		"e0d87dc2": "getWood(bytes32)",
		"8da5cb5b": "owner()",
		"718de536": "setDexterity(bytes32,uint256)",
		"70c92125": "setGold(bytes32,uint256)",
		"41731f8b": "setIntelligence(bytes32,uint256)",
		"c74d8903": "setLife(bytes32,uint256)",
		"f776c071": "setName(bytes32,bytes16)",
		"6d0af38e": "setStone(bytes32,uint256)",
		"080461f9": "setStrength(bytes32,uint256)",
		"9c8b8588": "setWood(bytes32,uint256)",
		"f2fde38b": "transferOwnership(address)"
	},
	"gasEstimates": {
		"Creation": {
			"codeDepositCost": "902200",
			"executionCost": "21196",
			"totalCost": "923396"
		},
		"External": {
			"": "531",
			"createTroup(bytes32)": "infinite",
			"getDexterity(bytes32)": "1157",
			"getGold(bytes32)": "1289",
			"getHash(uint256)": "828",
			"getIndexLength()": "754",
			"getIntelligence(bytes32)": "1069",
			"getLife(bytes32)": "1113",
			"getName(bytes32)": "993",
			"getStone(bytes32)": "1267",
			"getStrength(bytes32)": "959",
			"getWood(bytes32)": "1223",
			"owner()": "676",
			"setDexterity(bytes32,uint256)": "21094",
			"setGold(bytes32,uint256)": "21072",
			"setIntelligence(bytes32,uint256)": "20962",
			"setLife(bytes32,uint256)": "21248",
			"setName(bytes32,bytes16)": "21647",
			"setStone(bytes32,uint256)": "21050",
			"setStrength(bytes32,uint256)": "20940",
			"setWood(bytes32,uint256)": "21226",
			"transferOwnership(address)": "22956"
		}
	},
	"devdoc": {
		"methods": {
			"createTroup(bytes32)": {
				"details": "Reverts if the hash is already registered.\r"
			}
		},
		"title": "TroupStorage for Realms of Ether (https://www.realmsofether.com)\r"
	},
	"userdoc": {
		"methods": {
			"createTroup(bytes32)": {
				"notice": "Registers a new troup hash. Must be called before any stats can be read or written.\r"
			}
		}
	},
	"Runtime Bytecode": {
		"linkReferences": {},
		"object": "60606040526004361061011d576000357c0100000000000000000000000000000000000000000000000000000000900463ffffffff168063080461f91461012257806341731f8b1461015257806354b8d5e3146101825780636453da9a146101e35780636b2fafa91461021e5780636d0af38e1461025d57806370c921251461028d578063718de536146102bd57806379525281146102ed5780637a65efc91461032857806382f0b31c1461034f5780638da5cb5b1461038a5780639342ccc2146103df5780639c8b85881461041a578063c74d89031461044a578063e0d87dc21461047a578063e1ba7d01146104b5578063e382af35146104de578063e75f787114610519578063f2fde38b14610554578063f776c0711461058d575b600080fd5b341561012d57600080fd5b6101506004808035600019169060200190919080359060200190919050506105d0565b005b341561015d57600080fd5b610180600480803560001916906020019091908035906020019091905050610683565b005b341561018d57600080fd5b6101a7600480803560001916906020019091905050610736565b60405180826fffffffffffffffffffffffffffffffff19166fffffffffffffffffffffffffffffffff1916815260200191505060405180910390f35b34156101ee57600080fd5b6102086004808035600019169060200190919050506107ac565b6040518082815260200191505060405180910390f35b341561022957600080fd5b61023f6004808035906020019091905050610805565b60405180826000191660001916815260200191505060405180910390f35b341561026857600080fd5b61028b600480803560001916906020019091908035906020019091905050610829565b005b341561029857600080fd5b6102bb6004808035600019169060200190919080359060200190919050506108dc565b005b34156102c857600080fd5b6102eb60048080356000191690602001909190803590602001909190505061098f565b005b34156102f857600080fd5b610312600480803560001916906020019091905050610a42565b6040518082815260200191505060405180910390f35b341561033357600080fd5b61034d600480803560001916906020019091905050610a9b565b005b341561035a57600080fd5b610374600480803560001916906020019091905050610b91565b6040518082815260200191505060405180910390f35b341561039557600080fd5b61039d610bea565b604051808273ffffffffffffffffffffffffffffffffffffffff1673ffffffffffffffffffffffffffffffffffffffff16815260200191505060405180910390f35b34156103ea57600080fd5b610404600480803560001916906020019091905050610c0f565b6040518082815260200191505060405180910390f35b341561042557600080fd5b610448600480803560001916906020019091908035906020019091905050610c68565b005b341561045557600080fd5b610478600480803560001916906020019091908035906020019091905050610d1b565b005b341561048557600080fd5b61049f600480803560001916906020019091905050610dce565b6040518082815260200191505060405180910390f35b34156104c057600080fd5b6104c8610e27565b6040518082815260200191505060405180910390f35b34156104e957600080fd5b610503600480803560001916906020019091905050610e34565b6040518082815260200191505060405180910390f35b341561052457600080fd5b61053e600480803560001916906020019091905050610e8d565b6040518082815260200191505060405180910390f35b341561055f57600080fd5b61058b600480803573ffffffffffffffffffffffffffffffffffffffff16906020019091905050610ee6565b005b341561059857600080fd5b6105ce6004808035600019169060200190919080356fffffffffffffffffffffffffffffffff191690602001909190505061103b565b005b6000809054906101000a900473ffffffffffffffffffffffffffffffffffffffff1673ffffffffffffffffffffffffffffffffffffffff163373ffffffffffffffffffffffffffffffffffffffff1614151561062b57600080fd5b60026000836000191660001916815260200190815260200160002060009054906101000a900460ff16151561065f57600080fd5b80600560008460001916600019168152602001908152602001600020819055505050565b6000809054906101000a900473ffffffffffffffffffffffffffffffffffffffff1673ffffffffffffffffffffffffffffffffffffffff163373ffffffffffffffffffffffffffffffffffffffff161415156106de57600080fd5b60026000836000191660001916815260200190815260200160002060009054906101000a900460ff16151561071257600080fd5b80600660008460001916600019168152602001908152602001600020819055505050565b600060026000836000191660001916815260200190815260200160002060009054906101000a900460ff16151561076c57600080fd5b60036000836000191660001916815260200190815260200160002060009054906101000a9004700100000000000000000000000000000000029050919050565b600060026000836000191660001916815260200190815260200160002060009054906101000a900460ff1615156107e257600080fd5b600560008360001916600019168152602001908152602001600020549050919050565b600060018281548110151561081657fe5b9060005260206000209001549050919050565b6000809054906101000a900473ffffffffffffffffffffffffffffffffffffffff1673ffffffffffffffffffffffffffffffffffffffff163373ffffffffffffffffffffffffffffffffffffffff1614151561088457600080fd5b60026000836000191660001916815260200190815260200160002060009054906101000a900460ff1615156108b857600080fd5b80600a60008460001916600019168152602001908152602001600020819055505050565b6000809054906101000a900473ffffffffffffffffffffffffffffffffffffffff1673ffffffffffffffffffffffffffffffffffffffff163373ffffffffffffffffffffffffffffffffffffffff1614151561093757600080fd5b60026000836000191660001916815260200190815260200160002060009054906101000a900460ff16151561096b57600080fd5b80600860008460001916600019168152602001908152602001600020819055505050565b6000809054906101000a900473ffffffffffffffffffffffffffffffffffffffff1673ffffffffffffffffffffffffffffffffffffffff163373ffffffffffffffffffffffffffffffffffffffff161415156109ea57600080fd5b60026000836000191660001916815260200190815260200160002060009054906101000a900460ff161515610a1e57600080fd5b80600760008460001916600019168152602001908152602001600020819055505050565b600060026000836000191660001916815260200190815260200160002060009054906101000a900460ff161515610a7857600080fd5b600660008360001916600019168152602001908152602001600020549050919050565b6000809054906101000a900473ffffffffffffffffffffffffffffffffffffffff1673ffffffffffffffffffffffffffffffffffffffff163373ffffffffffffffffffffffffffffffffffffffff16141515610af657600080fd5b60026000826000191660001916815260200190815260200160002060009054906101000a900460ff16151515610b2b57600080fd5b60018054806001018281610b3f9190611122565b916000526020600020900160008390919091509060001916905550600160026000836000191660001916815260200190815260200160002060006101000a81548160ff02191690831515021790555050565b600060026000836000191660001916815260200190815260200160002060009054906101000a900460ff161515610bc757600080fd5b600460008360001916600019168152602001908152602001600020549050919050565b6000809054906101000a900473ffffffffffffffffffffffffffffffffffffffff1681565b600060026000836000191660001916815260200190815260200160002060009054906101000a900460ff161515610c4557600080fd5b600760008360001916600019168152602001908152602001600020549050919050565b6000809054906101000a900473ffffffffffffffffffffffffffffffffffffffff1673ffffffffffffffffffffffffffffffffffffffff163373ffffffffffffffffffffffffffffffffffffffff16141515610cc357600080fd5b60026000836000191660001916815260200190815260200160002060009054906101000a900460ff161515610cf757600080fd5b80600960008460001916600019168152602001908152602001600020819055505050565b6000809054906101000a900473ffffffffffffffffffffffffffffffffffffffff1673ffffffffffffffffffffffffffffffffffffffff163373ffffffffffffffffffffffffffffffffffffffff16141515610d7657600080fd5b60026000836000191660001916815260200190815260200160002060009054906101000a900460ff161515610daa57600080fd5b80600460008460001916600019168152602001908152602001600020819055505050565b600060026000836000191660001916815260200190815260200160002060009054906101000a900460ff161515610e0457600080fd5b600960008360001916600019168152602001908152602001600020549050919050565b6000600180549050905090565b600060026000836000191660001916815260200190815260200160002060009054906101000a900460ff161515610e6a57600080fd5b600a60008360001916600019168152602001908152602001600020549050919050565b600060026000836000191660001916815260200190815260200160002060009054906101000a900460ff161515610ec357600080fd5b600860008360001916600019168152602001908152602001600020549050919050565b6000809054906101000a900473ffffffffffffffffffffffffffffffffffffffff1673ffffffffffffffffffffffffffffffffffffffff163373ffffffffffffffffffffffffffffffffffffffff16141515610f4157600080fd5b600073ffffffffffffffffffffffffffffffffffffffff168173ffffffffffffffffffffffffffffffffffffffff1614151515610f7d57600080fd5b8073ffffffffffffffffffffffffffffffffffffffff166000809054906101000a900473ffffffffffffffffffffffffffffffffffffffff1673ffffffffffffffffffffffffffffffffffffffff167f8be0079c531659141344cd1fd0a4f28419497f9722a3daafe3b4186f6b6457e060405160405180910390a3806000806101000a81548173ffffffffffffffffffffffffffffffffffffffff021916908373ffffffffffffffffffffffffffffffffffffffff16021790555050565b6000809054906101000a900473ffffffffffffffffffffffffffffffffffffffff1673ffffffffffffffffffffffffffffffffffffffff163373ffffffffffffffffffffffffffffffffffffffff1614151561109657600080fd5b60026000836000191660001916815260200190815260200160002060009054906101000a900460ff1615156110ca57600080fd5b8060036000846000191660001916815260200190815260200160002060006101000a8154816fffffffffffffffffffffffffffffffff0219169083700100000000000000000000000000000000900402179055505050565b81548183558181151161114957818360005260206000209182019101611148919061114e565b5b505050565b61117091905b8082111561116c576000816000905550600101611154565b5090565b905600a165627a7a72305820cbcb0ad96a4bb924cf48928124b15a1df64cdaac33d0762f408d2d4e834316a90029",
		"opcodes": "PUSH1 0x60 PUSH1 0x40 MSTORE PUSH1 0x4 CALLDATASIZE LT PUSH2 0x11D JUMPI PUSH1 0x0 CALLDATALOAD PUSH29 0x100000000000000000000000000000000000000000000000000000000 SWAP1 DIV PUSH4 0xFFFFFFFF AND DUP1 PUSH4 0x80461F9 EQ PUSH2 0x122 JUMPI DUP1 PUSH4 0x41731F8B EQ PUSH2 0x152 JUMPI DUP1 PUSH4 0x54B8D5E3 EQ PUSH2 0x182 JUMPI DUP1 PUSH4 0x6453DA9A EQ PUSH2 0x1E3 JUMPI DUP1 PUSH4 0x6B2FAFA9 EQ PUSH2 0x21E JUMPI DUP1 PUSH4 0x6D0AF38E EQ PUSH2 0x25D JUMPI DUP1 PUSH4 0x70C92125 EQ PUSH2 0x28D JUMPI DUP1 PUSH4 0x718DE536 EQ PUSH2 0x2BD JUMPI DUP1 PUSH4 0x79525281 EQ PUSH2 0x2ED JUMPI DUP1 PUSH4 0x7A65EFC9 EQ PUSH2 0x328 JUMPI DUP1 PUSH4 0x82F0B31C EQ PUSH2 0x34F JUMPI DUP1 PUSH4 0x8DA5CB5B EQ PUSH2 0x38A JUMPI DUP1 PUSH4 0x9342CCC2 EQ PUSH2 0x3DF JUMPI DUP1 PUSH4 0x9C8B8588 EQ PUSH2 0x41A JUMPI DUP1 PUSH4 0xC74D8903 EQ PUSH2 0x44A JUMPI DUP1 PUSH4 0xE0D87DC2 EQ PUSH2 0x47A JUMPI DUP1 PUSH4 0xE1BA7D01 EQ PUSH2 0x4B5 JUMPI DUP1 PUSH4 0xE382AF35 EQ PUSH2 0x4DE JUMPI DUP1 PUSH4 0xE75F7871 EQ PUSH2 0x519 JUMPI DUP1 PUSH4 0xF2FDE38B EQ PUSH2 0x554 JUMPI DUP1 PUSH4 0xF776C071 EQ PUSH2 0x58D JUMPI JUMPDEST PUSH1 0x0 DUP1 REVERT JUMPDEST CALLVALUE ISZERO PUSH2 0x12D JUMPI PUSH1 0x0 DUP1 REVERT JUMPDEST PUSH2 0x150 PUSH1 0x4 DUP1 DUP1 CALLDATALOAD PUSH1 0x0 NOT AND SWAP1 PUSH1 0x20 ADD SWAP1 SWAP2 SWAP1 DUP1 CALLDATALOAD SWAP1 PUSH1 0x20 ADD SWAP1 SWAP2 SWAP1 POP POP PUSH2 0x5D0 JUMP JUMPDEST STOP JUMPDEST CALLVALUE ISZERO PUSH2 0x15D JUMPI PUSH1 0x0 DUP1 REVERT JUMPDEST PUSH2 0x180 PUSH1 0x4 DUP1 DUP1 CALLDATALOAD PUSH1 0x0 NOT AND SWAP1 PUSH1 0x20 ADD SWAP1 SWAP2 SWAP1 DUP1 CALLDATALOAD SWAP1 PUSH1 0x20 ADD SWAP1 SWAP2 SWAP1 POP POP PUSH2 0x683 JUMP JUMPDEST STOP JUMPDEST CALLVALUE ISZERO PUSH2 0x18D JUMPI PUSH1 0x0 DUP1 REVERT JUMPDEST PUSH2 0x1A7 PUSH1 0x4 DUP1 DUP1 CALLDATALOAD PUSH1 0x0 NOT AND SWAP1 PUSH1 0x20 ADD SWAP1 SWAP2 SWAP1 POP POP PUSH2 0x736 JUMP JUMPDEST PUSH1 0x40 MLOAD DUP1 DUP3 PUSH16 0xFFFFFFFFFFFFFFFFFFFFFFFFFFFFFFFF NOT AND PUSH16 0xFFFFFFFFFFFFFFFFFFFFFFFFFFFFFFFF NOT AND DUP2 MSTORE PUSH1 0x20 ADD SWAP2 POP POP PUSH1 0x40 MLOAD DUP1 SWAP2 SUB SWAP1 RETURN JUMPDEST CALLVALUE ISZERO PUSH2 0x1EE JUMPI PUSH1 0x0 DUP1 REVERT JUMPDEST PUSH2 0x208 PUSH1 0x4 DUP1 DUP1 CALLDATALOAD PUSH1 0x0 NOT AND SWAP1 PUSH1 0x20 ADD SWAP1 SWAP2 SWAP1 POP POP PUSH2 0x7AC JUMP JUMPDEST PUSH1 0x40 MLOAD DUP1 DUP3 DUP2 MSTORE PUSH1 0x20 ADD SWAP2 POP POP PUSH1 0x40 MLOAD DUP1 SWAP2 SUB SWAP1 RETURN JUMPDEST CALLVALUE ISZERO PUSH2 0x229 JUMPI PUSH1 0x0 DUP1 REVERT JUMPDEST PUSH2 0x23F PUSH1 0x4 DUP1 DUP1 CALLDATALOAD SWAP1 PUSH1 0x20 ADD SWAP1 SWAP2 SWAP1 POP POP PUSH2 0x805 JUMP JUMPDEST PUSH1 0x40 MLOAD DUP1 DUP3 PUSH1 0x0 NOT AND PUSH1 0x0 NOT AND DUP2 MSTORE PUSH1 0x20 ADD SWAP2 POP POP PUSH1 0x40 MLOAD DUP1 SWAP2 SUB SWAP1 RETURN JUMPDEST CALLVALUE ISZERO PUSH2 0x268 JUMPI PUSH1 0x0 DUP1 REVERT JUMPDEST PUSH2 0x28B PUSH1 0x4 DUP1 DUP1 CALLDATALOAD PUSH1 0x0 NOT AND SWAP1 PUSH1 0x20 ADD SWAP1 SWAP2 SWAP1 DUP1 CALLDATALOAD SWAP1 PUSH1 0x20 ADD SWAP1 SWAP2 SWAP1 POP POP PUSH2 0x829 JUMP JUMPDEST STOP JUMPDEST CALLVALUE ISZERO PUSH2 0x298 JUMPI PUSH1 0x0 DUP1 REVERT JUMPDEST PUSH2 0x2BB PUSH1 0x4 DUP1 DUP1 CALLDATALOAD PUSH1 0x0 NOT AND SWAP1 PUSH1 0x20 ADD SWAP1 SWAP2 SWAP1 DUP1 CALLDATALOAD SWAP1 PUSH1 0x20 ADD SWAP1 SWAP2 SWAP1 POP POP PUSH2 0x8DC JUMP JUMPDEST STOP JUMPDEST CALLVALUE ISZERO PUSH2 0x2C8 JUMPI PUSH1 0x0 DUP1 REVERT JUMPDEST PUSH2 0x2EB PUSH1 0x4 DUP1 DUP1 CALLDATALOAD PUSH1 0x0 NOT AND SWAP1 PUSH1 0x20 ADD SWAP1 SWAP2 SWAP1 DUP1 CALLDATALOAD SWAP1 PUSH1 0x20 ADD SWAP1 SWAP2 SWAP1 POP POP PUSH2 0x98F JUMP JUMPDEST STOP JUMPDEST CALLVALUE ISZERO PUSH2 0x2F8 JUMPI PUSH1 0x0 DUP1 REVERT JUMPDEST PUSH2 0x312 PUSH1 0x4 DUP1 DUP1 CALLDATALOAD PUSH1 0x0 NOT AND SWAP1 PUSH1 0x20 ADD SWAP1 SWAP2 SWAP1 POP POP PUSH2 0xA42 JUMP JUMPDEST PUSH1 0x40 MLOAD DUP1 DUP3 DUP2 MSTORE PUSH1 0x20 ADD SWAP2 POP POP PUSH1 0x40 MLOAD DUP1 SWAP2 SUB SWAP1 RETURN JUMPDEST CALLVALUE ISZERO PUSH2 0x333 JUMPI PUSH1 0x0 DUP1 REVERT JUMPDEST PUSH2 0x34D PUSH1 0x4 DUP1 DUP1 CALLDATALOAD PUSH1 0x0 NOT AND SWAP1 PUSH1 0x20 ADD SWAP1 SWAP2 SWAP1 POP POP PUSH2 0xA9B JUMP JUMPDEST STOP JUMPDEST CALLVALUE ISZERO PUSH2 0x35A JUMPI PUSH1 0x0 DUP1 REVERT JUMPDEST PUSH2 0x374 PUSH1 0x4 DUP1 DUP1 CALLDATALOAD PUSH1 0x0 NOT AND SWAP1 PUSH1 0x20 ADD SWAP1 SWAP2 SWAP1 POP POP PUSH2 0xB91 JUMP JUMPDEST PUSH1 0x40 MLOAD DUP1 DUP3 DUP2 MSTORE PUSH1 0x20 ADD SWAP2 POP POP PUSH1 0x40 MLOAD DUP1 SWAP2 SUB SWAP1 RETURN JUMPDEST CALLVALUE ISZERO PUSH2 0x395 JUMPI PUSH1 0x0 DUP1 REVERT JUMPDEST PUSH2 0x39D PUSH2 0xBEA JUMP JUMPDEST PUSH1 0x40 MLOAD DUP1 DUP3 PUSH20 0xFFFFFFFFFFFFFFFFFFFFFFFFFFFFFFFFFFFFFFFF AND PUSH20 0xFFFFFFFFFFFFFFFFFFFFFFFFFFFFFFFFFFFFFFFF AND DUP2 MSTORE PUSH1 0x20 ADD SWAP2 POP POP PUSH1 0x40 MLOAD DUP1 SWAP2 SUB SWAP1 RETURN JUMPDEST CALLVALUE ISZERO PUSH2 0x3EA JUMPI PUSH1 0x0 DUP1 REVERT JUMPDEST PUSH2 0x404 PUSH1 0x4 DUP1 DUP1 CALLDATALOAD PUSH1 0x0 NOT AND SWAP1 PUSH1 0x20 ADD SWAP1 SWAP2 SWAP1 POP POP PUSH2 0xC0F JUMP JUMPDEST PUSH1 0x40 MLOAD DUP1 DUP3 DUP2 MSTORE PUSH1 0x20 ADD SWAP2 POP POP PUSH1 0x40 MLOAD DUP1 SWAP2 SUB SWAP1 RETURN JUMPDEST CALLVALUE ISZERO PUSH2 0x425 JUMPI PUSH1 0x0 DUP1 REVERT JUMPDEST PUSH2 0x448 PUSH1 0x4 DUP1 DUP1 CALLDATALOAD PUSH1 0x0 NOT AND SWAP1 PUSH1 0x20 ADD SWAP1 SWAP2 SWAP1 DUP1 CALLDATALOAD SWAP1 PUSH1 0x20 ADD SWAP1 SWAP2 SWAP1 POP POP PUSH2 0xC68 JUMP JUMPDEST STOP JUMPDEST CALLVALUE ISZERO PUSH2 0x455 JUMPI PUSH1 0x0 DUP1 REVERT JUMPDEST PUSH2 0x478 PUSH1 0x4 DUP1 DUP1 CALLDATALOAD PUSH1 0x0 NOT AND SWAP1 PUSH1 0x20 ADD SWAP1 SWAP2 SWAP1 DUP1 CALLDATALOAD SWAP1 PUSH1 0x20 ADD SWAP1 SWAP2 SWAP1 POP POP PUSH2 0xD1B JUMP JUMPDEST STOP JUMPDEST CALLVALUE ISZERO PUSH2 0x485 JUMPI PUSH1 0x0 DUP1 REVERT JUMPDEST PUSH2 0x49F PUSH1 0x4 DUP1 DUP1 CALLDATALOAD PUSH1 0x0 NOT AND SWAP1 PUSH1 0x20 ADD SWAP1 SWAP2 SWAP1 POP POP PUSH2 0xDCE JUMP JUMPDEST PUSH1 0x40 MLOAD DUP1 DUP3 DUP2 MSTORE PUSH1 0x20 ADD SWAP2 POP POP PUSH1 0x40 MLOAD DUP1 SWAP2 SUB SWAP1 RETURN JUMPDEST CALLVALUE ISZERO PUSH2 0x4C0 JUMPI PUSH1 0x0 DUP1 REVERT JUMPDEST PUSH2 0x4C8 PUSH2 0xE27 JUMP JUMPDEST PUSH1 0x40 MLOAD DUP1 DUP3 DUP2 MSTORE PUSH1 0x20 ADD SWAP2 POP POP PUSH1 0x40 MLOAD DUP1 SWAP2 SUB SWAP1 RETURN JUMPDEST CALLVALUE ISZERO PUSH2 0x4E9 JUMPI PUSH1 0x0 DUP1 REVERT JUMPDEST PUSH2 0x503 PUSH1 0x4 DUP1 DUP1 CALLDATALOAD PUSH1 0x0 NOT AND SWAP1 PUSH1 0x20 ADD SWAP1 SWAP2 SWAP1 POP POP PUSH2 0xE34 JUMP JUMPDEST PUSH1 0x40 MLOAD DUP1 DUP3 DUP2 MSTORE PUSH1 0x20 ADD SWAP2 POP POP PUSH1 0x40 MLOAD DUP1 SWAP2 SUB SWAP1 RETURN JUMPDEST CALLVALUE ISZERO PUSH2 0x524 JUMPI PUSH1 0x0 DUP1 REVERT JUMPDEST PUSH2 0x53E PUSH1 0x4 DUP1 DUP1 CALLDATALOAD PUSH1 0x0 NOT AND SWAP1 PUSH1 0x20 ADD SWAP1 SWAP2 SWAP1 POP POP PUSH2 0xE8D JUMP JUMPDEST PUSH1 0x40 MLOAD DUP1 DUP3 DUP2 MSTORE PUSH1 0x20 ADD SWAP2 POP POP PUSH1 0x40 MLOAD DUP1 SWAP2 SUB SWAP1 RETURN JUMPDEST CALLVALUE ISZERO PUSH2 0x55F JUMPI PUSH1 0x0 DUP1 REVERT JUMPDEST PUSH2 0x58B PUSH1 0x4 DUP1 DUP1 CALLDATALOAD PUSH20 0xFFFFFFFFFFFFFFFFFFFFFFFFFFFFFFFFFFFFFFFF AND SWAP1 PUSH1 0x20 ADD SWAP1 SWAP2 SWAP1 POP POP PUSH2 0xEE6 JUMP JUMPDEST STOP JUMPDEST CALLVALUE ISZERO PUSH2 0x598 JUMPI PUSH1 0x0 DUP1 REVERT JUMPDEST PUSH2 0x5CE PUSH1 0x4 DUP1 DUP1 CALLDATALOAD PUSH1 0x0 NOT AND SWAP1 PUSH1 0x20 ADD SWAP1 SWAP2 SWAP1 DUP1 CALLDATALOAD PUSH16 0xFFFFFFFFFFFFFFFFFFFFFFFFFFFFFFFF NOT AND SWAP1 PUSH1 0x20 ADD SWAP1 SWAP2 SWAP1 POP POP PUSH2 0x103B JUMP JUMPDEST STOP JUMPDEST PUSH1 0x0 DUP1 SWAP1 SLOAD SWAP1 PUSH2 0x100 EXP SWAP1 DIV PUSH20 0xFFFFFFFFFFFFFFFFFFFFFFFFFFFFFFFFFFFFFFFF AND PUSH20 0xFFFFFFFFFFFFFFFFFFFFFFFFFFFFFFFFFFFFFFFF AND CALLER PUSH20 0xFFFFFFFFFFFFFFFFFFFFFFFFFFFFFFFFFFFFFFFF AND EQ ISZERO ISZERO PUSH2 0x62B JUMPI PUSH1 0x0 DUP1 REVERT JUMPDEST PUSH1 0x2 PUSH1 0x0 DUP4 PUSH1 0x0 NOT AND PUSH1 0x0 NOT AND DUP2 MSTORE PUSH1 0x20 ADD SWAP1 DUP2 MSTORE PUSH1 0x20 ADD PUSH1 0x0 KECCAK256 PUSH1 0x0 SWAP1 SLOAD SWAP1 PUSH2 0x100 EXP SWAP1 DIV PUSH1 0xFF AND ISZERO ISZERO PUSH2 0x65F JUMPI PUSH1 0x0 DUP1 REVERT JUMPDEST DUP1 PUSH1 0x5 PUSH1 0x0 DUP5 PUSH1 0x0 NOT AND PUSH1 0x0 NOT AND DUP2 MSTORE PUSH1 0x20 ADD SWAP1 DUP2 MSTORE PUSH1 0x20 ADD PUSH1 0x0 KECCAK256 DUP2 SWAP1 SSTORE POP POP POP JUMP JUMPDEST PUSH1 0x0 DUP1 SWAP1 SLOAD SWAP1 PUSH2 0x100 EXP SWAP1 DIV PUSH20 0xFFFFFFFFFFFFFFFFFFFFFFFFFFFFFFFFFFFFFFFF AND PUSH20 0xFFFFFFFFFFFFFFFFFFFFFFFFFFFFFFFFFFFFFFFF AND CALLER PUSH20 0xFFFFFFFFFFFFFFFFFFFFFFFFFFFFFFFFFFFFFFFF AND EQ ISZERO ISZERO PUSH2 0x6DE JUMPI PUSH1 0x0 DUP1 REVERT JUMPDEST PUSH1 0x2 PUSH1 0x0 DUP4 PUSH1 0x0 NOT AND PUSH1 0x0 NOT AND DUP2 MSTORE PUSH1 0x20 ADD SWAP1 DUP2 MSTORE PUSH1 0x20 ADD PUSH1 0x0 KECCAK256 PUSH1 0x0 SWAP1 SLOAD SWAP1 PUSH2 0x100 EXP SWAP1 DIV PUSH1 0xFF AND ISZERO ISZERO PUSH2 0x712 JUMPI PUSH1 0x0 DUP1 REVERT JUMPDEST DUP1 PUSH1 0x6 PUSH1 0x0 DUP5 PUSH1 0x0 NOT AND PUSH1 0x0 NOT AND DUP2 MSTORE PUSH1 0x20 ADD SWAP1 DUP2 MSTORE PUSH1 0x20 ADD PUSH1 0x0 KECCAK256 DUP2 SWAP1 SSTORE POP POP POP JUMP JUMPDEST PUSH1 0x0 PUSH1 0x2 PUSH1 0x0 DUP4 PUSH1 0x0 NOT AND PUSH1 0x0 NOT AND DUP2 MSTORE PUSH1 0x20 ADD SWAP1 DUP2 MSTORE PUSH1 0x20 ADD PUSH1 0x0 KECCAK256 PUSH1 0x0 SWAP1 SLOAD SWAP1 PUSH2 0x100 EXP SWAP1 DIV PUSH1 0xFF AND ISZERO ISZERO PUSH2 0x76C JUMPI PUSH1 0x0 DUP1 REVERT JUMPDEST PUSH1 0x3 PUSH1 0x0 DUP4 PUSH1 0x0 NOT AND PUSH1 0x0 NOT AND DUP2 MSTORE PUSH1 0x20 ADD SWAP1 DUP2 MSTORE PUSH1 0x20 ADD PUSH1 0x0 KECCAK256 PUSH1 0x0 SWAP1 SLOAD SWAP1 PUSH2 0x100 EXP SWAP1 DIV PUSH17 0x100000000000000000000000000000000 MUL SWAP1 POP SWAP2 SWAP1 POP JUMP JUMPDEST PUSH1 0x0 PUSH1 0x2 PUSH1 0x0 DUP4 PUSH1 0x0 NOT AND PUSH1 0x0 NOT AND DUP2 MSTORE PUSH1 0x20 ADD SWAP1 DUP2 MSTORE PUSH1 0x20 ADD PUSH1 0x0 KECCAK256 PUSH1 0x0 SWAP1 SLOAD SWAP1 PUSH2 0x100 EXP SWAP1 DIV PUSH1 0xFF AND ISZERO ISZERO PUSH2 0x7E2 JUMPI PUSH1 0x0 DUP1 REVERT JUMPDEST PUSH1 0x5 PUSH1 0x0 DUP4 PUSH1 0x0 NOT AND PUSH1 0x0 NOT AND DUP2 MSTORE PUSH1 0x20 ADD SWAP1 DUP2 MSTORE PUSH1 0x20 ADD PUSH1 0x0 KECCAK256 SLOAD SWAP1 POP SWAP2 SWAP1 POP JUMP JUMPDEST PUSH1 0x0 PUSH1 0x1 DUP3 DUP2 SLOAD DUP2 LT ISZERO ISZERO PUSH2 0x816 JUMPI INVALID JUMPDEST SWAP1 PUSH1 0x0 MSTORE PUSH1 0x20 PUSH1 0x0 KECCAK256 SWAP1 ADD SLOAD SWAP1 POP SWAP2 SWAP1 POP JUMP JUMPDEST PUSH1 0x0 DUP1 SWAP1 SLOAD SWAP1 PUSH2 0x100 EXP SWAP1 DIV PUSH20 0xFFFFFFFFFFFFFFFFFFFFFFFFFFFFFFFFFFFFFFFF AND PUSH20 0xFFFFFFFFFFFFFFFFFFFFFFFFFFFFFFFFFFFFFFFF AND CALLER PUSH20 0xFFFFFFFFFFFFFFFFFFFFFFFFFFFFFFFFFFFFFFFF AND EQ ISZERO ISZERO PUSH2 0x884 JUMPI PUSH1 0x0 DUP1 REVERT JUMPDEST PUSH1 0x2 PUSH1 0x0 DUP4 PUSH1 0x0 NOT AND PUSH1 0x0 NOT AND DUP2 MSTORE PUSH1 0x20 ADD SWAP1 DUP2 MSTORE PUSH1 0x20 ADD PUSH1 0x0 KECCAK256 PUSH1 0x0 SWAP1 SLOAD SWAP1 PUSH2 0x100 EXP SWAP1 DIV PUSH1 0xFF AND ISZERO ISZERO PUSH2 0x8B8 JUMPI PUSH1 0x0 DUP1 REVERT JUMPDEST DUP1 PUSH1 0xA PUSH1 0x0 DUP5 PUSH1 0x0 NOT AND PUSH1 0x0 NOT AND DUP2 MSTORE PUSH1 0x20 ADD SWAP1 DUP2 MSTORE PUSH1 0x20 ADD PUSH1 0x0 KECCAK256 DUP2 SWAP1 SSTORE POP POP POP JUMP JUMPDEST PUSH1 0x0 DUP1 SWAP1 SLOAD SWAP1 PUSH2 0x100 EXP SWAP1 DIV PUSH20 0xFFFFFFFFFFFFFFFFFFFFFFFFFFFFFFFFFFFFFFFF AND PUSH20 0xFFFFFFFFFFFFFFFFFFFFFFFFFFFFFFFFFFFFFFFF AND CALLER PUSH20 0xFFFFFFFFFFFFFFFFFFFFFFFFFFFFFFFFFFFFFFFF AND EQ ISZERO ISZERO PUSH2 0x937 JUMPI PUSH1 0x0 DUP1 REVERT JUMPDEST PUSH1 0x2 PUSH1 0x0 DUP4 PUSH1 0x0 NOT AND PUSH1 0x0 NOT AND DUP2 MSTORE PUSH1 0x20 ADD SWAP1 DUP2 MSTORE PUSH1 0x20 ADD PUSH1 0x0 KECCAK256 PUSH1 0x0 SWAP1 SLOAD SWAP1 PUSH2 0x100 EXP SWAP1 DIV PUSH1 0xFF AND ISZERO ISZERO PUSH2 0x96B JUMPI PUSH1 0x0 DUP1 REVERT JUMPDEST DUP1 PUSH1 0x8 PUSH1 0x0 DUP5 PUSH1 0x0 NOT AND PUSH1 0x0 NOT AND DUP2 MSTORE PUSH1 0x20 ADD SWAP1 DUP2 MSTORE PUSH1 0x20 ADD PUSH1 0x0 KECCAK256 DUP2 SWAP1 SSTORE POP POP POP JUMP JUMPDEST PUSH1 0x0 DUP1 SWAP1 SLOAD SWAP1 PUSH2 0x100 EXP SWAP1 DIV PUSH20 0xFFFFFFFFFFFFFFFFFFFFFFFFFFFFFFFFFFFFFFFF AND PUSH20 0xFFFFFFFFFFFFFFFFFFFFFFFFFFFFFFFFFFFFFFFF AND CALLER PUSH20 0xFFFFFFFFFFFFFFFFFFFFFFFFFFFFFFFFFFFFFFFF AND EQ ISZERO ISZERO PUSH2 0x9EA JUMPI PUSH1 0x0 DUP1 REVERT JUMPDEST PUSH1 0x2 PUSH1 0x0 DUP4 PUSH1 0x0 NOT AND PUSH1 0x0 NOT AND DUP2 MSTORE PUSH1 0x20 ADD SWAP1 DUP2 MSTORE PUSH1 0x20 ADD PUSH1 0x0 KECCAK256 PUSH1 0x0 SWAP1 SLOAD SWAP1 PUSH2 0x100 EXP SWAP1 DIV PUSH1 0xFF AND ISZERO ISZERO PUSH2 0xA1E JUMPI PUSH1 0x0 DUP1 REVERT JUMPDEST DUP1 PUSH1 0x7 PUSH1 0x0 DUP5 PUSH1 0x0 NOT AND PUSH1 0x0 NOT AND DUP2 MSTORE PUSH1 0x20 ADD SWAP1 DUP2 MSTORE PUSH1 0x20 ADD PUSH1 0x0 KECCAK256 DUP2 SWAP1 SSTORE POP POP POP JUMP JUMPDEST PUSH1 0x0 PUSH1 0x2 PUSH1 0x0 DUP4 PUSH1 0x0 NOT AND PUSH1 0x0 NOT AND DUP2 MSTORE PUSH1 0x20 ADD SWAP1 DUP2 MSTORE PUSH1 0x20 ADD PUSH1 0x0 KECCAK256 PUSH1 0x0 SWAP1 SLOAD SWAP1 PUSH2 0x100 EXP SWAP1 DIV PUSH1 0xFF AND ISZERO ISZERO PUSH2 0xA78 JUMPI PUSH1 0x0 DUP1 REVERT JUMPDEST PUSH1 0x6 PUSH1 0x0 DUP4 PUSH1 0x0 NOT AND PUSH1 0x0 NOT AND DUP2 MSTORE PUSH1 0x20 ADD SWAP1 DUP2 MSTORE PUSH1 0x20 ADD PUSH1 0x0 KECCAK256 SLOAD SWAP1 POP SWAP2 SWAP1 POP JUMP JUMPDEST PUSH1 0x0 DUP1 SWAP1 SLOAD SWAP1 PUSH2 0x100 EXP SWAP1 DIV PUSH20 0xFFFFFFFFFFFFFFFFFFFFFFFFFFFFFFFFFFFFFFFF AND PUSH20 0xFFFFFFFFFFFFFFFFFFFFFFFFFFFFFFFFFFFFFFFF AND CALLER PUSH20 0xFFFFFFFFFFFFFFFFFFFFFFFFFFFFFFFFFFFFFFFF AND EQ ISZERO ISZERO PUSH2 0xAF6 JUMPI PUSH1 0x0 DUP1 REVERT JUMPDEST PUSH1 0x2 PUSH1 0x0 DUP3 PUSH1 0x0 NOT AND PUSH1 0x0 NOT AND DUP2 MSTORE PUSH1 0x20 ADD SWAP1 DUP2 MSTORE PUSH1 0x20 ADD PUSH1 0x0 KECCAK256 PUSH1 0x0 SWAP1 SLOAD SWAP1 PUSH2 0x100 EXP SWAP1 DIV PUSH1 0xFF AND ISZERO ISZERO ISZERO PUSH2 0xB2B JUMPI PUSH1 0x0 DUP1 REVERT JUMPDEST PUSH1 0x1 DUP1 SLOAD DUP1 PUSH1 0x1 ADD DUP3 DUP2 PUSH2 0xB3F SWAP2 SWAP1 PUSH2 0x1122 JUMP JUMPDEST SWAP2 PUSH1 0x0 MSTORE PUSH1 0x20 PUSH1 0x0 KECCAK256 SWAP1 ADD PUSH1 0x0 DUP4 SWAP1 SWAP2 SWAP1 SWAP2 POP SWAP1 PUSH1 0x0 NOT AND SWAP1 SSTORE POP PUSH1 0x1 PUSH1 0x2 PUSH1 0x0 DUP4 PUSH1 0x0 NOT AND PUSH1 0x0 NOT AND DUP2 MSTORE PUSH1 0x20 ADD SWAP1 DUP2 MSTORE PUSH1 0x20 ADD PUSH1 0x0 KECCAK256 PUSH1 0x0 PUSH2 0x100 EXP DUP2 SLOAD DUP2 PUSH1 0xFF MUL NOT AND SWAP1 DUP4 ISZERO ISZERO MUL OR SWAP1 SSTORE POP POP JUMP JUMPDEST PUSH1 0x0 PUSH1 0x2 PUSH1 0x0 DUP4 PUSH1 0x0 NOT AND PUSH1 0x0 NOT AND DUP2 MSTORE PUSH1 0x20 ADD SWAP1 DUP2 MSTORE PUSH1 0x20 ADD PUSH1 0x0 KECCAK256 PUSH1 0x0 SWAP1 SLOAD SWAP1 PUSH2 0x100 EXP SWAP1 DIV PUSH1 0xFF AND ISZERO ISZERO PUSH2 0xBC7 JUMPI PUSH1 0x0 DUP1 REVERT JUMPDEST PUSH1 0x4 PUSH1 0x0 DUP4 PUSH1 0x0 NOT AND PUSH1 0x0 NOT AND DUP2 MSTORE PUSH1 0x20 ADD SWAP1 DUP2 MSTORE PUSH1 0x20 ADD PUSH1 0x0 KECCAK256 SLOAD SWAP1 POP SWAP2 SWAP1 POP JUMP JUMPDEST PUSH1 0x0 DUP1 SWAP1 SLOAD SWAP1 PUSH2 0x100 EXP SWAP1 DIV PUSH20 0xFFFFFFFFFFFFFFFFFFFFFFFFFFFFFFFFFFFFFFFF AND DUP2 JUMP JUMPDEST PUSH1 0x0 PUSH1 0x2 PUSH1 0x0 DUP4 PUSH1 0x0 NOT AND PUSH1 0x0 NOT AND DUP2 MSTORE PUSH1 0x20 ADD SWAP1 DUP2 MSTORE PUSH1 0x20 ADD PUSH1 0x0 KECCAK256 PUSH1 0x0 SWAP1 SLOAD SWAP1 PUSH2 0x100 EXP SWAP1 DIV PUSH1 0xFF AND ISZERO ISZERO PUSH2 0xC45 JUMPI PUSH1 0x0 DUP1 REVERT JUMPDEST PUSH1 0x7 PUSH1 0x0 DUP4 PUSH1 0x0 NOT AND PUSH1 0x0 NOT AND DUP2 MSTORE PUSH1 0x20 ADD SWAP1 DUP2 MSTORE PUSH1 0x20 ADD PUSH1 0x0 KECCAK256 SLOAD SWAP1 POP SWAP2 SWAP1 POP JUMP JUMPDEST PUSH1 0x0 DUP1 SWAP1 SLOAD SWAP1 PUSH2 0x100 EXP SWAP1 DIV PUSH20 0xFFFFFFFFFFFFFFFFFFFFFFFFFFFFFFFFFFFFFFFF AND PUSH20 0xFFFFFFFFFFFFFFFFFFFFFFFFFFFFFFFFFFFFFFFF AND CALLER PUSH20 0xFFFFFFFFFFFFFFFFFFFFFFFFFFFFFFFFFFFFFFFF AND EQ ISZERO ISZERO PUSH2 0xCC3 JUMPI PUSH1 0x0 DUP1 REVERT JUMPDEST PUSH1 0x2 PUSH1 0x0 DUP4 PUSH1 0x0 NOT AND PUSH1 0x0 NOT AND DUP2 MSTORE PUSH1 0x20 ADD SWAP1 DUP2 MSTORE PUSH1 0x20 ADD PUSH1 0x0 KECCAK256 PUSH1 0x0 SWAP1 SLOAD SWAP1 PUSH2 0x100 EXP SWAP1 DIV PUSH1 0xFF AND ISZERO ISZERO PUSH2 0xCF7 JUMPI PUSH1 0x0 DUP1 REVERT JUMPDEST DUP1 PUSH1 0x9 PUSH1 0x0 DUP5 PUSH1 0x0 NOT AND PUSH1 0x0 NOT AND DUP2 MSTORE PUSH1 0x20 ADD SWAP1 DUP2 MSTORE PUSH1 0x20 ADD PUSH1 0x0 KECCAK256 DUP2 SWAP1 SSTORE POP POP POP JUMP JUMPDEST PUSH1 0x0 DUP1 SWAP1 SLOAD SWAP1 PUSH2 0x100 EXP SWAP1 DIV PUSH20 0xFFFFFFFFFFFFFFFFFFFFFFFFFFFFFFFFFFFFFFFF AND PUSH20 0xFFFFFFFFFFFFFFFFFFFFFFFFFFFFFFFFFFFFFFFF AND CALLER PUSH20 0xFFFFFFFFFFFFFFFFFFFFFFFFFFFFFFFFFFFFFFFF AND EQ ISZERO ISZERO PUSH2 0xD76 JUMPI PUSH1 0x0 DUP1 REVERT JUMPDEST PUSH1 0x2 PUSH1 0x0 DUP4 PUSH1 0x0 NOT AND PUSH1 0x0 NOT AND DUP2 MSTORE PUSH1 0x20 ADD SWAP1 DUP2 MSTORE PUSH1 0x20 ADD PUSH1 0x0 KECCAK256 PUSH1 0x0 SWAP1 SLOAD SWAP1 PUSH2 0x100 EXP SWAP1 DIV PUSH1 0xFF AND ISZERO ISZERO PUSH2 0xDAA JUMPI PUSH1 0x0 DUP1 REVERT JUMPDEST DUP1 PUSH1 0x4 PUSH1 0x0 DUP5 PUSH1 0x0 NOT AND PUSH1 0x0 NOT AND DUP2 MSTORE PUSH1 0x20 ADD SWAP1 DUP2 MSTORE PUSH1 0x20 ADD PUSH1 0x0 KECCAK256 DUP2 SWAP1 SSTORE POP POP POP JUMP JUMPDEST PUSH1 0x0 PUSH1 0x2 PUSH1 0x0 DUP4 PUSH1 0x0 NOT AND PUSH1 0x0 NOT AND DUP2 MSTORE PUSH1 0x20 ADD SWAP1 DUP2 MSTORE PUSH1 0x20 ADD PUSH1 0x0 KECCAK256 PUSH1 0x0 SWAP1 SLOAD SWAP1 PUSH2 0x100 EXP SWAP1 DIV PUSH1 0xFF AND ISZERO ISZERO PUSH2 0xE04 JUMPI PUSH1 0x0 DUP1 REVERT JUMPDEST PUSH1 0x9 PUSH1 0x0 DUP4 PUSH1 0x0 NOT AND PUSH1 0x0 NOT AND DUP2 MSTORE PUSH1 0x20 ADD SWAP1 DUP2 MSTORE PUSH1 0x20 ADD PUSH1 0x0 KECCAK256 SLOAD SWAP1 POP SWAP2 SWAP1 POP JUMP JUMPDEST PUSH1 0x0 PUSH1 0x1 DUP1 SLOAD SWAP1 POP SWAP1 POP SWAP1 JUMP JUMPDEST PUSH1 0x0 PUSH1 0x2 PUSH1 0x0 DUP4 PUSH1 0x0 NOT AND PUSH1 0x0 NOT AND DUP2 MSTORE PUSH1 0x20 ADD SWAP1 DUP2 MSTORE PUSH1 0x20 ADD PUSH1 0x0 KECCAK256 PUSH1 0x0 SWAP1 SLOAD SWAP1 PUSH2 0x100 EXP SWAP1 DIV PUSH1 0xFF AND ISZERO ISZERO PUSH2 0xE6A JUMPI PUSH1 0x0 DUP1 REVERT JUMPDEST PUSH1 0xA PUSH1 0x0 DUP4 PUSH1 0x0 NOT AND PUSH1 0x0 NOT AND DUP2 MSTORE PUSH1 0x20 ADD SWAP1 DUP2 MSTORE PUSH1 0x20 ADD PUSH1 0x0 KECCAK256 SLOAD SWAP1 POP SWAP2 SWAP1 POP JUMP JUMPDEST PUSH1 0x0 PUSH1 0x2 PUSH1 0x0 DUP4 PUSH1 0x0 NOT AND PUSH1 0x0 NOT AND DUP2 MSTORE PUSH1 0x20 ADD SWAP1 DUP2 MSTORE PUSH1 0x20 ADD PUSH1 0x0 KECCAK256 PUSH1 0x0 SWAP1 SLOAD SWAP1 PUSH2 0x100 EXP SWAP1 DIV PUSH1 0xFF AND ISZERO ISZERO PUSH2 0xEC3 JUMPI PUSH1 0x0 DUP1 REVERT JUMPDEST PUSH1 0x8 PUSH1 0x0 DUP4 PUSH1 0x0 NOT AND PUSH1 0x0 NOT AND DUP2 MSTORE PUSH1 0x20 ADD SWAP1 DUP2 MSTORE PUSH1 0x20 ADD PUSH1 0x0 KECCAK256 SLOAD SWAP1 POP SWAP2 SWAP1 POP JUMP JUMPDEST PUSH1 0x0 DUP1 SWAP1 SLOAD SWAP1 PUSH2 0x100 EXP SWAP1 DIV PUSH20 0xFFFFFFFFFFFFFFFFFFFFFFFFFFFFFFFFFFFFFFFF AND PUSH20 0xFFFFFFFFFFFFFFFFFFFFFFFFFFFFFFFFFFFFFFFF AND CALLER PUSH20 0xFFFFFFFFFFFFFFFFFFFFFFFFFFFFFFFFFFFFFFFF AND EQ ISZERO ISZERO PUSH2 0xF41 JUMPI PUSH1 0x0 DUP1 REVERT JUMPDEST PUSH1 0x0 PUSH20 0xFFFFFFFFFFFFFFFFFFFFFFFFFFFFFFFFFFFFFFFF AND DUP2 PUSH20 0xFFFFFFFFFFFFFFFFFFFFFFFFFFFFFFFFFFFFFFFF AND EQ ISZERO ISZERO ISZERO PUSH2 0xF7D JUMPI PUSH1 0x0 DUP1 REVERT JUMPDEST DUP1 PUSH20 0xFFFFFFFFFFFFFFFFFFFFFFFFFFFFFFFFFFFFFFFF AND PUSH1 0x0 DUP1 SWAP1 SLOAD SWAP1 PUSH2 0x100 EXP SWAP1 DIV PUSH20 0xFFFFFFFFFFFFFFFFFFFFFFFFFFFFFFFFFFFFFFFF AND PUSH20 0xFFFFFFFFFFFFFFFFFFFFFFFFFFFFFFFFFFFFFFFF AND PUSH32 0x8BE0079C531659141344CD1FD0A4F28419497F9722A3DAAFE3B4186F6B6457E0 PUSH1 0x40 MLOAD PUSH1 0x40 MLOAD DUP1 SWAP2 SUB SWAP1 LOG3 DUP1 PUSH1 0x0 DUP1 PUSH2 0x100 EXP DUP2 SLOAD DUP2 PUSH20 0xFFFFFFFFFFFFFFFFFFFFFFFFFFFFFFFFFFFFFFFF MUL NOT AND SWAP1 DUP4 PUSH20 0xFFFFFFFFFFFFFFFFFFFFFFFFFFFFFFFFFFFFFFFF AND MUL OR SWAP1 SSTORE POP POP JUMP JUMPDEST PUSH1 0x0 DUP1 SWAP1 SLOAD SWAP1 PUSH2 0x100 EXP SWAP1 DIV PUSH20 0xFFFFFFFFFFFFFFFFFFFFFFFFFFFFFFFFFFFFFFFF AND PUSH20 0xFFFFFFFFFFFFFFFFFFFFFFFFFFFFFFFFFFFFFFFF AND CALLER PUSH20 0xFFFFFFFFFFFFFFFFFFFFFFFFFFFFFFFFFFFFFFFF AND EQ ISZERO ISZERO PUSH2 0x1096 JUMPI PUSH1 0x0 DUP1 REVERT JUMPDEST PUSH1 0x2 PUSH1 0x0 DUP4 PUSH1 0x0 NOT AND PUSH1 0x0 NOT AND DUP2 MSTORE PUSH1 0x20 ADD SWAP1 DUP2 MSTORE PUSH1 0x20 ADD PUSH1 0x0 KECCAK256 PUSH1 0x0 SWAP1 SLOAD SWAP1 PUSH2 0x100 EXP SWAP1 DIV PUSH1 0xFF AND ISZERO ISZERO PUSH2 0x10CA JUMPI PUSH1 0x0 DUP1 REVERT JUMPDEST DUP1 PUSH1 0x3 PUSH1 0x0 DUP5 PUSH1 0x0 NOT AND PUSH1 0x0 NOT AND DUP2 MSTORE PUSH1 0x20 ADD SWAP1 DUP2 MSTORE PUSH1 0x20 ADD PUSH1 0x0 KECCAK256 PUSH1 0x0 PUSH2 0x100 EXP DUP2 SLOAD DUP2 PUSH16 0xFFFFFFFFFFFFFFFFFFFFFFFFFFFFFFFF MUL NOT AND SWAP1 DUP4 PUSH17 0x100000000000000000000000000000000 SWAP1 DIV MUL OR SWAP1 SSTORE POP POP POP JUMP JUMPDEST DUP2 SLOAD DUP2 DUP4 SSTORE DUP2 DUP2 ISZERO GT PUSH2 0x1149 JUMPI DUP2 DUP4 PUSH1 0x0 MSTORE PUSH1 0x20 PUSH1 0x0 KECCAK256 SWAP2 DUP3 ADD SWAP2 ADD PUSH2 0x1148 SWAP2 SWAP1 PUSH2 0x114E JUMP JUMPDEST JUMPDEST POP POP POP JUMP JUMPDEST PUSH2 0x1170 SWAP2 SWAP1 JUMPDEST DUP1 DUP3 GT ISZERO PUSH2 0x116C JUMPI PUSH1 0x0 DUP2 PUSH1 0x0 SWAP1 SSTORE POP PUSH1 0x1 ADD PUSH2 0x1154 JUMP JUMPDEST POP SWAP1 JUMP JUMPDEST SWAP1 JUMP STOP LOG1 PUSH6 0x627A7A723058 KECCAK256 0xcb 0xcb EXP 0xd9 PUSH11 0x4BB924CF48928124B15A1D 0xf6 0x4c 0xda 0xac CALLER 0xd0 PUSH23 0x2F408D2D4E834316A90029000000000000000000000000 "
	},
	"Assembly": ".code\n  PUSH 60\t\t\tcontract TroupStorage {\\r\\n   ...\n  PUSH 40\t\t\tcontract TroupStorage {\\r\\n   ...\n  MSTORE \t\t\tcontract TroupStorage {\\r\\n   ...\n  CALLVALUE \t\t\tfunction TroupStorage() public...\n  ISZERO \t\t\tfunction TroupStorage() public...\n  PUSH [tag] 1\t\t\tfunction TroupStorage() public...\n  JUMPI \t\t\tfunction TroupStorage() public...\n  PUSH 0\t\t\tfunction TroupStorage() public...\n  DUP1 \t\t\tfunction TroupStorage() public...\n  REVERT \t\t\tfunction TroupStorage() public...\ntag 1\t\t\tfunction TroupStorage() public...\n  JUMPDEST \t\t\tfunction TroupStorage() public...\n  CALLER \t\t\tmsg.sender\n  PUSH 0\t\t\towner\n  DUP1 \t\t\towner\n  PUSH 100\t\t\towner = msg.sender\n  EXP \t\t\towner = msg.sender\n  DUP2 \t\t\towner = msg.sender\n  SLOAD \t\t\towner = msg.sender\n  DUP2 \t\t\towner = msg.sender\n  PUSH FFFFFFFFFFFFFFFFFFFFFFFFFFFFFFFFFFFFFFFF\t\t\towner = msg.sender\n  MUL \t\t\towner = msg.sender\n  NOT \t\t\towner = msg.sender\n  AND \t\t\towner = msg.sender\n  SWAP1 \t\t\towner = msg.sender\n  DUP4 \t\t\towner = msg.sender\n  PUSH FFFFFFFFFFFFFFFFFFFFFFFFFFFFFFFFFFFFFFFF\t\t\towner = msg.sender\n  AND \t\t\towner = msg.sender\n  MUL \t\t\towner = msg.sender\n  OR \t\t\towner = msg.sender\n  SWAP1 \t\t\towner = msg.sender\n  SSTORE \t\t\towner = msg.sender\n  POP \t\t\towner = msg.sender\n  PUSH #[$] 0000000000000000000000000000000000000000000000000000000000000000\t\t\tcontract TroupStorage {\\r\\n   ...\n  DUP1 \t\t\tcontract TroupStorage {\\r\\n   ...\n  PUSH [$] 0000000000000000000000000000000000000000000000000000000000000000\t\t\tcontract TroupStorage {\\r\\n   ...\n  PUSH 0\t\t\tcontract TroupStorage {\\r\\n   ...\n  CODECOPY \t\t\tcontract TroupStorage {\\r\\n   ...\n  PUSH 0\t\t\tcontract TroupStorage {\\r\\n   ...\n  RETURN \t\t\tcontract TroupStorage {\\r\\n   ...\n.data\n  0:\n    .code\n      PUSH 60\t\t\tcontract TroupStorage {\\r\\n   ...\n      PUSH 40\t\t\tcontract TroupStorage {\\r\\n   ...\n      MSTORE \t\t\tcontract TroupStorage {\\r\\n   ...\n      PUSH 4\t\t\tcontract TroupStorage {\\r\\n   ...\n      CALLDATASIZE \t\t\tcontract TroupStorage {\\r\\n   ...\n      LT \t\t\tcontract TroupStorage {\\r\\n   ...\n      PUSH [tag] 1\t\t\tcontract TroupStorage {\\r\\n   ...\n      JUMPI \t\t\tcontract TroupStorage {\\r\\n   ...\n      PUSH 0\t\t\tcontract TroupStorage {\\r\\n   ...\n      CALLDATALOAD \t\t\tcontract TroupStorage {\\r\\n   ...\n      PUSH 100000000000000000000000000000000000000000000000000000000\t\t\tcontract TroupStorage {\\r\\n   ...\n      SWAP1 \t\t\tcontract TroupStorage {\\r\\n   ...\n      DIV \t\t\tcontract TroupStorage {\\r\\n   ...\n      PUSH FFFFFFFF\t\t\tcontract TroupStorage {\\r\\n   ...\n      AND \t\t\tcontract TroupStorage {\\r\\n   ...\n      DUP1 \t\t\tcontract TroupStorage {\\r\\n   ...\n      PUSH 80461F9\t\t\tcontract TroupStorage {\\r\\n   ...\n      EQ \t\t\tcontract TroupStorage {\\r\\n   ...\n      PUSH [tag] 2\t\t\tcontract TroupStorage {\\r\\n   ...\n      JUMPI \t\t\tcontract TroupStorage {\\r\\n   ...\n      DUP1 \t\t\tcontract TroupStorage {\\r\\n   ...\n      PUSH 41731F8B\t\t\tcontract TroupStorage {\\r\\n   ...\n      EQ \t\t\tcontract TroupStorage {\\r\\n   ...\n      PUSH [tag] 3\t\t\tcontract TroupStorage {\\r\\n   ...\n      JUMPI \t\t\tcontract TroupStorage {\\r\\n   ...\n      DUP1 \t\t\tcontract TroupStorage {\\r\\n   ...\n      PUSH 54B8D5E3\t\t\tcontract TroupStorage {\\r\\n   ...\n      EQ \t\t\tcontract TroupStorage {\\r\\n   ...\n      PUSH [tag] 4\t\t\tcontract TroupStorage {\\r\\n   ...\n      JUMPI \t\t\tcontract TroupStorage {\\r\\n   ...\n      DUP1 \t\t\tcontract TroupStorage {\\r\\n   ...\n      PUSH 6453DA9A\t\t\tcontract TroupStorage {\\r\\n   ...\n      EQ \t\t\tcontract TroupStorage {\\r\\n   ...\n      PUSH [tag] 5\t\t\tcontract TroupStorage {\\r\\n   ...\n      JUMPI \t\t\tcontract TroupStorage {\\r\\n   ...\n      DUP1 \t\t\tcontract TroupStorage {\\r\\n   ...\n      PUSH 6B2FAFA9\t\t\tcontract TroupStorage {\\r\\n   ...\n      EQ \t\t\tcontract TroupStorage {\\r\\n   ...\n      PUSH [tag] 6\t\t\tcontract TroupStorage {\\r\\n   ...\n      JUMPI \t\t\tcontract TroupStorage {\\r\\n   ...\n      DUP1 \t\t\tcontract TroupStorage {\\r\\n   ...\n      PUSH 6D0AF38E\t\t\tcontract TroupStorage {\\r\\n   ...\n      EQ \t\t\tcontract TroupStorage {\\r\\n   ...\n      PUSH [tag] 7\t\t\tcontract TroupStorage {\\r\\n   ...\n      JUMPI \t\t\tcontract TroupStorage {\\r\\n   ...\n      DUP1 \t\t\tcontract TroupStorage {\\r\\n   ...\n      PUSH 70C92125\t\t\tcontract TroupStorage {\\r\\n   ...\n      EQ \t\t\tcontract TroupStorage {\\r\\n   ...\n      PUSH [tag] 8\t\t\tcontract TroupStorage {\\r\\n   ...\n      JUMPI \t\t\tcontract TroupStorage {\\r\\n   ...\n      DUP1 \t\t\tcontract TroupStorage {\\r\\n   ...\n      PUSH 718DE536\t\t\tcontract TroupStorage {\\r\\n   ...\n      EQ \t\t\tcontract TroupStorage {\\r\\n   ...\n      PUSH [tag] 9\t\t\tcontract TroupStorage {\\r\\n   ...\n      JUMPI \t\t\tcontract TroupStorage {\\r\\n   ...\n      DUP1 \t\t\tcontract TroupStorage {\\r\\n   ...\n      PUSH 79525281\t\t\tcontract TroupStorage {\\r\\n   ...\n      EQ \t\t\tcontract TroupStorage {\\r\\n   ...\n      PUSH [tag] 10\t\t\tcontract TroupStorage {\\r\\n   ...\n      JUMPI \t\t\tcontract TroupStorage {\\r\\n   ...\n      DUP1 \t\t\tcontract TroupStorage {\\r\\n   ...\n      PUSH 7A65EFC9\t\t\tcontract TroupStorage {\\r\\n   ...\n      EQ \t\t\tcontract TroupStorage {\\r\\n   ...\n      PUSH [tag] 11\t\t\tcontract TroupStorage {\\r\\n   ...\n      JUMPI \t\t\tcontract TroupStorage {\\r\\n   ...\n      DUP1 \t\t\tcontract TroupStorage {\\r\\n   ...\n      PUSH 82F0B31C\t\t\tcontract TroupStorage {\\r\\n   ...\n      EQ \t\t\tcontract TroupStorage {\\r\\n   ...\n      PUSH [tag] 12\t\t\tcontract TroupStorage {\\r\\n   ...\n      JUMPI \t\t\tcontract TroupStorage {\\r\\n   ...\n      DUP1 \t\t\tcontract TroupStorage {\\r\\n   ...\n      PUSH 8DA5CB5B\t\t\tcontract TroupStorage {\\r\\n   ...\n      EQ \t\t\tcontract TroupStorage {\\r\\n   ...\n      PUSH [tag] 13\t\t\tcontract TroupStorage {\\r\\n   ...\n      JUMPI \t\t\tcontract TroupStorage {\\r\\n   ...\n      DUP1 \t\t\tcontract TroupStorage {\\r\\n   ...\n      PUSH 9342CCC2\t\t\tcontract TroupStorage {\\r\\n   ...\n      EQ \t\t\tcontract TroupStorage {\\r\\n   ...\n      PUSH [tag] 14\t\t\tcontract TroupStorage {\\r\\n   ...\n      JUMPI \t\t\tcontract TroupStorage {\\r\\n   ...\n      DUP1 \t\t\tcontract TroupStorage {\\r\\n   ...\n      PUSH 9C8B8588\t\t\tcontract TroupStorage {\\r\\n   ...\n      EQ \t\t\tcontract TroupStorage {\\r\\n   ...\n      PUSH [tag] 15\t\t\tcontract TroupStorage {\\r\\n   ...\n      JUMPI \t\t\tcontract TroupStorage {\\r\\n   ...\n      DUP1 \t\t\tcontract TroupStorage {\\r\\n   ...\n      PUSH C74D8903\t\t\tcontract TroupStorage {\\r\\n   ...\n      EQ \t\t\tcontract TroupStorage {\\r\\n   ...\n      PUSH [tag] 16\t\t\tcontract TroupStorage {\\r\\n   ...\n      JUMPI \t\t\tcontract TroupStorage {\\r\\n   ...\n      DUP1 \t\t\tcontract TroupStorage {\\r\\n   ...\n      PUSH E0D87DC2\t\t\tcontract TroupStorage {\\r\\n   ...\n      EQ \t\t\tcontract TroupStorage {\\r\\n   ...\n      PUSH [tag] 17\t\t\tcontract TroupStorage {\\r\\n   ...\n      JUMPI \t\t\tcontract TroupStorage {\\r\\n   ...\n      DUP1 \t\t\tcontract TroupStorage {\\r\\n   ...\n      PUSH E1BA7D01\t\t\tcontract TroupStorage {\\r\\n   ...\n      EQ \t\t\tcontract TroupStorage {\\r\\n   ...\n      PUSH [tag] 18\t\t\tcontract TroupStorage {\\r\\n   ...\n      JUMPI \t\t\tcontract TroupStorage {\\r\\n   ...\n      DUP1 \t\t\tcontract TroupStorage {\\r\\n   ...\n      PUSH E382AF35\t\t\tcontract TroupStorage {\\r\\n   ...\n      EQ \t\t\tcontract TroupStorage {\\r\\n   ...\n      PUSH [tag] 19\t\t\tcontract TroupStorage {\\r\\n   ...\n      JUMPI \t\t\tcontract TroupStorage {\\r\\n   ...\n      DUP1 \t\t\tcontract TroupStorage {\\r\\n   ...\n      PUSH E75F7871\t\t\tcontract TroupStorage {\\r\\n   ...\n      EQ \t\t\tcontract TroupStorage {\\r\\n   ...\n      PUSH [tag] 20\t\t\tcontract TroupStorage {\\r\\n   ...\n      JUMPI \t\t\tcontract TroupStorage {\\r\\n   ...\n      DUP1 \t\t\tcontract TroupStorage {\\r\\n   ...\n      PUSH F2FDE38B\t\t\tcontract TroupStorage {\\r\\n   ...\n      EQ \t\t\tcontract TroupStorage {\\r\\n   ...\n      PUSH [tag] 21\t\t\tcontract TroupStorage {\\r\\n   ...\n      JUMPI \t\t\tcontract TroupStorage {\\r\\n   ...\n      DUP1 \t\t\tcontract TroupStorage {\\r\\n   ...\n      PUSH F776C071\t\t\tcontract TroupStorage {\\r\\n   ...\n      EQ \t\t\tcontract TroupStorage {\\r\\n   ...\n      PUSH [tag] 22\t\t\tcontract TroupStorage {\\r\\n   ...\n      JUMPI \t\t\tcontract TroupStorage {\\r\\n   ...\n    tag 1\t\t\tcontract TroupStorage {\\r\\n   ...\n      JUMPDEST \t\t\tcontract TroupStorage {\\r\\n   ...\n      PUSH 0\t\t\trevert()\n      DUP1 \t\t\trevert()\n      REVERT \t\t\trevert()\n    tag 2\t\t\tfunction setStrength(bytes32 _...\n      JUMPDEST \t\t\tfunction setStrength(bytes32 _...\n      CALLVALUE \t\t\tfunction setStrength(bytes32 _...\n      ISZERO \t\t\tfunction setStrength(bytes32 _...\n      PUSH [tag] 25\t\t\tfunction setStrength(bytes32 _...\n      JUMPI \t\t\tfunction setStrength(bytes32 _...\n      PUSH 0\t\t\tfunction setStrength(bytes32 _...\n      DUP1 \t\t\tfunction setStrength(bytes32 _...\n      REVERT \t\t\tfunction setStrength(bytes32 _...\n    tag 25\t\t\tfunction setStrength(bytes32 _...\n      JUMPDEST \t\t\tfunction setStrength(bytes32 _...\n      PUSH [tag] 26\t\t\tfunction setStrength(bytes32 _...\n      PUSH 4\t\t\tfunction setStrength(bytes32 _...\n      DUP1 \t\t\tfunction setStrength(bytes32 _...\n      DUP1 \t\t\tfunction setStrength(bytes32 _...\n      CALLDATALOAD \t\t\tfunction setStrength(bytes32 _...\n      PUSH 0\t\t\tfunction setStrength(bytes32 _...\n      NOT \t\t\tfunction setStrength(bytes32 _...\n      AND \t\t\tfunction setStrength(bytes32 _...\n      SWAP1 \t\t\tfunction setStrength(bytes32 _...\n      PUSH 20\t\t\tfunction setStrength(bytes32 _...\n      ADD \t\t\tfunction setStrength(bytes32 _...\n      SWAP1 \t\t\tfunction setStrength(bytes32 _...\n      SWAP2 \t\t\tfunction setStrength(bytes32 _...\n      SWAP1 \t\t\tfunction setStrength(bytes32 _...\n      DUP1 \t\t\tfunction setStrength(bytes32 _...\n      CALLDATALOAD \t\t\tfunction setStrength(bytes32 _...\n      SWAP1 \t\t\tfunction setStrength(bytes32 _...\n      PUSH 20\t\t\tfunction setStrength(bytes32 _...\n      ADD \t\t\tfunction setStrength(bytes32 _...\n      SWAP1 \t\t\tfunction setStrength(bytes32 _...\n      SWAP2 \t\t\tfunction setStrength(bytes32 _...\n      SWAP1 \t\t\tfunction setStrength(bytes32 _...\n      POP \t\t\tfunction setStrength(bytes32 _...\n      POP \t\t\tfunction setStrength(bytes32 _...\n      PUSH [tag] 27\t\t\tfunction setStrength(bytes32 _...\n      JUMP \t\t\tfunction setStrength(bytes32 _...\n    tag 26\t\t\tfunction setStrength(bytes32 _...\n      JUMPDEST \t\t\tfunction setStrength(bytes32 _...\n      STOP \t\t\tfunction setStrength(bytes32 _...\n    tag 3\t\t\tfunction setIntelligence(bytes...\n      JUMPDEST \t\t\tfunction setIntelligence(bytes...\n      CALLVALUE \t\t\tfunction setIntelligence(bytes...\n      ISZERO \t\t\tfunction setIntelligence(bytes...\n      PUSH [tag] 28\t\t\tfunction setIntelligence(bytes...\n      JUMPI \t\t\tfunction setIntelligence(bytes...\n      PUSH 0\t\t\tfunction setIntelligence(bytes...\n      DUP1 \t\t\tfunction setIntelligence(bytes...\n      REVERT \t\t\tfunction setIntelligence(bytes...\n    tag 28\t\t\tfunction setIntelligence(bytes...\n      JUMPDEST \t\t\tfunction setIntelligence(bytes...\n      PUSH [tag] 29\t\t\tfunction setIntelligence(bytes...\n      PUSH 4\t\t\tfunction setIntelligence(bytes...\n      DUP1 \t\t\tfunction setIntelligence(bytes...\n      DUP1 \t\t\tfunction setIntelligence(bytes...\n      CALLDATALOAD \t\t\tfunction setIntelligence(bytes...\n      PUSH 0\t\t\tfunction setIntelligence(bytes...\n      NOT \t\t\tfunction setIntelligence(bytes...\n      AND \t\t\tfunction setIntelligence(bytes...\n      SWAP1 \t\t\tfunction setIntelligence(bytes...\n      PUSH 20\t\t\tfunction setIntelligence(bytes...\n      ADD \t\t\tfunction setIntelligence(bytes...\n      SWAP1 \t\t\tfunction setIntelligence(bytes...\n      SWAP2 \t\t\tfunction setIntelligence(bytes...\n      SWAP1 \t\t\tfunction setIntelligence(bytes...\n      DUP1 \t\t\tfunction setIntelligence(bytes...\n      CALLDATALOAD \t\t\tfunction setIntelligence(bytes...\n      SWAP1 \t\t\tfunction setIntelligence(bytes...\n      PUSH 20\t\t\tfunction setIntelligence(bytes...\n      ADD \t\t\tfunction setIntelligence(bytes...\n      SWAP1 \t\t\tfunction setIntelligence(bytes...\n      SWAP2 \t\t\tfunction setIntelligence(bytes...\n      SWAP1 \t\t\tfunction setIntelligence(bytes...\n      POP \t\t\tfunction setIntelligence(bytes...\n      POP \t\t\tfunction setIntelligence(bytes...\n      PUSH [tag] 30\t\t\tfunction setIntelligence(bytes...\n      JUMP \t\t\tfunction setIntelligence(bytes...\n    tag 29\t\t\tfunction setIntelligence(bytes...\n      JUMPDEST \t\t\tfunction setIntelligence(bytes...\n      STOP \t\t\tfunction setIntelligence(bytes...\n    tag 4\t\t\tfunction getName(bytes32 _trou...\n      JUMPDEST \t\t\tfunction getName(bytes32 _trou...\n      CALLVALUE \t\t\tfunction getName(bytes32 _trou...\n      ISZERO \t\t\tfunction getName(bytes32 _trou...\n      PUSH [tag] 31\t\t\tfunction getName(bytes32 _trou...\n      JUMPI \t\t\tfunction getName(bytes32 _trou...\n      PUSH 0\t\t\tfunction getName(bytes32 _trou...\n      DUP1 \t\t\tfunction getName(bytes32 _trou...\n      REVERT \t\t\tfunction getName(bytes32 _trou...\n    tag 31\t\t\tfunction getName(bytes32 _trou...\n      JUMPDEST \t\t\tfunction getName(bytes32 _trou...\n      PUSH [tag] 32\t\t\tfunction getName(bytes32 _trou...\n      PUSH 4\t\t\tfunction getName(bytes32 _trou...\n      DUP1 \t\t\tfunction getName(bytes32 _trou...\n      DUP1 \t\t\tfunction getName(bytes32 _trou...\n      CALLDATALOAD \t\t\tfunction getName(bytes32 _trou...\n      PUSH 0\t\t\tfunction getName(bytes32 _trou...\n      NOT \t\t\tfunction getName(bytes32 _trou...\n      AND \t\t\tfunction getName(bytes32 _trou...\n      SWAP1 \t\t\tfunction getName(bytes32 _trou...\n      PUSH 20\t\t\tfunction getName(bytes32 _trou...\n      ADD \t\t\tfunction getName(bytes32 _trou...\n      SWAP1 \t\t\tfunction getName(bytes32 _trou...\n      SWAP2 \t\t\tfunction getName(bytes32 _trou...\n      SWAP1 \t\t\tfunction getName(bytes32 _trou...\n      POP \t\t\tfunction getName(bytes32 _trou...\n      POP \t\t\tfunction getName(bytes32 _trou...\n      PUSH [tag] 33\t\t\tfunction getName(bytes32 _trou...\n      JUMP \t\t\tfunction getName(bytes32 _trou...\n    tag 32\t\t\tfunction getName(bytes32 _trou...\n      JUMPDEST \t\t\tfunction getName(bytes32 _trou...\n      PUSH 40\t\t\tfunction getName(bytes32 _trou...\n      MLOAD \t\t\tfunction getName(bytes32 _trou...\n      DUP1 \t\t\tfunction getName(bytes32 _trou...\n      DUP3 \t\t\tfunction getName(bytes32 _trou...\n      PUSH FFFFFFFFFFFFFFFFFFFFFFFFFFFFFFFF\t\t\tfunction getName(bytes32 _trou...\n      NOT \t\t\tfunction getName(bytes32 _trou...\n      AND \t\t\tfunction getName(bytes32 _trou...\n      PUSH FFFFFFFFFFFFFFFFFFFFFFFFFFFFFFFF\t\t\tfunction getName(bytes32 _trou...\n      NOT \t\t\tfunction getName(bytes32 _trou...\n      AND \t\t\tfunction getName(bytes32 _trou...\n      DUP2 \t\t\tfunction getName(bytes32 _trou...\n      MSTORE \t\t\tfunction getName(bytes32 _trou...\n      PUSH 20\t\t\tfunction getName(bytes32 _trou...\n      ADD \t\t\tfunction getName(bytes32 _trou...\n      SWAP2 \t\t\tfunction getName(bytes32 _trou...\n      POP \t\t\tfunction getName(bytes32 _trou...\n      POP \t\t\tfunction getName(bytes32 _trou...\n      PUSH 40\t\t\tfunction getName(bytes32 _trou...\n      MLOAD \t\t\tfunction getName(bytes32 _trou...\n      DUP1 \t\t\tfunction getName(bytes32 _trou...\n      SWAP2 \t\t\tfunction getName(bytes32 _trou...\n      SUB \t\t\tfunction getName(bytes32 _trou...\n      SWAP1 \t\t\tfunction getName(bytes32 _trou...\n      RETURN \t\t\tfunction getName(bytes32 _trou...\n    tag 5\t\t\tfunction getStrength(bytes32 _...\n      JUMPDEST \t\t\tfunction getStrength(bytes32 _...\n      CALLVALUE \t\t\tfunction getStrength(bytes32 _...\n      ISZERO \t\t\tfunction getStrength(bytes32 _...\n      PUSH [tag] 34\t\t\tfunction getStrength(bytes32 _...\n      JUMPI \t\t\tfunction getStrength(bytes32 _...\n      PUSH 0\t\t\tfunction getStrength(bytes32 _...\n      DUP1 \t\t\tfunction getStrength(bytes32 _...\n      REVERT \t\t\tfunction getStrength(bytes32 _...\n    tag 34\t\t\tfunction getStrength(bytes32 _...\n      JUMPDEST \t\t\tfunction getStrength(bytes32 _...\n      PUSH [tag] 35\t\t\tfunction getStrength(bytes32 _...\n      PUSH 4\t\t\tfunction getStrength(bytes32 _...\n      DUP1 \t\t\tfunction getStrength(bytes32 _...\n      DUP1 \t\t\tfunction getStrength(bytes32 _...\n      CALLDATALOAD \t\t\tfunction getStrength(bytes32 _...\n      PUSH 0\t\t\tfunction getStrength(bytes32 _...\n      NOT \t\t\tfunction getStrength(bytes32 _...\n      AND \t\t\tfunction getStrength(bytes32 _...\n      SWAP1 \t\t\tfunction getStrength(bytes32 _...\n      PUSH 20\t\t\tfunction getStrength(bytes32 _...\n      ADD \t\t\tfunction getStrength(bytes32 _...\n      SWAP1 \t\t\tfunction getStrength(bytes32 _...\n      SWAP2 \t\t\tfunction getStrength(bytes32 _...\n      SWAP1 \t\t\tfunction getStrength(bytes32 _...\n      POP \t\t\tfunction getStrength(bytes32 _...\n      POP \t\t\tfunction getStrength(bytes32 _...\n      PUSH [tag] 36\t\t\tfunction getStrength(bytes32 _...\n      JUMP \t\t\tfunction getStrength(bytes32 _...\n    tag 35\t\t\tfunction getStrength(bytes32 _...\n      JUMPDEST \t\t\tfunction getStrength(bytes32 _...\n      PUSH 40\t\t\tfunction getStrength(bytes32 _...\n      MLOAD \t\t\tfunction getStrength(bytes32 _...\n      DUP1 \t\t\tfunction getStrength(bytes32 _...\n      DUP3 \t\t\tfunction getStrength(bytes32 _...\n      DUP2 \t\t\tfunction getStrength(bytes32 _...\n      MSTORE \t\t\tfunction getStrength(bytes32 _...\n      PUSH 20\t\t\tfunction getStrength(bytes32 _...\n      ADD \t\t\tfunction getStrength(bytes32 _...\n      SWAP2 \t\t\tfunction getStrength(bytes32 _...\n      POP \t\t\tfunction getStrength(bytes32 _...\n      POP \t\t\tfunction getStrength(bytes32 _...\n      PUSH 40\t\t\tfunction getStrength(bytes32 _...\n      MLOAD \t\t\tfunction getStrength(bytes32 _...\n      DUP1 \t\t\tfunction getStrength(bytes32 _...\n      SWAP2 \t\t\tfunction getStrength(bytes32 _...\n      SUB \t\t\tfunction getStrength(bytes32 _...\n      SWAP1 \t\t\tfunction getStrength(bytes32 _...\n      RETURN \t\t\tfunction getStrength(bytes32 _...\n    tag 6\t\t\tfunction getHash(uint256 _nonc...\n      JUMPDEST \t\t\tfunction getHash(uint256 _nonc...\n      CALLVALUE \t\t\tfunction getHash(uint256 _nonc...\n      ISZERO \t\t\tfunction getHash(uint256 _nonc...\n      PUSH [tag] 37\t\t\tfunction getHash(uint256 _nonc...\n      JUMPI \t\t\tfunction getHash(uint256 _nonc...\n      PUSH 0\t\t\tfunction getHash(uint256 _nonc...\n      DUP1 \t\t\tfunction getHash(uint256 _nonc...\n      REVERT \t\t\tfunction getHash(uint256 _nonc...\n    tag 37\t\t\tfunction getHash(uint256 _nonc...\n      JUMPDEST \t\t\tfunction getHash(uint256 _nonc...\n      PUSH [tag] 38\t\t\tfunction getHash(uint256 _nonc...\n      PUSH 4\t\t\tfunction getHash(uint256 _nonc...\n      DUP1 \t\t\tfunction getHash(uint256 _nonc...\n      DUP1 \t\t\tfunction getHash(uint256 _nonc...\n      CALLDATALOAD \t\t\tfunction getHash(uint256 _nonc...\n      SWAP1 \t\t\tfunction getHash(uint256 _nonc...\n      PUSH 20\t\t\tfunction getHash(uint256 _nonc...\n      ADD \t\t\tfunction getHash(uint256 _nonc...\n      SWAP1 \t\t\tfunction getHash(uint256 _nonc...\n      SWAP2 \t\t\tfunction getHash(uint256 _nonc...\n      SWAP1 \t\t\tfunction getHash(uint256 _nonc...\n      POP \t\t\tfunction getHash(uint256 _nonc...\n      POP \t\t\tfunction getHash(uint256 _nonc...\n      PUSH [tag] 39\t\t\tfunction getHash(uint256 _nonc...\n      JUMP \t\t\tfunction getHash(uint256 _nonc...\n    tag 38\t\t\tfunction getHash(uint256 _nonc...\n      JUMPDEST \t\t\tfunction getHash(uint256 _nonc...\n      PUSH 40\t\t\tfunction getHash(uint256 _nonc...\n      MLOAD \t\t\tfunction getHash(uint256 _nonc...\n      DUP1 \t\t\tfunction getHash(uint256 _nonc...\n      DUP3 \t\t\tfunction getHash(uint256 _nonc...\n      PUSH 0\t\t\tfunction getHash(uint256 _nonc...\n      NOT \t\t\tfunction getHash(uint256 _nonc...\n      AND \t\t\tfunction getHash(uint256 _nonc...\n      PUSH 0\t\t\tfunction getHash(uint256 _nonc...\n      NOT \t\t\tfunction getHash(uint256 _nonc...\n      AND \t\t\tfunction getHash(uint256 _nonc...\n      DUP2 \t\t\tfunction getHash(uint256 _nonc...\n      MSTORE \t\t\tfunction getHash(uint256 _nonc...\n      PUSH 20\t\t\tfunction getHash(uint256 _nonc...\n      ADD \t\t\tfunction getHash(uint256 _nonc...\n      SWAP2 \t\t\tfunction getHash(uint256 _nonc...\n      POP \t\t\tfunction getHash(uint256 _nonc...\n      POP \t\t\tfunction getHash(uint256 _nonc...\n      PUSH 40\t\t\tfunction getHash(uint256 _nonc...\n      MLOAD \t\t\tfunction getHash(uint256 _nonc...\n      DUP1 \t\t\tfunction getHash(uint256 _nonc...\n      SWAP2 \t\t\tfunction getHash(uint256 _nonc...\n      SUB \t\t\tfunction getHash(uint256 _nonc...\n      SWAP1 \t\t\tfunction getHash(uint256 _nonc...\n      RETURN \t\t\tfunction getHash(uint256 _nonc...\n    tag 7\t\t\tfunction setStone(bytes32 _tro...\n      JUMPDEST \t\t\tfunction setStone(bytes32 _tro...\n      CALLVALUE \t\t\tfunction setStone(bytes32 _tro...\n      ISZERO \t\t\tfunction setStone(bytes32 _tro...\n      PUSH [tag] 40\t\t\tfunction setStone(bytes32 _tro...\n      JUMPI \t\t\tfunction setStone(bytes32 _tro...\n      PUSH 0\t\t\tfunction setStone(bytes32 _tro...\n      DUP1 \t\t\tfunction setStone(bytes32 _tro...\n      REVERT \t\t\tfunction setStone(bytes32 _tro...\n    tag 40\t\t\tfunction setStone(bytes32 _tro...\n      JUMPDEST \t\t\tfunction setStone(bytes32 _tro...\n      PUSH [tag] 41\t\t\tfunction setStone(bytes32 _tro...\n      PUSH 4\t\t\tfunction setStone(bytes32 _tro...\n      DUP1 \t\t\tfunction setStone(bytes32 _tro...\n      DUP1 \t\t\tfunction setStone(bytes32 _tro...\n      CALLDATALOAD \t\t\tfunction setStone(bytes32 _tro...\n      PUSH 0\t\t\tfunction setStone(bytes32 _tro...\n      NOT \t\t\tfunction setStone(bytes32 _tro...\n      AND \t\t\tfunction setStone(bytes32 _tro...\n      SWAP1 \t\t\tfunction setStone(bytes32 _tro...\n      PUSH 20\t\t\tfunction setStone(bytes32 _tro...\n      ADD \t\t\tfunction setStone(bytes32 _tro...\n      SWAP1 \t\t\tfunction setStone(bytes32 _tro...\n      SWAP2 \t\t\tfunction setStone(bytes32 _tro...\n      SWAP1 \t\t\tfunction setStone(bytes32 _tro...\n      DUP1 \t\t\tfunction setStone(bytes32 _tro...\n      CALLDATALOAD \t\t\tfunction setStone(bytes32 _tro...\n      SWAP1 \t\t\tfunction setStone(bytes32 _tro...\n      PUSH 20\t\t\tfunction setStone(bytes32 _tro...\n      ADD \t\t\tfunction setStone(bytes32 _tro...\n      SWAP1 \t\t\tfunction setStone(bytes32 _tro...\n      SWAP2 \t\t\tfunction setStone(bytes32 _tro...\n      SWAP1 \t\t\tfunction setStone(bytes32 _tro...\n      POP \t\t\tfunction setStone(bytes32 _tro...\n      POP \t\t\tfunction setStone(bytes32 _tro...\n      PUSH [tag] 42\t\t\tfunction setStone(bytes32 _tro...\n      JUMP \t\t\tfunction setStone(bytes32 _tro...\n    tag 41\t\t\tfunction setStone(bytes32 _tro...\n      JUMPDEST \t\t\tfunction setStone(bytes32 _tro...\n      STOP \t\t\tfunction setStone(bytes32 _tro...\n    tag 8\t\t\tfunction setGold(bytes32 _trou...\n      JUMPDEST \t\t\tfunction setGold(bytes32 _trou...\n      CALLVALUE \t\t\tfunction setGold(bytes32 _trou...\n      ISZERO \t\t\tfunction setGold(bytes32 _trou...\n      PUSH [tag] 43\t\t\tfunction setGold(bytes32 _trou...\n      JUMPI \t\t\tfunction setGold(bytes32 _trou...\n      PUSH 0\t\t\tfunction setGold(bytes32 _trou...\n      DUP1 \t\t\tfunction setGold(bytes32 _trou...\n      REVERT \t\t\tfunction setGold(bytes32 _trou...\n    tag 43\t\t\tfunction setGold(bytes32 _trou...\n      JUMPDEST \t\t\tfunction setGold(bytes32 _trou...\n      PUSH [tag] 44\t\t\tfunction setGold(bytes32 _trou...\n      PUSH 4\t\t\tfunction setGold(bytes32 _trou...\n      DUP1 \t\t\tfunction setGold(bytes32 _trou...\n      DUP1 \t\t\tfunction setGold(bytes32 _trou...\n      CALLDATALOAD \t\t\tfunction setGold(bytes32 _trou...\n      PUSH 0\t\t\tfunction setGold(bytes32 _trou...\n      NOT \t\t\tfunction setGold(bytes32 _trou...\n      AND \t\t\tfunction setGold(bytes32 _trou...\n      SWAP1 \t\t\tfunction setGold(bytes32 _trou...\n      PUSH 20\t\t\tfunction setGold(bytes32 _trou...\n      ADD \t\t\tfunction setGold(bytes32 _trou...\n      SWAP1 \t\t\tfunction setGold(bytes32 _trou...\n      SWAP2 \t\t\tfunction setGold(bytes32 _trou...\n      SWAP1 \t\t\tfunction setGold(bytes32 _trou...\n      DUP1 \t\t\tfunction setGold(bytes32 _trou...\n      CALLDATALOAD \t\t\tfunction setGold(bytes32 _trou...\n      SWAP1 \t\t\tfunction setGold(bytes32 _trou...\n      PUSH 20\t\t\tfunction setGold(bytes32 _trou...\n      ADD \t\t\tfunction setGold(bytes32 _trou...\n      SWAP1 \t\t\tfunction setGold(bytes32 _trou...\n      SWAP2 \t\t\tfunction setGold(bytes32 _trou...\n      SWAP1 \t\t\tfunction setGold(bytes32 _trou...\n      POP \t\t\tfunction setGold(bytes32 _trou...\n      POP \t\t\tfunction setGold(bytes32 _trou...\n      PUSH [tag] 45\t\t\tfunction setGold(bytes32 _trou...\n      JUMP \t\t\tfunction setGold(bytes32 _trou...\n    tag 44\t\t\tfunction setGold(bytes32 _trou...\n      JUMPDEST \t\t\tfunction setGold(bytes32 _trou...\n      STOP \t\t\tfunction setGold(bytes32 _trou...\n    tag 9\t\t\tfunction setDexterity(bytes32 ...\n      JUMPDEST \t\t\tfunction setDexterity(bytes32 ...\n      CALLVALUE \t\t\tfunction setDexterity(bytes32 ...\n      ISZERO \t\t\tfunction setDexterity(bytes32 ...\n      PUSH [tag] 46\t\t\tfunction setDexterity(bytes32 ...\n      JUMPI \t\t\tfunction setDexterity(bytes32 ...\n      PUSH 0\t\t\tfunction setDexterity(bytes32 ...\n      DUP1 \t\t\tfunction setDexterity(bytes32 ...\n      REVERT \t\t\tfunction setDexterity(bytes32 ...\n    tag 46\t\t\tfunction setDexterity(bytes32 ...\n      JUMPDEST \t\t\tfunction setDexterity(bytes32 ...\n      PUSH [tag] 47\t\t\tfunction setDexterity(bytes32 ...\n      PUSH 4\t\t\tfunction setDexterity(bytes32 ...\n      DUP1 \t\t\tfunction setDexterity(bytes32 ...\n      DUP1 \t\t\tfunction setDexterity(bytes32 ...\n      CALLDATALOAD \t\t\tfunction setDexterity(bytes32 ...\n      PUSH 0\t\t\tfunction setDexterity(bytes32 ...\n      NOT \t\t\tfunction setDexterity(bytes32 ...\n      AND \t\t\tfunction setDexterity(bytes32 ...\n      SWAP1 \t\t\tfunction setDexterity(bytes32 ...\n      PUSH 20\t\t\tfunction setDexterity(bytes32 ...\n      ADD \t\t\tfunction setDexterity(bytes32 ...\n      SWAP1 \t\t\tfunction setDexterity(bytes32 ...\n      SWAP2 \t\t\tfunction setDexterity(bytes32 ...\n      SWAP1 \t\t\tfunction setDexterity(bytes32 ...\n      DUP1 \t\t\tfunction setDexterity(bytes32 ...\n      CALLDATALOAD \t\t\tfunction setDexterity(bytes32 ...\n      SWAP1 \t\t\tfunction setDexterity(bytes32 ...\n      PUSH 20\t\t\tfunction setDexterity(bytes32 ...\n      ADD \t\t\tfunction setDexterity(bytes32 ...\n      SWAP1 \t\t\tfunction setDexterity(bytes32 ...\n      SWAP2 \t\t\tfunction setDexterity(bytes32 ...\n      SWAP1 \t\t\tfunction setDexterity(bytes32 ...\n      POP \t\t\tfunction setDexterity(bytes32 ...\n      POP \t\t\tfunction setDexterity(bytes32 ...\n      PUSH [tag] 48\t\t\tfunction setDexterity(bytes32 ...\n      JUMP \t\t\tfunction setDexterity(bytes32 ...\n    tag 47\t\t\tfunction setDexterity(bytes32 ...\n      JUMPDEST \t\t\tfunction setDexterity(bytes32 ...\n      STOP \t\t\tfunction setDexterity(bytes32 ...\n    tag 10\t\t\tfunction getIntelligence(bytes...\n      JUMPDEST \t\t\tfunction getIntelligence(bytes...\n      CALLVALUE \t\t\tfunction getIntelligence(bytes...\n      ISZERO \t\t\tfunction getIntelligence(bytes...\n      PUSH [tag] 49\t\t\tfunction getIntelligence(bytes...\n      JUMPI \t\t\tfunction getIntelligence(bytes...\n      PUSH 0\t\t\tfunction getIntelligence(bytes...\n      DUP1 \t\t\tfunction getIntelligence(bytes...\n      REVERT \t\t\tfunction getIntelligence(bytes...\n    tag 49\t\t\tfunction getIntelligence(bytes...\n      JUMPDEST \t\t\tfunction getIntelligence(bytes...\n      PUSH [tag] 50\t\t\tfunction getIntelligence(bytes...\n      PUSH 4\t\t\tfunction getIntelligence(bytes...\n      DUP1 \t\t\tfunction getIntelligence(bytes...\n      DUP1 \t\t\tfunction getIntelligence(bytes...\n      CALLDATALOAD \t\t\tfunction getIntelligence(bytes...\n      PUSH 0\t\t\tfunction getIntelligence(bytes...\n      NOT \t\t\tfunction getIntelligence(bytes...\n      AND \t\t\tfunction getIntelligence(bytes...\n      SWAP1 \t\t\tfunction getIntelligence(bytes...\n      PUSH 20\t\t\tfunction getIntelligence(bytes...\n      ADD \t\t\tfunction getIntelligence(bytes...\n      SWAP1 \t\t\tfunction getIntelligence(bytes...\n      SWAP2 \t\t\tfunction getIntelligence(bytes...\n      SWAP1 \t\t\tfunction getIntelligence(bytes...\n      POP \t\t\tfunction getIntelligence(bytes...\n      POP \t\t\tfunction getIntelligence(bytes...\n      PUSH [tag] 51\t\t\tfunction getIntelligence(bytes...\n      JUMP \t\t\tfunction getIntelligence(bytes...\n    tag 50\t\t\tfunction getIntelligence(bytes...\n      JUMPDEST \t\t\tfunction getIntelligence(bytes...\n      PUSH 40\t\t\tfunction getIntelligence(bytes...\n      MLOAD \t\t\tfunction getIntelligence(bytes...\n      DUP1 \t\t\tfunction getIntelligence(bytes...\n      DUP3 \t\t\tfunction getIntelligence(bytes...\n      DUP2 \t\t\tfunction getIntelligence(bytes...\n      MSTORE \t\t\tfunction getIntelligence(bytes...\n      PUSH 20\t\t\tfunction getIntelligence(bytes...\n      ADD \t\t\tfunction getIntelligence(bytes...\n      SWAP2 \t\t\tfunction getIntelligence(bytes...\n      POP \t\t\tfunction getIntelligence(bytes...\n      POP \t\t\tfunction getIntelligence(bytes...\n      PUSH 40\t\t\tfunction getIntelligence(bytes...\n      MLOAD \t\t\tfunction getIntelligence(bytes...\n      DUP1 \t\t\tfunction getIntelligence(bytes...\n      SWAP2 \t\t\tfunction getIntelligence(bytes...\n      SUB \t\t\tfunction getIntelligence(bytes...\n      SWAP1 \t\t\tfunction getIntelligence(bytes...\n      RETURN \t\t\tfunction getIntelligence(bytes...\n    tag 11\t\t\tfunction createTroup(bytes32 _...\n      JUMPDEST \t\t\tfunction createTroup(bytes32 _...\n      CALLVALUE \t\t\tfunction createTroup(bytes32 _...\n      ISZERO \t\t\tfunction createTroup(bytes32 _...\n      PUSH [tag] 52\t\t\tfunction createTroup(bytes32 _...\n      JUMPI \t\t\tfunction createTroup(bytes32 _...\n      PUSH 0\t\t\tfunction createTroup(bytes32 _...\n      DUP1 \t\t\tfunction createTroup(bytes32 _...\n      REVERT \t\t\tfunction createTroup(bytes32 _...\n    tag 52\t\t\tfunction createTroup(bytes32 _...\n      JUMPDEST \t\t\tfunction createTroup(bytes32 _...\n      PUSH [tag] 53\t\t\tfunction createTroup(bytes32 _...\n      PUSH 4\t\t\tfunction createTroup(bytes32 _...\n      DUP1 \t\t\tfunction createTroup(bytes32 _...\n      DUP1 \t\t\tfunction createTroup(bytes32 _...\n      CALLDATALOAD \t\t\tfunction createTroup(bytes32 _...\n      PUSH 0\t\t\tfunction createTroup(bytes32 _...\n      NOT \t\t\tfunction createTroup(bytes32 _...\n      AND \t\t\tfunction createTroup(bytes32 _...\n      SWAP1 \t\t\tfunction createTroup(bytes32 _...\n      PUSH 20\t\t\tfunction createTroup(bytes32 _...\n      ADD \t\t\tfunction createTroup(bytes32 _...\n      SWAP1 \t\t\tfunction createTroup(bytes32 _...\n      SWAP2 \t\t\tfunction createTroup(bytes32 _...\n      SWAP1 \t\t\tfunction createTroup(bytes32 _...\n      POP \t\t\tfunction createTroup(bytes32 _...\n      POP \t\t\tfunction createTroup(bytes32 _...\n      PUSH [tag] 54\t\t\tfunction createTroup(bytes32 _...\n      JUMP \t\t\tfunction createTroup(bytes32 _...\n    tag 53\t\t\tfunction createTroup(bytes32 _...\n      JUMPDEST \t\t\tfunction createTroup(bytes32 _...\n      STOP \t\t\tfunction createTroup(bytes32 _...\n    tag 12\t\t\tfunction getLife(bytes32 _trou...\n      JUMPDEST \t\t\tfunction getLife(bytes32 _trou...\n      CALLVALUE \t\t\tfunction getLife(bytes32 _trou...\n      ISZERO \t\t\tfunction getLife(bytes32 _trou...\n      PUSH [tag] 55\t\t\tfunction getLife(bytes32 _trou...\n      JUMPI \t\t\tfunction getLife(bytes32 _trou...\n      PUSH 0\t\t\tfunction getLife(bytes32 _trou...\n      DUP1 \t\t\tfunction getLife(bytes32 _trou...\n      REVERT \t\t\tfunction getLife(bytes32 _trou...\n    tag 55\t\t\tfunction getLife(bytes32 _trou...\n      JUMPDEST \t\t\tfunction getLife(bytes32 _trou...\n      PUSH [tag] 56\t\t\tfunction getLife(bytes32 _trou...\n      PUSH 4\t\t\tfunction getLife(bytes32 _trou...\n      DUP1 \t\t\tfunction getLife(bytes32 _trou...\n      DUP1 \t\t\tfunction getLife(bytes32 _trou...\n      CALLDATALOAD \t\t\tfunction getLife(bytes32 _trou...\n      PUSH 0\t\t\tfunction getLife(bytes32 _trou...\n      NOT \t\t\tfunction getLife(bytes32 _trou...\n      AND \t\t\tfunction getLife(bytes32 _trou...\n      SWAP1 \t\t\tfunction getLife(bytes32 _trou...\n      PUSH 20\t\t\tfunction getLife(bytes32 _trou...\n      ADD \t\t\tfunction getLife(bytes32 _trou...\n      SWAP1 \t\t\tfunction getLife(bytes32 _trou...\n      SWAP2 \t\t\tfunction getLife(bytes32 _trou...\n      SWAP1 \t\t\tfunction getLife(bytes32 _trou...\n      POP \t\t\tfunction getLife(bytes32 _trou...\n      POP \t\t\tfunction getLife(bytes32 _trou...\n      PUSH [tag] 57\t\t\tfunction getLife(bytes32 _trou...\n      JUMP \t\t\tfunction getLife(bytes32 _trou...\n    tag 56\t\t\tfunction getLife(bytes32 _trou...\n      JUMPDEST \t\t\tfunction getLife(bytes32 _trou...\n      PUSH 40\t\t\tfunction getLife(bytes32 _trou...\n      MLOAD \t\t\tfunction getLife(bytes32 _trou...\n      DUP1 \t\t\tfunction getLife(bytes32 _trou...\n      DUP3 \t\t\tfunction getLife(bytes32 _trou...\n      DUP2 \t\t\tfunction getLife(bytes32 _trou...\n      MSTORE \t\t\tfunction getLife(bytes32 _trou...\n      PUSH 20\t\t\tfunction getLife(bytes32 _trou...\n      ADD \t\t\tfunction getLife(bytes32 _trou...\n      SWAP2 \t\t\tfunction getLife(bytes32 _trou...\n      POP \t\t\tfunction getLife(bytes32 _trou...\n      POP \t\t\tfunction getLife(bytes32 _trou...\n      PUSH 40\t\t\tfunction getLife(bytes32 _trou...\n      MLOAD \t\t\tfunction getLife(bytes32 _trou...\n      DUP1 \t\t\tfunction getLife(bytes32 _trou...\n      SWAP2 \t\t\tfunction getLife(bytes32 _trou...\n      SUB \t\t\tfunction getLife(bytes32 _trou...\n      SWAP1 \t\t\tfunction getLife(bytes32 _trou...\n      RETURN \t\t\tfunction getLife(bytes32 _trou...\n    tag 13\t\t\taddress public owner\n      JUMPDEST \t\t\taddress public owner\n      CALLVALUE \t\t\taddress public owner\n      ISZERO \t\t\taddress public owner\n      PUSH [tag] 58\t\t\taddress public owner\n      JUMPI \t\t\taddress public owner\n      PUSH 0\t\t\taddress public owner\n      DUP1 \t\t\taddress public owner\n      REVERT \t\t\taddress public owner\n    tag 58\t\t\taddress public owner\n      JUMPDEST \t\t\taddress public owner\n      PUSH [tag] 59\t\t\taddress public owner\n      PUSH [tag] 60\t\t\taddress public owner\n      JUMP \t\t\taddress public owner\n    tag 59\t\t\taddress public owner\n      JUMPDEST \t\t\taddress public owner\n      PUSH 40\t\t\taddress public owner\n      MLOAD \t\t\taddress public owner\n      DUP1 \t\t\taddress public owner\n      DUP3 \t\t\taddress public owner\n      PUSH FFFFFFFFFFFFFFFFFFFFFFFFFFFFFFFFFFFFFFFF\t\t\taddress public owner\n      AND \t\t\taddress public owner\n      PUSH FFFFFFFFFFFFFFFFFFFFFFFFFFFFFFFFFFFFFFFF\t\t\taddress public owner\n      AND \t\t\taddress public owner\n      DUP2 \t\t\taddress public owner\n      MSTORE \t\t\taddress public owner\n      PUSH 20\t\t\taddress public owner\n      ADD \t\t\taddress public owner\n      SWAP2 \t\t\taddress public owner\n      POP \t\t\taddress public owner\n      POP \t\t\taddress public owner\n      PUSH 40\t\t\taddress public owner\n      MLOAD \t\t\taddress public owner\n      DUP1 \t\t\taddress public owner\n      SWAP2 \t\t\taddress public owner\n      SUB \t\t\taddress public owner\n      SWAP1 \t\t\taddress public owner\n      RETURN \t\t\taddress public owner\n    tag 14\t\t\tfunction getDexterity(bytes32 ...\n      JUMPDEST \t\t\tfunction getDexterity(bytes32 ...\n      CALLVALUE \t\t\tfunction getDexterity(bytes32 ...\n      ISZERO \t\t\tfunction getDexterity(bytes32 ...\n      PUSH [tag] 61\t\t\tfunction getDexterity(bytes32 ...\n      JUMPI \t\t\tfunction getDexterity(bytes32 ...\n      PUSH 0\t\t\tfunction getDexterity(bytes32 ...\n      DUP1 \t\t\tfunction getDexterity(bytes32 ...\n      REVERT \t\t\tfunction getDexterity(bytes32 ...\n    tag 61\t\t\tfunction getDexterity(bytes32 ...\n      JUMPDEST \t\t\tfunction getDexterity(bytes32 ...\n      PUSH [tag] 62\t\t\tfunction getDexterity(bytes32 ...\n      PUSH 4\t\t\tfunction getDexterity(bytes32 ...\n      DUP1 \t\t\tfunction getDexterity(bytes32 ...\n      DUP1 \t\t\tfunction getDexterity(bytes32 ...\n      CALLDATALOAD \t\t\tfunction getDexterity(bytes32 ...\n      PUSH 0\t\t\tfunction getDexterity(bytes32 ...\n      NOT \t\t\tfunction getDexterity(bytes32 ...\n      AND \t\t\tfunction getDexterity(bytes32 ...\n      SWAP1 \t\t\tfunction getDexterity(bytes32 ...\n      PUSH 20\t\t\tfunction getDexterity(bytes32 ...\n      ADD \t\t\tfunction getDexterity(bytes32 ...\n      SWAP1 \t\t\tfunction getDexterity(bytes32 ...\n      SWAP2 \t\t\tfunction getDexterity(bytes32 ...\n      SWAP1 \t\t\tfunction getDexterity(bytes32 ...\n      POP \t\t\tfunction getDexterity(bytes32 ...\n      POP \t\t\tfunction getDexterity(bytes32 ...\n      PUSH [tag] 63\t\t\tfunction getDexterity(bytes32 ...\n      JUMP \t\t\tfunction getDexterity(bytes32 ...\n    tag 62\t\t\tfunction getDexterity(bytes32 ...\n      JUMPDEST \t\t\tfunction getDexterity(bytes32 ...\n      PUSH 40\t\t\tfunction getDexterity(bytes32 ...\n      MLOAD \t\t\tfunction getDexterity(bytes32 ...\n      DUP1 \t\t\tfunction getDexterity(bytes32 ...\n      DUP3 \t\t\tfunction getDexterity(bytes32 ...\n      DUP2 \t\t\tfunction getDexterity(bytes32 ...\n      MSTORE \t\t\tfunction getDexterity(bytes32 ...\n      PUSH 20\t\t\tfunction getDexterity(bytes32 ...\n      ADD \t\t\tfunction getDexterity(bytes32 ...\n      SWAP2 \t\t\tfunction getDexterity(bytes32 ...\n      POP \t\t\tfunction getDexterity(bytes32 ...\n      POP \t\t\tfunction getDexterity(bytes32 ...\n      PUSH 40\t\t\tfunction getDexterity(bytes32 ...\n      MLOAD \t\t\tfunction getDexterity(bytes32 ...\n      DUP1 \t\t\tfunction getDexterity(bytes32 ...\n      SWAP2 \t\t\tfunction getDexterity(bytes32 ...\n      SUB \t\t\tfunction getDexterity(bytes32 ...\n      SWAP1 \t\t\tfunction getDexterity(bytes32 ...\n      RETURN \t\t\tfunction getDexterity(bytes32 ...\n    tag 15\t\t\tfunction setWood(bytes32 _trou...\n      JUMPDEST \t\t\tfunction setWood(bytes32 _trou...\n      CALLVALUE \t\t\tfunction setWood(bytes32 _trou...\n      ISZERO \t\t\tfunction setWood(bytes32 _trou...\n      PUSH [tag] 64\t\t\tfunction setWood(bytes32 _trou...\n      JUMPI \t\t\tfunction setWood(bytes32 _trou...\n      PUSH 0\t\t\tfunction setWood(bytes32 _trou...\n      DUP1 \t\t\tfunction setWood(bytes32 _trou...\n      REVERT \t\t\tfunction setWood(bytes32 _trou...\n    tag 64\t\t\tfunction setWood(bytes32 _trou...\n      JUMPDEST \t\t\tfunction setWood(bytes32 _trou...\n      PUSH [tag] 65\t\t\tfunction setWood(bytes32 _trou...\n      PUSH 4\t\t\tfunction setWood(bytes32 _trou...\n      DUP1 \t\t\tfunction setWood(bytes32 _trou...\n      DUP1 \t\t\tfunction setWood(bytes32 _trou...\n      CALLDATALOAD \t\t\tfunction setWood(bytes32 _trou...\n      PUSH 0\t\t\tfunction setWood(bytes32 _trou...\n      NOT \t\t\tfunction setWood(bytes32 _trou...\n      AND \t\t\tfunction setWood(bytes32 _trou...\n      SWAP1 \t\t\tfunction setWood(bytes32 _trou...\n      PUSH 20\t\t\tfunction setWood(bytes32 _trou...\n      ADD \t\t\tfunction setWood(bytes32 _trou...\n      SWAP1 \t\t\tfunction setWood(bytes32 _trou...\n      SWAP2 \t\t\tfunction setWood(bytes32 _trou...\n      SWAP1 \t\t\tfunction setWood(bytes32 _trou...\n      DUP1 \t\t\tfunction setWood(bytes32 _trou...\n      CALLDATALOAD \t\t\tfunction setWood(bytes32 _trou...\n      SWAP1 \t\t\tfunction setWood(bytes32 _trou...\n      PUSH 20\t\t\tfunction setWood(bytes32 _trou...\n      ADD \t\t\tfunction setWood(bytes32 _trou...\n      SWAP1 \t\t\tfunction setWood(bytes32 _trou...\n      SWAP2 \t\t\tfunction setWood(bytes32 _trou...\n      SWAP1 \t\t\tfunction setWood(bytes32 _trou...\n      POP \t\t\tfunction setWood(bytes32 _trou...\n      POP \t\t\tfunction setWood(bytes32 _trou...\n      PUSH [tag] 66\t\t\tfunction setWood(bytes32 _trou...\n      JUMP \t\t\tfunction setWood(bytes32 _trou...\n    tag 65\t\t\tfunction setWood(bytes32 _trou...\n      JUMPDEST \t\t\tfunction setWood(bytes32 _trou...\n      STOP \t\t\tfunction setWood(bytes32 _trou...\n    tag 16\t\t\tfunction setLife(bytes32 _trou...\n      JUMPDEST \t\t\tfunction setLife(bytes32 _trou...\n      CALLVALUE \t\t\tfunction setLife(bytes32 _trou...\n      ISZERO \t\t\tfunction setLife(bytes32 _trou...\n      PUSH [tag] 67\t\t\tfunction setLife(bytes32 _trou...\n      JUMPI \t\t\tfunction setLife(bytes32 _trou...\n      PUSH 0\t\t\tfunction setLife(bytes32 _trou...\n      DUP1 \t\t\tfunction setLife(bytes32 _trou...\n      REVERT \t\t\tfunction setLife(bytes32 _trou...\n    tag 67\t\t\tfunction setLife(bytes32 _trou...\n      JUMPDEST \t\t\tfunction setLife(bytes32 _trou...\n      PUSH [tag] 68\t\t\tfunction setLife(bytes32 _trou...\n      PUSH 4\t\t\tfunction setLife(bytes32 _trou...\n      DUP1 \t\t\tfunction setLife(bytes32 _trou...\n      DUP1 \t\t\tfunction setLife(bytes32 _trou...\n      CALLDATALOAD \t\t\tfunction setLife(bytes32 _trou...\n      PUSH 0\t\t\tfunction setLife(bytes32 _trou...\n      NOT \t\t\tfunction setLife(bytes32 _trou...\n      AND \t\t\tfunction setLife(bytes32 _trou...\n      SWAP1 \t\t\tfunction setLife(bytes32 _trou...\n      PUSH 20\t\t\tfunction setLife(bytes32 _trou...\n      ADD \t\t\tfunction setLife(bytes32 _trou...\n      SWAP1 \t\t\tfunction setLife(bytes32 _trou...\n      SWAP2 \t\t\tfunction setLife(bytes32 _trou...\n      SWAP1 \t\t\tfunction setLife(bytes32 _trou...\n      DUP1 \t\t\tfunction setLife(bytes32 _trou...\n      CALLDATALOAD \t\t\tfunction setLife(bytes32 _trou...\n      SWAP1 \t\t\tfunction setLife(bytes32 _trou...\n      PUSH 20\t\t\tfunction setLife(bytes32 _trou...\n      ADD \t\t\tfunction setLife(bytes32 _trou...\n      SWAP1 \t\t\tfunction setLife(bytes32 _trou...\n      SWAP2 \t\t\tfunction setLife(bytes32 _trou...\n      SWAP1 \t\t\tfunction setLife(bytes32 _trou...\n      POP \t\t\tfunction setLife(bytes32 _trou...\n      POP \t\t\tfunction setLife(bytes32 _trou...\n      PUSH [tag] 69\t\t\tfunction setLife(bytes32 _trou...\n      JUMP \t\t\tfunction setLife(bytes32 _trou...\n    tag 68\t\t\tfunction setLife(bytes32 _trou...\n      JUMPDEST \t\t\tfunction setLife(bytes32 _trou...\n      STOP \t\t\tfunction setLife(bytes32 _trou...\n    tag 17\t\t\tfunction getWood(bytes32 _trou...\n      JUMPDEST \t\t\tfunction getWood(bytes32 _trou...\n      CALLVALUE \t\t\tfunction getWood(bytes32 _trou...\n      ISZERO \t\t\tfunction getWood(bytes32 _trou...\n      PUSH [tag] 70\t\t\tfunction getWood(bytes32 _trou...\n      JUMPI \t\t\tfunction getWood(bytes32 _trou...\n      PUSH 0\t\t\tfunction getWood(bytes32 _trou...\n      DUP1 \t\t\tfunction getWood(bytes32 _trou...\n      REVERT \t\t\tfunction getWood(bytes32 _trou...\n    tag 70\t\t\tfunction getWood(bytes32 _trou...\n      JUMPDEST \t\t\tfunction getWood(bytes32 _trou...\n      PUSH [tag] 71\t\t\tfunction getWood(bytes32 _trou...\n      PUSH 4\t\t\tfunction getWood(bytes32 _trou...\n      DUP1 \t\t\tfunction getWood(bytes32 _trou...\n      DUP1 \t\t\tfunction getWood(bytes32 _trou...\n      CALLDATALOAD \t\t\tfunction getWood(bytes32 _trou...\n      PUSH 0\t\t\tfunction getWood(bytes32 _trou...\n      NOT \t\t\tfunction getWood(bytes32 _trou...\n      AND \t\t\tfunction getWood(bytes32 _trou...\n      SWAP1 \t\t\tfunction getWood(bytes32 _trou...\n      PUSH 20\t\t\tfunction getWood(bytes32 _trou...\n      ADD \t\t\tfunction getWood(bytes32 _trou...\n      SWAP1 \t\t\tfunction getWood(bytes32 _trou...\n      SWAP2 \t\t\tfunction getWood(bytes32 _trou...\n      SWAP1 \t\t\tfunction getWood(bytes32 _trou...\n      POP \t\t\tfunction getWood(bytes32 _trou...\n      POP \t\t\tfunction getWood(bytes32 _trou...\n      PUSH [tag] 72\t\t\tfunction getWood(bytes32 _trou...\n      JUMP \t\t\tfunction getWood(bytes32 _trou...\n    tag 71\t\t\tfunction getWood(bytes32 _trou...\n      JUMPDEST \t\t\tfunction getWood(bytes32 _trou...\n      PUSH 40\t\t\tfunction getWood(bytes32 _trou...\n      MLOAD \t\t\tfunction getWood(bytes32 _trou...\n      DUP1 \t\t\tfunction getWood(bytes32 _trou...\n      DUP3 \t\t\tfunction getWood(bytes32 _trou...\n      DUP2 \t\t\tfunction getWood(bytes32 _trou...\n      MSTORE \t\t\tfunction getWood(bytes32 _trou...\n      PUSH 20\t\t\tfunction getWood(bytes32 _trou...\n      ADD \t\t\tfunction getWood(bytes32 _trou...\n      SWAP2 \t\t\tfunction getWood(bytes32 _trou...\n      POP \t\t\tfunction getWood(bytes32 _trou...\n      POP \t\t\tfunction getWood(bytes32 _trou...\n      PUSH 40\t\t\tfunction getWood(bytes32 _trou...\n      MLOAD \t\t\tfunction getWood(bytes32 _trou...\n      DUP1 \t\t\tfunction getWood(bytes32 _trou...\n      SWAP2 \t\t\tfunction getWood(bytes32 _trou...\n      SUB \t\t\tfunction getWood(bytes32 _trou...\n      SWAP1 \t\t\tfunction getWood(bytes32 _trou...\n      RETURN \t\t\tfunction getWood(bytes32 _trou...\n    tag 18\t\t\tfunction getIndexLength()\\r\\n ...\n      JUMPDEST \t\t\tfunction getIndexLength()\\r\\n ...\n      CALLVALUE \t\t\tfunction getIndexLength()\\r\\n ...\n      ISZERO \t\t\tfunction getIndexLength()\\r\\n ...\n      PUSH [tag] 73\t\t\tfunction getIndexLength()\\r\\n ...\n      JUMPI \t\t\tfunction getIndexLength()\\r\\n ...\n      PUSH 0\t\t\tfunction getIndexLength()\\r\\n ...\n      DUP1 \t\t\tfunction getIndexLength()\\r\\n ...\n      REVERT \t\t\tfunction getIndexLength()\\r\\n ...\n    tag 73\t\t\tfunction getIndexLength()\\r\\n ...\n      JUMPDEST \t\t\tfunction getIndexLength()\\r\\n ...\n      PUSH [tag] 74\t\t\tfunction getIndexLength()\\r\\n ...\n      PUSH [tag] 75\t\t\tfunction getIndexLength()\\r\\n ...\n      JUMP \t\t\tfunction getIndexLength()\\r\\n ...\n    tag 74\t\t\tfunction getIndexLength()\\r\\n ...\n      JUMPDEST \t\t\tfunction getIndexLength()\\r\\n ...\n      PUSH 40\t\t\tfunction getIndexLength()\\r\\n ...\n      MLOAD \t\t\tfunction getIndexLength()\\r\\n ...\n      DUP1 \t\t\tfunction getIndexLength()\\r\\n ...\n      DUP3 \t\t\tfunction getIndexLength()\\r\\n ...\n      DUP2 \t\t\tfunction getIndexLength()\\r\\n ...\n      MSTORE \t\t\tfunction getIndexLength()\\r\\n ...\n      PUSH 20\t\t\tfunction getIndexLength()\\r\\n ...\n      ADD \t\t\tfunction getIndexLength()\\r\\n ...\n      SWAP2 \t\t\tfunction getIndexLength()\\r\\n ...\n      POP \t\t\tfunction getIndexLength()\\r\\n ...\n      POP \t\t\tfunction getIndexLength()\\r\\n ...\n      PUSH 40\t\t\tfunction getIndexLength()\\r\\n ...\n      MLOAD \t\t\tfunction getIndexLength()\\r\\n ...\n      DUP1 \t\t\tfunction getIndexLength()\\r\\n ...\n      SWAP2 \t\t\tfunction getIndexLength()\\r\\n ...\n      SUB \t\t\tfunction getIndexLength()\\r\\n ...\n      SWAP1 \t\t\tfunction getIndexLength()\\r\\n ...\n      RETURN \t\t\tfunction getIndexLength()\\r\\n ...\n    tag 19\t\t\tfunction getStone(bytes32 _tro...\n      JUMPDEST \t\t\tfunction getStone(bytes32 _tro...\n      CALLVALUE \t\t\tfunction getStone(bytes32 _tro...\n      ISZERO \t\t\tfunction getStone(bytes32 _tro...\n      PUSH [tag] 76\t\t\tfunction getStone(bytes32 _tro...\n      JUMPI \t\t\tfunction getStone(bytes32 _tro...\n      PUSH 0\t\t\tfunction getStone(bytes32 _tro...\n      DUP1 \t\t\tfunction getStone(bytes32 _tro...\n      REVERT \t\t\tfunction getStone(bytes32 _tro...\n    tag 76\t\t\tfunction getStone(bytes32 _tro...\n      JUMPDEST \t\t\tfunction getStone(bytes32 _tro...\n      PUSH [tag] 77\t\t\tfunction getStone(bytes32 _tro...\n      PUSH 4\t\t\tfunction getStone(bytes32 _tro...\n      DUP1 \t\t\tfunction getStone(bytes32 _tro...\n      DUP1 \t\t\tfunction getStone(bytes32 _tro...\n      CALLDATALOAD \t\t\tfunction getStone(bytes32 _tro...\n      PUSH 0\t\t\tfunction getStone(bytes32 _tro...\n      NOT \t\t\tfunction getStone(bytes32 _tro...\n      AND \t\t\tfunction getStone(bytes32 _tro...\n      SWAP1 \t\t\tfunction getStone(bytes32 _tro...\n      PUSH 20\t\t\tfunction getStone(bytes32 _tro...\n      ADD \t\t\tfunction getStone(bytes32 _tro...\n      SWAP1 \t\t\tfunction getStone(bytes32 _tro...\n      SWAP2 \t\t\tfunction getStone(bytes32 _tro...\n      SWAP1 \t\t\tfunction getStone(bytes32 _tro...\n      POP \t\t\tfunction getStone(bytes32 _tro...\n      POP \t\t\tfunction getStone(bytes32 _tro...\n      PUSH [tag] 78\t\t\tfunction getStone(bytes32 _tro...\n      JUMP \t\t\tfunction getStone(bytes32 _tro...\n    tag 77\t\t\tfunction getStone(bytes32 _tro...\n      JUMPDEST \t\t\tfunction getStone(bytes32 _tro...\n      PUSH 40\t\t\tfunction getStone(bytes32 _tro...\n      MLOAD \t\t\tfunction getStone(bytes32 _tro...\n      DUP1 \t\t\tfunction getStone(bytes32 _tro...\n      DUP3 \t\t\tfunction getStone(bytes32 _tro...\n      DUP2 \t\t\tfunction getStone(bytes32 _tro...\n      MSTORE \t\t\tfunction getStone(bytes32 _tro...\n      PUSH 20\t\t\tfunction getStone(bytes32 _tro...\n      ADD \t\t\tfunction getStone(bytes32 _tro...\n      SWAP2 \t\t\tfunction getStone(bytes32 _tro...\n      POP \t\t\tfunction getStone(bytes32 _tro...\n      POP \t\t\tfunction getStone(bytes32 _tro...\n      PUSH 40\t\t\tfunction getStone(bytes32 _tro...\n      MLOAD \t\t\tfunction getStone(bytes32 _tro...\n      DUP1 \t\t\tfunction getStone(bytes32 _tro...\n      SWAP2 \t\t\tfunction getStone(bytes32 _tro...\n      SUB \t\t\tfunction getStone(bytes32 _tro...\n      SWAP1 \t\t\tfunction getStone(bytes32 _tro...\n      RETURN \t\t\tfunction getStone(bytes32 _tro...\n    tag 20\t\t\tfunction getGold(bytes32 _trou...\n      JUMPDEST \t\t\tfunction getGold(bytes32 _trou...\n      CALLVALUE \t\t\tfunction getGold(bytes32 _trou...\n      ISZERO \t\t\tfunction getGold(bytes32 _trou...\n      PUSH [tag] 79\t\t\tfunction getGold(bytes32 _trou...\n      JUMPI \t\t\tfunction getGold(bytes32 _trou...\n      PUSH 0\t\t\tfunction getGold(bytes32 _trou...\n      DUP1 \t\t\tfunction getGold(bytes32 _trou...\n      REVERT \t\t\tfunction getGold(bytes32 _trou...\n    tag 79\t\t\tfunction getGold(bytes32 _trou...\n      JUMPDEST \t\t\tfunction getGold(bytes32 _trou...\n      PUSH [tag] 80\t\t\tfunction getGold(bytes32 _trou...\n      PUSH 4\t\t\tfunction getGold(bytes32 _trou...\n      DUP1 \t\t\tfunction getGold(bytes32 _trou...\n      DUP1 \t\t\tfunction getGold(bytes32 _trou...\n      CALLDATALOAD \t\t\tfunction getGold(bytes32 _trou...\n      PUSH 0\t\t\tfunction getGold(bytes32 _trou...\n      NOT \t\t\tfunction getGold(bytes32 _trou...\n      AND \t\t\tfunction getGold(bytes32 _trou...\n      SWAP1 \t\t\tfunction getGold(bytes32 _trou...\n      PUSH 20\t\t\tfunction getGold(bytes32 _trou...\n      ADD \t\t\tfunction getGold(bytes32 _trou...\n      SWAP1 \t\t\tfunction getGold(bytes32 _trou...\n      SWAP2 \t\t\tfunction getGold(bytes32 _trou...\n      SWAP1 \t\t\tfunction getGold(bytes32 _trou...\n      POP \t\t\tfunction getGold(bytes32 _trou...\n      POP \t\t\tfunction getGold(bytes32 _trou...\n      PUSH [tag] 81\t\t\tfunction getGold(bytes32 _trou...\n      JUMP \t\t\tfunction getGold(bytes32 _trou...\n    tag 80\t\t\tfunction getGold(bytes32 _trou...\n      JUMPDEST \t\t\tfunction getGold(bytes32 _trou...\n      PUSH 40\t\t\tfunction getGold(bytes32 _trou...\n      MLOAD \t\t\tfunction getGold(bytes32 _trou...\n      DUP1 \t\t\tfunction getGold(bytes32 _trou...\n      DUP3 \t\t\tfunction getGold(bytes32 _trou...\n      DUP2 \t\t\tfunction getGold(bytes32 _trou...\n      MSTORE \t\t\tfunction getGold(bytes32 _trou...\n      PUSH 20\t\t\tfunction getGold(bytes32 _trou...\n      ADD \t\t\tfunction getGold(bytes32 _trou...\n      SWAP2 \t\t\tfunction getGold(bytes32 _trou...\n      POP \t\t\tfunction getGold(bytes32 _trou...\n      POP \t\t\tfunction getGold(bytes32 _trou...\n      PUSH 40\t\t\tfunction getGold(bytes32 _trou...\n      MLOAD \t\t\tfunction getGold(bytes32 _trou...\n      DUP1 \t\t\tfunction getGold(bytes32 _trou...\n      SWAP2 \t\t\tfunction getGold(bytes32 _trou...\n      SUB \t\t\tfunction getGold(bytes32 _trou...\n      SWAP1 \t\t\tfunction getGold(bytes32 _trou...\n      RETURN \t\t\tfunction getGold(bytes32 _trou...\n    tag 21\t\t\tfunction transferOwnership(add...\n      JUMPDEST \t\t\tfunction transferOwnership(add...\n      CALLVALUE \t\t\tfunction transferOwnership(add...\n      ISZERO \t\t\tfunction transferOwnership(add...\n      PUSH [tag] 82\t\t\tfunction transferOwnership(add...\n      JUMPI \t\t\tfunction transferOwnership(add...\n      PUSH 0\t\t\tfunction transferOwnership(add...\n      DUP1 \t\t\tfunction transferOwnership(add...\n      REVERT \t\t\tfunction transferOwnership(add...\n    tag 82\t\t\tfunction transferOwnership(add...\n      JUMPDEST \t\t\tfunction transferOwnership(add...\n      PUSH [tag] 83\t\t\tfunction transferOwnership(add...\n      PUSH 4\t\t\tfunction transferOwnership(add...\n      DUP1 \t\t\tfunction transferOwnership(add...\n      DUP1 \t\t\tfunction transferOwnership(add...\n      CALLDATALOAD \t\t\tfunction transferOwnership(add...\n      PUSH FFFFFFFFFFFFFFFFFFFFFFFFFFFFFFFFFFFFFFFF\t\t\tfunction transferOwnership(add...\n      AND \t\t\tfunction transferOwnership(add...\n      SWAP1 \t\t\tfunction transferOwnership(add...\n      PUSH 20\t\t\tfunction transferOwnership(add...\n      ADD \t\t\tfunction transferOwnership(add...\n      SWAP1 \t\t\tfunction transferOwnership(add...\n      SWAP2 \t\t\tfunction transferOwnership(add...\n      SWAP1 \t\t\tfunction transferOwnership(add...\n      POP \t\t\tfunction transferOwnership(add...\n      POP \t\t\tfunction transferOwnership(add...\n      PUSH [tag] 84\t\t\tfunction transferOwnership(add...\n      JUMP \t\t\tfunction transferOwnership(add...\n    tag 83\t\t\tfunction transferOwnership(add...\n      JUMPDEST \t\t\tfunction transferOwnership(add...\n      STOP \t\t\tfunction transferOwnership(add...\n    tag 22\t\t\tfunction setName(bytes32 _trou...\n      JUMPDEST \t\t\tfunction setName(bytes32 _trou...\n      CALLVALUE \t\t\tfunction setName(bytes32 _trou...\n      ISZERO \t\t\tfunction setName(bytes32 _trou...\n      PUSH [tag] 85\t\t\tfunction setName(bytes32 _trou...\n      JUMPI \t\t\tfunction setName(bytes32 _trou...\n      PUSH 0\t\t\tfunction setName(bytes32 _trou...\n      DUP1 \t\t\tfunction setName(bytes32 _trou...\n      REVERT \t\t\tfunction setName(bytes32 _trou...\n    tag 85\t\t\tfunction setName(bytes32 _trou...\n      JUMPDEST \t\t\tfunction setName(bytes32 _trou...\n      PUSH [tag] 86\t\t\tfunction setName(bytes32 _trou...\n      PUSH 4\t\t\tfunction setName(bytes32 _trou...\n      DUP1 \t\t\tfunction setName(bytes32 _trou...\n      DUP1 \t\t\tfunction setName(bytes32 _trou...\n      CALLDATALOAD \t\t\tfunction setName(bytes32 _trou...\n      PUSH 0\t\t\tfunction setName(bytes32 _trou...\n      NOT \t\t\tfunction setName(bytes32 _trou...\n      AND \t\t\tfunction setName(bytes32 _trou...\n      SWAP1 \t\t\tfunction setName(bytes32 _trou...\n      PUSH 20\t\t\tfunction setName(bytes32 _trou...\n      ADD \t\t\tfunction setName(bytes32 _trou...\n      SWAP1 \t\t\tfunction setName(bytes32 _trou...\n      SWAP2 \t\t\tfunction setName(bytes32 _trou...\n      SWAP1 \t\t\tfunction setName(bytes32 _trou...\n      DUP1 \t\t\tfunction setName(bytes32 _trou...\n      CALLDATALOAD \t\t\tfunction setName(bytes32 _trou...\n      PUSH FFFFFFFFFFFFFFFFFFFFFFFFFFFFFFFF\t\t\tfunction setName(bytes32 _trou...\n      NOT \t\t\tfunction setName(bytes32 _trou...\n      AND \t\t\tfunction setName(bytes32 _trou...\n      SWAP1 \t\t\tfunction setName(bytes32 _trou...\n      PUSH 20\t\t\tfunction setName(bytes32 _trou...\n      ADD \t\t\tfunction setName(bytes32 _trou...\n      SWAP1 \t\t\tfunction setName(bytes32 _trou...\n      SWAP2 \t\t\tfunction setName(bytes32 _trou...\n      SWAP1 \t\t\tfunction setName(bytes32 _trou...\n      POP \t\t\tfunction setName(bytes32 _trou...\n      POP \t\t\tfunction setName(bytes32 _trou...\n      PUSH [tag] 87\t\t\tfunction setName(bytes32 _trou...\n      JUMP \t\t\tfunction setName(bytes32 _trou...\n    tag 86\t\t\tfunction setName(bytes32 _trou...\n      JUMPDEST \t\t\tfunction setName(bytes32 _trou...\n      STOP \t\t\tfunction setName(bytes32 _trou...\n    tag 27\t\t\tfunction setStrength(bytes32 _...\n      JUMPDEST \t\t\tfunction setStrength(bytes32 _...\n      PUSH 0\t\t\towner\n      DUP1 \t\t\towner\n      SWAP1 \t\t\towner\n      SLOAD \t\t\towner\n      SWAP1 \t\t\towner\n      PUSH 100\t\t\towner\n      EXP \t\t\towner\n      SWAP1 \t\t\towner\n      DIV \t\t\towner\n      PUSH FFFFFFFFFFFFFFFFFFFFFFFFFFFFFFFFFFFFFFFF\t\t\towner\n      AND \t\t\towner\n      PUSH FFFFFFFFFFFFFFFFFFFFFFFFFFFFFFFFFFFFFFFF\t\t\tmsg.sender == owner\n      AND \t\t\tmsg.sender == owner\n      CALLER \t\t\tmsg.sender\n      PUSH FFFFFFFFFFFFFFFFFFFFFFFFFFFFFFFFFFFFFFFF\t\t\tmsg.sender == owner\n      AND \t\t\tmsg.sender == owner\n      EQ \t\t\tmsg.sender == owner\n      ISZERO \t\t\trequire(msg.sender == owner)\n      ISZERO \t\t\trequire(msg.sender == owner)\n      PUSH [tag] 89\t\t\trequire(msg.sender == owner)\n      JUMPI \t\t\trequire(msg.sender == owner)\n      PUSH 0\t\t\trequire(msg.sender == owner)\n      DUP1 \t\t\trequire(msg.sender == owner)\n      REVERT \t\t\trequire(msg.sender == owner)\n    tag 89\t\t\trequire(msg.sender == owner)\n      JUMPDEST \t\t\trequire(msg.sender == owner)\n      PUSH 2\t\t\texists\n      PUSH 0\t\t\texists[_troupHash]\n      DUP4 \t\t\t_troupHash\n      PUSH 0\t\t\texists[_troupHash]\n      NOT \t\t\texists[_troupHash]\n      AND \t\t\texists[_troupHash]\n      PUSH 0\t\t\texists[_troupHash]\n      NOT \t\t\texists[_troupHash]\n      AND \t\t\texists[_troupHash]\n      DUP2 \t\t\texists[_troupHash]\n      MSTORE \t\t\texists[_troupHash]\n      PUSH 20\t\t\texists[_troupHash]\n      ADD \t\t\texists[_troupHash]\n      SWAP1 \t\t\texists[_troupHash]\n      DUP2 \t\t\texists[_troupHash]\n      MSTORE \t\t\texists[_troupHash]\n      PUSH 20\t\t\texists[_troupHash]\n      ADD \t\t\texists[_troupHash]\n      PUSH 0\t\t\texists[_troupHash]\n      KECCAK256 \t\t\texists[_troupHash]\n      PUSH 0\t\t\texists[_troupHash]\n      SWAP1 \t\t\texists[_troupHash]\n      SLOAD \t\t\texists[_troupHash]\n      SWAP1 \t\t\texists[_troupHash]\n      PUSH 100\t\t\texists[_troupHash]\n      EXP \t\t\texists[_troupHash]\n      SWAP1 \t\t\texists[_troupHash]\n      DIV \t\t\texists[_troupHash]\n      PUSH FF\t\t\texists[_troupHash]\n      AND \t\t\texists[_troupHash]\n      ISZERO \t\t\trequire(exists[_troupHash])\n      ISZERO \t\t\trequire(exists[_troupHash])\n      PUSH [tag] 90\t\t\trequire(exists[_troupHash])\n      JUMPI \t\t\trequire(exists[_troupHash])\n      PUSH 0\t\t\trequire(exists[_troupHash])\n      DUP1 \t\t\trequire(exists[_troupHash])\n      REVERT \t\t\trequire(exists[_troupHash])\n    tag 90\t\t\trequire(exists[_troupHash])\n      JUMPDEST \t\t\trequire(exists[_troupHash])\n      DUP1 \t\t\t_amount\n      PUSH 5\t\t\tstrength\n      PUSH 0\t\t\tstrength[_troupHash]\n      DUP5 \t\t\t_troupHash\n      PUSH 0\t\t\tstrength[_troupHash]\n      NOT \t\t\tstrength[_troupHash]\n      AND \t\t\tstrength[_troupHash]\n      PUSH 0\t\t\tstrength[_troupHash]\n      NOT \t\t\tstrength[_troupHash]\n      AND \t\t\tstrength[_troupHash]\n      DUP2 \t\t\tstrength[_troupHash]\n      MSTORE \t\t\tstrength[_troupHash]\n      PUSH 20\t\t\tstrength[_troupHash]\n      ADD \t\t\tstrength[_troupHash]\n      SWAP1 \t\t\tstrength[_troupHash]\n      DUP2 \t\t\tstrength[_troupHash]\n      MSTORE \t\t\tstrength[_troupHash]\n      PUSH 20\t\t\tstrength[_troupHash]\n      ADD \t\t\tstrength[_troupHash]\n      PUSH 0\t\t\tstrength[_troupHash]\n      KECCAK256 \t\t\tstrength[_troupHash]\n      DUP2 \t\t\tstrength[_troupHash] = _amount\n      SWAP1 \t\t\tstrength[_troupHash] = _amount\n      SSTORE \t\t\tstrength[_troupHash] = _amount\n      POP \t\t\tstrength[_troupHash] = _amount\n      POP \t\t\tfunction setStrength(bytes32 _...\n      POP \t\t\tfunction setStrength(bytes32 _...\n      JUMP [out]\t\t\tfunction setStrength(bytes32 _...\n    tag 30\t\t\tfunction setIntelligence(bytes...\n      JUMPDEST \t\t\tfunction setIntelligence(bytes...\n      PUSH 0\t\t\towner\n      DUP1 \t\t\towner\n      SWAP1 \t\t\towner\n      SLOAD \t\t\towner\n      SWAP1 \t\t\towner\n      PUSH 100\t\t\towner\n      EXP \t\t\towner\n      SWAP1 \t\t\towner\n      DIV \t\t\towner\n      PUSH FFFFFFFFFFFFFFFFFFFFFFFFFFFFFFFFFFFFFFFF\t\t\towner\n      AND \t\t\towner\n      PUSH FFFFFFFFFFFFFFFFFFFFFFFFFFFFFFFFFFFFFFFF\t\t\tmsg.sender == owner\n      AND \t\t\tmsg.sender == owner\n      CALLER \t\t\tmsg.sender\n      PUSH FFFFFFFFFFFFFFFFFFFFFFFFFFFFFFFFFFFFFFFF\t\t\tmsg.sender == owner\n      AND \t\t\tmsg.sender == owner\n      EQ \t\t\tmsg.sender == owner\n      ISZERO \t\t\trequire(msg.sender == owner)\n      ISZERO \t\t\trequire(msg.sender == owner)\n      PUSH [tag] 92\t\t\trequire(msg.sender == owner)\n      JUMPI \t\t\trequire(msg.sender == owner)\n      PUSH 0\t\t\trequire(msg.sender == owner)\n      DUP1 \t\t\trequire(msg.sender == owner)\n      REVERT \t\t\trequire(msg.sender == owner)\n    tag 92\t\t\trequire(msg.sender == owner)\n      JUMPDEST \t\t\trequire(msg.sender == owner)\n      PUSH 2\t\t\texists\n      PUSH 0\t\t\texists[_troupHash]\n      DUP4 \t\t\t_troupHash\n      PUSH 0\t\t\texists[_troupHash]\n      NOT \t\t\texists[_troupHash]\n      AND \t\t\texists[_troupHash]\n      PUSH 0\t\t\texists[_troupHash]\n      NOT \t\t\texists[_troupHash]\n      AND \t\t\texists[_troupHash]\n      DUP2 \t\t\texists[_troupHash]\n      MSTORE \t\t\texists[_troupHash]\n      PUSH 20\t\t\texists[_troupHash]\n      ADD \t\t\texists[_troupHash]\n      SWAP1 \t\t\texists[_troupHash]\n      DUP2 \t\t\texists[_troupHash]\n      MSTORE \t\t\texists[_troupHash]\n      PUSH 20\t\t\texists[_troupHash]\n      ADD \t\t\texists[_troupHash]\n      PUSH 0\t\t\texists[_troupHash]\n      KECCAK256 \t\t\texists[_troupHash]\n      PUSH 0\t\t\texists[_troupHash]\n      SWAP1 \t\t\texists[_troupHash]\n      SLOAD \t\t\texists[_troupHash]\n      SWAP1 \t\t\texists[_troupHash]\n      PUSH 100\t\t\texists[_troupHash]\n      EXP \t\t\texists[_troupHash]\n      SWAP1 \t\t\texists[_troupHash]\n      DIV \t\t\texists[_troupHash]\n      PUSH FF\t\t\texists[_troupHash]\n      AND \t\t\texists[_troupHash]\n      ISZERO \t\t\trequire(exists[_troupHash])\n      ISZERO \t\t\trequire(exists[_troupHash])\n      PUSH [tag] 93\t\t\trequire(exists[_troupHash])\n      JUMPI \t\t\trequire(exists[_troupHash])\n      PUSH 0\t\t\trequire(exists[_troupHash])\n      DUP1 \t\t\trequire(exists[_troupHash])\n      REVERT \t\t\trequire(exists[_troupHash])\n    tag 93\t\t\trequire(exists[_troupHash])\n      JUMPDEST \t\t\trequire(exists[_troupHash])\n      DUP1 \t\t\t_amount\n      PUSH 6\t\t\tintelligence\n      PUSH 0\t\t\tintelligence[_troupHash]\n      DUP5 \t\t\t_troupHash\n      PUSH 0\t\t\tintelligence[_troupHash]\n      NOT \t\t\tintelligence[_troupHash]\n      AND \t\t\tintelligence[_troupHash]\n      PUSH 0\t\t\tintelligence[_troupHash]\n      NOT \t\t\tintelligence[_troupHash]\n      AND \t\t\tintelligence[_troupHash]\n      DUP2 \t\t\tintelligence[_troupHash]\n      MSTORE \t\t\tintelligence[_troupHash]\n      PUSH 20\t\t\tintelligence[_troupHash]\n      ADD \t\t\tintelligence[_troupHash]\n      SWAP1 \t\t\tintelligence[_troupHash]\n      DUP2 \t\t\tintelligence[_troupHash]\n      MSTORE \t\t\tintelligence[_troupHash]\n      PUSH 20\t\t\tintelligence[_troupHash]\n      ADD \t\t\tintelligence[_troupHash]\n      PUSH 0\t\t\tintelligence[_troupHash]\n      KECCAK256 \t\t\tintelligence[_troupHash]\n      DUP2 \t\t\tintelligence[_troupHash] = _am...\n      SWAP1 \t\t\tintelligence[_troupHash] = _am...\n      SSTORE \t\t\tintelligence[_troupHash] = _am...\n      POP \t\t\tintelligence[_troupHash] = _am...\n      POP \t\t\tfunction setIntelligence(bytes...\n      POP \t\t\tfunction setIntelligence(bytes...\n      JUMP [out]\t\t\tfunction setIntelligence(bytes...\n    tag 33\t\t\tfunction getName(bytes32 _trou...\n      JUMPDEST \t\t\tfunction getName(bytes32 _trou...\n      PUSH 0\t\t\tbytes16\n      PUSH 2\t\t\texists\n      PUSH 0\t\t\texists[_troupHash]\n      DUP4 \t\t\t_troupHash\n      PUSH 0\t\t\texists[_troupHash]\n      NOT \t\t\texists[_troupHash]\n      AND \t\t\texists[_troupHash]\n      PUSH 0\t\t\texists[_troupHash]\n      NOT \t\t\texists[_troupHash]\n      AND \t\t\texists[_troupHash]\n      DUP2 \t\t\texists[_troupHash]\n      MSTORE \t\t\texists[_troupHash]\n      PUSH 20\t\t\texists[_troupHash]\n      ADD \t\t\texists[_troupHash]\n      SWAP1 \t\t\texists[_troupHash]\n      DUP2 \t\t\texists[_troupHash]\n      MSTORE \t\t\texists[_troupHash]\n      PUSH 20\t\t\texists[_troupHash]\n      ADD \t\t\texists[_troupHash]\n      PUSH 0\t\t\texists[_troupHash]\n      KECCAK256 \t\t\texists[_troupHash]\n      PUSH 0\t\t\texists[_troupHash]\n      SWAP1 \t\t\texists[_troupHash]\n      SLOAD \t\t\texists[_troupHash]\n      SWAP1 \t\t\texists[_troupHash]\n      PUSH 100\t\t\texists[_troupHash]\n      EXP \t\t\texists[_troupHash]\n      SWAP1 \t\t\texists[_troupHash]\n      DIV \t\t\texists[_troupHash]\n      PUSH FF\t\t\texists[_troupHash]\n      AND \t\t\texists[_troupHash]\n      ISZERO \t\t\trequire(exists[_troupHash])\n      ISZERO \t\t\trequire(exists[_troupHash])\n      PUSH [tag] 95\t\t\trequire(exists[_troupHash])\n      JUMPI \t\t\trequire(exists[_troupHash])\n      PUSH 0\t\t\trequire(exists[_troupHash])\n      DUP1 \t\t\trequire(exists[_troupHash])\n      REVERT \t\t\trequire(exists[_troupHash])\n    tag 95\t\t\trequire(exists[_troupHash])\n      JUMPDEST \t\t\trequire(exists[_troupHash])\n      PUSH 3\t\t\tnames\n      PUSH 0\t\t\tnames[_troupHash]\n      DUP4 \t\t\t_troupHash\n      PUSH 0\t\t\tnames[_troupHash]\n      NOT \t\t\tnames[_troupHash]\n      AND \t\t\tnames[_troupHash]\n      PUSH 0\t\t\tnames[_troupHash]\n      NOT \t\t\tnames[_troupHash]\n      AND \t\t\tnames[_troupHash]\n      DUP2 \t\t\tnames[_troupHash]\n      MSTORE \t\t\tnames[_troupHash]\n      PUSH 20\t\t\tnames[_troupHash]\n      ADD \t\t\tnames[_troupHash]\n      SWAP1 \t\t\tnames[_troupHash]\n      DUP2 \t\t\tnames[_troupHash]\n      MSTORE \t\t\tnames[_troupHash]\n      PUSH 20\t\t\tnames[_troupHash]\n      ADD \t\t\tnames[_troupHash]\n      PUSH 0\t\t\tnames[_troupHash]\n      KECCAK256 \t\t\tnames[_troupHash]\n      PUSH 0\t\t\tnames[_troupHash]\n      SWAP1 \t\t\tnames[_troupHash]\n      SLOAD \t\t\tnames[_troupHash]\n      SWAP1 \t\t\tnames[_troupHash]\n      PUSH 100\t\t\tnames[_troupHash]\n      EXP \t\t\tnames[_troupHash]\n      SWAP1 \t\t\tnames[_troupHash]\n      DIV \t\t\tnames[_troupHash]\n      PUSH 100000000000000000000000000000000\t\t\tnames[_troupHash]\n      MUL \t\t\tnames[_troupHash]\n      SWAP1 \t\t\treturn names[_troupHash]\n      POP \t\t\treturn names[_troupHash]\n      SWAP2 \t\t\tfunction getName(bytes32 _trou...\n      SWAP1 \t\t\tfunction getName(bytes32 _trou...\n      POP \t\t\tfunction getName(bytes32 _trou...\n      JUMP [out]\t\t\tfunction getName(bytes32 _trou...\n    tag 36\t\t\tfunction getStrength(bytes32 _...\n      JUMPDEST \t\t\tfunction getStrength(bytes32 _...\n      PUSH 0\t\t\tuint256\n      PUSH 2\t\t\texists\n      PUSH 0\t\t\texists[_troupHash]\n      DUP4 \t\t\t_troupHash\n      PUSH 0\t\t\texists[_troupHash]\n      NOT \t\t\texists[_troupHash]\n      AND \t\t\texists[_troupHash]\n      PUSH 0\t\t\texists[_troupHash]\n      NOT \t\t\texists[_troupHash]\n      AND \t\t\texists[_troupHash]\n      DUP2 \t\t\texists[_troupHash]\n      MSTORE \t\t\texists[_troupHash]\n      PUSH 20\t\t\texists[_troupHash]\n      ADD \t\t\texists[_troupHash]\n      SWAP1 \t\t\texists[_troupHash]\n      DUP2 \t\t\texists[_troupHash]\n      MSTORE \t\t\texists[_troupHash]\n      PUSH 20\t\t\texists[_troupHash]\n      ADD \t\t\texists[_troupHash]\n      PUSH 0\t\t\texists[_troupHash]\n      KECCAK256 \t\t\texists[_troupHash]\n      PUSH 0\t\t\texists[_troupHash]\n      SWAP1 \t\t\texists[_troupHash]\n      SLOAD \t\t\texists[_troupHash]\n      SWAP1 \t\t\texists[_troupHash]\n      PUSH 100\t\t\texists[_troupHash]\n      EXP \t\t\texists[_troupHash]\n      SWAP1 \t\t\texists[_troupHash]\n      DIV \t\t\texists[_troupHash]\n      PUSH FF\t\t\texists[_troupHash]\n      AND \t\t\texists[_troupHash]\n      ISZERO \t\t\trequire(exists[_troupHash])\n      ISZERO \t\t\trequire(exists[_troupHash])\n      PUSH [tag] 97\t\t\trequire(exists[_troupHash])\n      JUMPI \t\t\trequire(exists[_troupHash])\n      PUSH 0\t\t\trequire(exists[_troupHash])\n      DUP1 \t\t\trequire(exists[_troupHash])\n      REVERT \t\t\trequire(exists[_troupHash])\n    tag 97\t\t\trequire(exists[_troupHash])\n      JUMPDEST \t\t\trequire(exists[_troupHash])\n      PUSH 5\t\t\tstrength\n      PUSH 0\t\t\tstrength[_troupHash]\n      DUP4 \t\t\t_troupHash\n      PUSH 0\t\t\tstrength[_troupHash]\n      NOT \t\t\tstrength[_troupHash]\n      AND \t\t\tstrength[_troupHash]\n      PUSH 0\t\t\tstrength[_troupHash]\n      NOT \t\t\tstrength[_troupHash]\n      AND \t\t\tstrength[_troupHash]\n      DUP2 \t\t\tstrength[_troupHash]\n      MSTORE \t\t\tstrength[_troupHash]\n      PUSH 20\t\t\tstrength[_troupHash]\n      ADD \t\t\tstrength[_troupHash]\n      SWAP1 \t\t\tstrength[_troupHash]\n      DUP2 \t\t\tstrength[_troupHash]\n      MSTORE \t\t\tstrength[_troupHash]\n      PUSH 20\t\t\tstrength[_troupHash]\n      ADD \t\t\tstrength[_troupHash]\n      PUSH 0\t\t\tstrength[_troupHash]\n      KECCAK256 \t\t\tstrength[_troupHash]\n      SLOAD \t\t\tstrength[_troupHash]\n      SWAP1 \t\t\treturn strength[_troupHash]\n      POP \t\t\treturn strength[_troupHash]\n      SWAP2 \t\t\tfunction getStrength(bytes32 _...\n      SWAP1 \t\t\tfunction getStrength(bytes32 _...\n      POP \t\t\tfunction getStrength(bytes32 _...\n      JUMP [out]\t\t\tfunction getStrength(bytes32 _...\n    tag 39\t\t\tfunction getHash(uint256 _nonc...\n      JUMPDEST \t\t\tfunction getHash(uint256 _nonc...\n      PUSH 0\t\t\tbytes32\n      PUSH 1\t\t\ttroupHashes\n      DUP3 \t\t\t_nonce\n      DUP2 \t\t\ttroupHashes[_nonce]\n      SLOAD \t\t\ttroupHashes[_nonce]\n      DUP2 \t\t\ttroupHashes[_nonce]\n      LT \t\t\ttroupHashes[_nonce]\n      ISZERO \t\t\ttroupHashes[_nonce]\n      ISZERO \t\t\ttroupHashes[_nonce]\n      PUSH [tag] 99\t\t\ttroupHashes[_nonce]\n      JUMPI \t\t\ttroupHashes[_nonce]\n      INVALID \t\t\ttroupHashes[_nonce]\n    tag 99\t\t\ttroupHashes[_nonce]\n      JUMPDEST \t\t\ttroupHashes[_nonce]\n      SWAP1 \t\t\ttroupHashes[_nonce]\n      PUSH 0\t\t\ttroupHashes[_nonce]\n      MSTORE \t\t\ttroupHashes[_nonce]\n      PUSH 20\t\t\ttroupHashes[_nonce]\n      PUSH 0\t\t\ttroupHashes[_nonce]\n      KECCAK256 \t\t\ttroupHashes[_nonce]\n      SWAP1 \t\t\ttroupHashes[_nonce]\n      ADD \t\t\ttroupHashes[_nonce]\n      SLOAD \t\t\ttroupHashes[_nonce]\n      SWAP1 \t\t\treturn troupHashes[_nonce]\n      POP \t\t\treturn troupHashes[_nonce]\n      SWAP2 \t\t\tfunction getHash(uint256 _nonc...\n      SWAP1 \t\t\tfunction getHash(uint256 _nonc...\n      POP \t\t\tfunction getHash(uint256 _nonc...\n      JUMP [out]\t\t\tfunction getHash(uint256 _nonc...\n    tag 42\t\t\tfunction setStone(bytes32 _tro...\n      JUMPDEST \t\t\tfunction setStone(bytes32 _tro...\n      PUSH 0\t\t\towner\n      DUP1 \t\t\towner\n      SWAP1 \t\t\towner\n      SLOAD \t\t\towner\n      SWAP1 \t\t\towner\n      PUSH 100\t\t\towner\n      EXP \t\t\towner\n      SWAP1 \t\t\towner\n      DIV \t\t\towner\n      PUSH FFFFFFFFFFFFFFFFFFFFFFFFFFFFFFFFFFFFFFFF\t\t\towner\n      AND \t\t\towner\n      PUSH FFFFFFFFFFFFFFFFFFFFFFFFFFFFFFFFFFFFFFFF\t\t\tmsg.sender == owner\n      AND \t\t\tmsg.sender == owner\n      CALLER \t\t\tmsg.sender\n      PUSH FFFFFFFFFFFFFFFFFFFFFFFFFFFFFFFFFFFFFFFF\t\t\tmsg.sender == owner\n      AND \t\t\tmsg.sender == owner\n      EQ \t\t\tmsg.sender == owner\n      ISZERO \t\t\trequire(msg.sender == owner)\n      ISZERO \t\t\trequire(msg.sender == owner)\n      PUSH [tag] 102\t\t\trequire(msg.sender == owner)\n      JUMPI \t\t\trequire(msg.sender == owner)\n      PUSH 0\t\t\trequire(msg.sender == owner)\n      DUP1 \t\t\trequire(msg.sender == owner)\n      REVERT \t\t\trequire(msg.sender == owner)\n    tag 102\t\t\trequire(msg.sender == owner)\n      JUMPDEST \t\t\trequire(msg.sender == owner)\n      PUSH 2\t\t\texists\n      PUSH 0\t\t\texists[_troupHash]\n      DUP4 \t\t\t_troupHash\n      PUSH 0\t\t\texists[_troupHash]\n      NOT \t\t\texists[_troupHash]\n      AND \t\t\texists[_troupHash]\n      PUSH 0\t\t\texists[_troupHash]\n      NOT \t\t\texists[_troupHash]\n      AND \t\t\texists[_troupHash]\n      DUP2 \t\t\texists[_troupHash]\n      MSTORE \t\t\texists[_troupHash]\n      PUSH 20\t\t\texists[_troupHash]\n      ADD \t\t\texists[_troupHash]\n      SWAP1 \t\t\texists[_troupHash]\n      DUP2 \t\t\texists[_troupHash]\n      MSTORE \t\t\texists[_troupHash]\n      PUSH 20\t\t\texists[_troupHash]\n      ADD \t\t\texists[_troupHash]\n      PUSH 0\t\t\texists[_troupHash]\n      KECCAK256 \t\t\texists[_troupHash]\n      PUSH 0\t\t\texists[_troupHash]\n      SWAP1 \t\t\texists[_troupHash]\n      SLOAD \t\t\texists[_troupHash]\n      SWAP1 \t\t\texists[_troupHash]\n      PUSH 100\t\t\texists[_troupHash]\n      EXP \t\t\texists[_troupHash]\n      SWAP1 \t\t\texists[_troupHash]\n      DIV \t\t\texists[_troupHash]\n      PUSH FF\t\t\texists[_troupHash]\n      AND \t\t\texists[_troupHash]\n      ISZERO \t\t\trequire(exists[_troupHash])\n      ISZERO \t\t\trequire(exists[_troupHash])\n      PUSH [tag] 103\t\t\trequire(exists[_troupHash])\n      JUMPI \t\t\trequire(exists[_troupHash])\n      PUSH 0\t\t\trequire(exists[_troupHash])\n      DUP1 \t\t\trequire(exists[_troupHash])\n      REVERT \t\t\trequire(exists[_troupHash])\n    tag 103\t\t\trequire(exists[_troupHash])\n      JUMPDEST \t\t\trequire(exists[_troupHash])\n      DUP1 \t\t\t_amount\n      PUSH A\t\t\tstone\n      PUSH 0\t\t\tstone[_troupHash]\n      DUP5 \t\t\t_troupHash\n      PUSH 0\t\t\tstone[_troupHash]\n      NOT \t\t\tstone[_troupHash]\n      AND \t\t\tstone[_troupHash]\n      PUSH 0\t\t\tstone[_troupHash]\n      NOT \t\t\tstone[_troupHash]\n      AND \t\t\tstone[_troupHash]\n      DUP2 \t\t\tstone[_troupHash]\n      MSTORE \t\t\tstone[_troupHash]\n      PUSH 20\t\t\tstone[_troupHash]\n      ADD \t\t\tstone[_troupHash]\n      SWAP1 \t\t\tstone[_troupHash]\n      DUP2 \t\t\tstone[_troupHash]\n      MSTORE \t\t\tstone[_troupHash]\n      PUSH 20\t\t\tstone[_troupHash]\n      ADD \t\t\tstone[_troupHash]\n      PUSH 0\t\t\tstone[_troupHash]\n      KECCAK256 \t\t\tstone[_troupHash]\n      DUP2 \t\t\tstone[_troupHash] = _amount\n      SWAP1 \t\t\tstone[_troupHash] = _amount\n      SSTORE \t\t\tstone[_troupHash] = _amount\n      POP \t\t\tstone[_troupHash] = _amount\n      POP \t\t\tfunction setStone(bytes32 _tro...\n      POP \t\t\tfunction setStone(bytes32 _tro...\n      JUMP [out]\t\t\tfunction setStone(bytes32 _tro...\n    tag 45\t\t\tfunction setGold(bytes32 _trou...\n      JUMPDEST \t\t\tfunction setGold(bytes32 _trou...\n      PUSH 0\t\t\towner\n      DUP1 \t\t\towner\n      SWAP1 \t\t\towner\n      SLOAD \t\t\towner\n      SWAP1 \t\t\towner\n      PUSH 100\t\t\towner\n      EXP \t\t\towner\n      SWAP1 \t\t\towner\n      DIV \t\t\towner\n      PUSH FFFFFFFFFFFFFFFFFFFFFFFFFFFFFFFFFFFFFFFF\t\t\towner\n      AND \t\t\towner\n      PUSH FFFFFFFFFFFFFFFFFFFFFFFFFFFFFFFFFFFFFFFF\t\t\tmsg.sender == owner\n      AND \t\t\tmsg.sender == owner\n      CALLER \t\t\tmsg.sender\n      PUSH FFFFFFFFFFFFFFFFFFFFFFFFFFFFFFFFFFFFFFFF\t\t\tmsg.sender == owner\n      AND \t\t\tmsg.sender == owner\n      EQ \t\t\tmsg.sender == owner\n      ISZERO \t\t\trequire(msg.sender == owner)\n      ISZERO \t\t\trequire(msg.sender == owner)\n      PUSH [tag] 105\t\t\trequire(msg.sender == owner)\n      JUMPI \t\t\trequire(msg.sender == owner)\n      PUSH 0\t\t\trequire(msg.sender == owner)\n      DUP1 \t\t\trequire(msg.sender == owner)\n      REVERT \t\t\trequire(msg.sender == owner)\n    tag 105\t\t\trequire(msg.sender == owner)\n      JUMPDEST \t\t\trequire(msg.sender == owner)\n      PUSH 2\t\t\texists\n      PUSH 0\t\t\texists[_troupHash]\n      DUP4 \t\t\t_troupHash\n      PUSH 0\t\t\texists[_troupHash]\n      NOT \t\t\texists[_troupHash]\n      AND \t\t\texists[_troupHash]\n      PUSH 0\t\t\texists[_troupHash]\n      NOT \t\t\texists[_troupHash]\n      AND \t\t\texists[_troupHash]\n      DUP2 \t\t\texists[_troupHash]\n      MSTORE \t\t\texists[_troupHash]\n      PUSH 20\t\t\texists[_troupHash]\n      ADD \t\t\texists[_troupHash]\n      SWAP1 \t\t\texists[_troupHash]\n      DUP2 \t\t\texists[_troupHash]\n      MSTORE \t\t\texists[_troupHash]\n      PUSH 20\t\t\texists[_troupHash]\n      ADD \t\t\texists[_troupHash]\n      PUSH 0\t\t\texists[_troupHash]\n      KECCAK256 \t\t\texists[_troupHash]\n      PUSH 0\t\t\texists[_troupHash]\n      SWAP1 \t\t\texists[_troupHash]\n      SLOAD \t\t\texists[_troupHash]\n      SWAP1 \t\t\texists[_troupHash]\n      PUSH 100\t\t\texists[_troupHash]\n      EXP \t\t\texists[_troupHash]\n      SWAP1 \t\t\texists[_troupHash]\n      DIV \t\t\texists[_troupHash]\n      PUSH FF\t\t\texists[_troupHash]\n      AND \t\t\texists[_troupHash]\n      ISZERO \t\t\trequire(exists[_troupHash])\n      ISZERO \t\t\trequire(exists[_troupHash])\n      PUSH [tag] 106\t\t\trequire(exists[_troupHash])\n      JUMPI \t\t\trequire(exists[_troupHash])\n      PUSH 0\t\t\trequire(exists[_troupHash])\n      DUP1 \t\t\trequire(exists[_troupHash])\n      REVERT \t\t\trequire(exists[_troupHash])\n    tag 106\t\t\trequire(exists[_troupHash])\n      JUMPDEST \t\t\trequire(exists[_troupHash])\n      DUP1 \t\t\t_amount\n      PUSH 8\t\t\tgold\n      PUSH 0\t\t\tgold[_troupHash]\n      DUP5 \t\t\t_troupHash\n      PUSH 0\t\t\tgold[_troupHash]\n      NOT \t\t\tgold[_troupHash]\n      AND \t\t\tgold[_troupHash]\n      PUSH 0\t\t\tgold[_troupHash]\n      NOT \t\t\tgold[_troupHash]\n      AND \t\t\tgold[_troupHash]\n      DUP2 \t\t\tgold[_troupHash]\n      MSTORE \t\t\tgold[_troupHash]\n      PUSH 20\t\t\tgold[_troupHash]\n      ADD \t\t\tgold[_troupHash]\n      SWAP1 \t\t\tgold[_troupHash]\n      DUP2 \t\t\tgold[_troupHash]\n      MSTORE \t\t\tgold[_troupHash]\n      PUSH 20\t\t\tgold[_troupHash]\n      ADD \t\t\tgold[_troupHash]\n      PUSH 0\t\t\tgold[_troupHash]\n      KECCAK256 \t\t\tgold[_troupHash]\n      DUP2 \t\t\tgold[_troupHash] = _amount\n      SWAP1 \t\t\tgold[_troupHash] = _amount\n      SSTORE \t\t\tgold[_troupHash] = _amount\n      POP \t\t\tgold[_troupHash] = _amount\n      POP \t\t\tfunction setGold(bytes32 _trou...\n      POP \t\t\tfunction setGold(bytes32 _trou...\n      JUMP [out]\t\t\tfunction setGold(bytes32 _trou...\n    tag 48\t\t\tfunction setDexterity(bytes32 ...\n      JUMPDEST \t\t\tfunction setDexterity(bytes32 ...\n      PUSH 0\t\t\towner\n      DUP1 \t\t\towner\n      SWAP1 \t\t\towner\n      SLOAD \t\t\towner\n      SWAP1 \t\t\towner\n      PUSH 100\t\t\towner\n      EXP \t\t\towner\n      SWAP1 \t\t\towner\n      DIV \t\t\towner\n      PUSH FFFFFFFFFFFFFFFFFFFFFFFFFFFFFFFFFFFFFFFF\t\t\towner\n      AND \t\t\towner\n      PUSH FFFFFFFFFFFFFFFFFFFFFFFFFFFFFFFFFFFFFFFF\t\t\tmsg.sender == owner\n      AND \t\t\tmsg.sender == owner\n      CALLER \t\t\tmsg.sender\n      PUSH FFFFFFFFFFFFFFFFFFFFFFFFFFFFFFFFFFFFFFFF\t\t\tmsg.sender == owner\n      AND \t\t\tmsg.sender == owner\n      EQ \t\t\tmsg.sender == owner\n      ISZERO \t\t\trequire(msg.sender == owner)\n      ISZERO \t\t\trequire(msg.sender == owner)\n      PUSH [tag] 108\t\t\trequire(msg.sender == owner)\n      JUMPI \t\t\trequire(msg.sender == owner)\n      PUSH 0\t\t\trequire(msg.sender == owner)\n      DUP1 \t\t\trequire(msg.sender == owner)\n      REVERT \t\t\trequire(msg.sender == owner)\n    tag 108\t\t\trequire(msg.sender == owner)\n      JUMPDEST \t\t\trequire(msg.sender == owner)\n      PUSH 2\t\t\texists\n      PUSH 0\t\t\texists[_troupHash]\n      DUP4 \t\t\t_troupHash\n      PUSH 0\t\t\texists[_troupHash]\n      NOT \t\t\texists[_troupHash]\n      AND \t\t\texists[_troupHash]\n      PUSH 0\t\t\texists[_troupHash]\n      NOT \t\t\texists[_troupHash]\n      AND \t\t\texists[_troupHash]\n      DUP2 \t\t\texists[_troupHash]\n      MSTORE \t\t\texists[_troupHash]\n      PUSH 20\t\t\texists[_troupHash]\n      ADD \t\t\texists[_troupHash]\n      SWAP1 \t\t\texists[_troupHash]\n      DUP2 \t\t\texists[_troupHash]\n      MSTORE \t\t\texists[_troupHash]\n      PUSH 20\t\t\texists[_troupHash]\n      ADD \t\t\texists[_troupHash]\n      PUSH 0\t\t\texists[_troupHash]\n      KECCAK256 \t\t\texists[_troupHash]\n      PUSH 0\t\t\texists[_troupHash]\n      SWAP1 \t\t\texists[_troupHash]\n      SLOAD \t\t\texists[_troupHash]\n      SWAP1 \t\t\texists[_troupHash]\n      PUSH 100\t\t\texists[_troupHash]\n      EXP \t\t\texists[_troupHash]\n      SWAP1 \t\t\texists[_troupHash]\n      DIV \t\t\texists[_troupHash]\n      PUSH FF\t\t\texists[_troupHash]\n      AND \t\t\texists[_troupHash]\n      ISZERO \t\t\trequire(exists[_troupHash])\n      ISZERO \t\t\trequire(exists[_troupHash])\n      PUSH [tag] 109\t\t\trequire(exists[_troupHash])\n      JUMPI \t\t\trequire(exists[_troupHash])\n      PUSH 0\t\t\trequire(exists[_troupHash])\n      DUP1 \t\t\trequire(exists[_troupHash])\n      REVERT \t\t\trequire(exists[_troupHash])\n    tag 109\t\t\trequire(exists[_troupHash])\n      JUMPDEST \t\t\trequire(exists[_troupHash])\n      DUP1 \t\t\t_amount\n      PUSH 7\t\t\tdexterity\n      PUSH 0\t\t\tdexterity[_troupHash]\n      DUP5 \t\t\t_troupHash\n      PUSH 0\t\t\tdexterity[_troupHash]\n      NOT \t\t\tdexterity[_troupHash]\n      AND \t\t\tdexterity[_troupHash]\n      PUSH 0\t\t\tdexterity[_troupHash]\n      NOT \t\t\tdexterity[_troupHash]\n      AND \t\t\tdexterity[_troupHash]\n      DUP2 \t\t\tdexterity[_troupHash]\n      MSTORE \t\t\tdexterity[_troupHash]\n      PUSH 20\t\t\tdexterity[_troupHash]\n      ADD \t\t\tdexterity[_troupHash]\n      SWAP1 \t\t\tdexterity[_troupHash]\n      DUP2 \t\t\tdexterity[_troupHash]\n      MSTORE \t\t\tdexterity[_troupHash]\n      PUSH 20\t\t\tdexterity[_troupHash]\n      ADD \t\t\tdexterity[_troupHash]\n      PUSH 0\t\t\tdexterity[_troupHash]\n      KECCAK256 \t\t\tdexterity[_troupHash]\n      DUP2 \t\t\tdexterity[_troupHash] = _amoun...\n      SWAP1 \t\t\tdexterity[_troupHash] = _amoun...\n      SSTORE \t\t\tdexterity[_troupHash] = _amoun...\n      POP \t\t\tdexterity[_troupHash] = _amoun...\n      POP \t\t\tfunction setDexterity(bytes32 ...\n      POP \t\t\tfunction setDexterity(bytes32 ...\n      JUMP [out]\t\t\tfunction setDexterity(bytes32 ...\n    tag 51\t\t\tfunction getIntelligence(bytes...\n      JUMPDEST \t\t\tfunction getIntelligence(bytes...\n      PUSH 0\t\t\tuint256\n      PUSH 2\t\t\texists\n      PUSH 0\t\t\texists[_troupHash]\n      DUP4 \t\t\t_troupHash\n      PUSH 0\t\t\texists[_troupHash]\n      NOT \t\t\texists[_troupHash]\n      AND \t\t\texists[_troupHash]\n      PUSH 0\t\t\texists[_troupHash]\n      NOT \t\t\texists[_troupHash]\n      AND \t\t\texists[_troupHash]\n      DUP2 \t\t\texists[_troupHash]\n      MSTORE \t\t\texists[_troupHash]\n      PUSH 20\t\t\texists[_troupHash]\n      ADD \t\t\texists[_troupHash]\n      SWAP1 \t\t\texists[_troupHash]\n      DUP2 \t\t\texists[_troupHash]\n      MSTORE \t\t\texists[_troupHash]\n      PUSH 20\t\t\texists[_troupHash]\n      ADD \t\t\texists[_troupHash]\n      PUSH 0\t\t\texists[_troupHash]\n      KECCAK256 \t\t\texists[_troupHash]\n      PUSH 0\t\t\texists[_troupHash]\n      SWAP1 \t\t\texists[_troupHash]\n      SLOAD \t\t\texists[_troupHash]\n      SWAP1 \t\t\texists[_troupHash]\n      PUSH 100\t\t\texists[_troupHash]\n      EXP \t\t\texists[_troupHash]\n      SWAP1 \t\t\texists[_troupHash]\n      DIV \t\t\texists[_troupHash]\n      PUSH FF\t\t\texists[_troupHash]\n      AND \t\t\texists[_troupHash]\n      ISZERO \t\t\trequire(exists[_troupHash])\n      ISZERO \t\t\trequire(exists[_troupHash])\n      PUSH [tag] 111\t\t\trequire(exists[_troupHash])\n      JUMPI \t\t\trequire(exists[_troupHash])\n      PUSH 0\t\t\trequire(exists[_troupHash])\n      DUP1 \t\t\trequire(exists[_troupHash])\n      REVERT \t\t\trequire(exists[_troupHash])\n    tag 111\t\t\trequire(exists[_troupHash])\n      JUMPDEST \t\t\trequire(exists[_troupHash])\n      PUSH 6\t\t\tintelligence\n      PUSH 0\t\t\tintelligence[_troupHash]\n      DUP4 \t\t\t_troupHash\n      PUSH 0\t\t\tintelligence[_troupHash]\n      NOT \t\t\tintelligence[_troupHash]\n      AND \t\t\tintelligence[_troupHash]\n      PUSH 0\t\t\tintelligence[_troupHash]\n      NOT \t\t\tintelligence[_troupHash]\n      AND \t\t\tintelligence[_troupHash]\n      DUP2 \t\t\tintelligence[_troupHash]\n      MSTORE \t\t\tintelligence[_troupHash]\n      PUSH 20\t\t\tintelligence[_troupHash]\n      ADD \t\t\tintelligence[_troupHash]\n      SWAP1 \t\t\tintelligence[_troupHash]\n      DUP2 \t\t\tintelligence[_troupHash]\n      MSTORE \t\t\tintelligence[_troupHash]\n      PUSH 20\t\t\tintelligence[_troupHash]\n      ADD \t\t\tintelligence[_troupHash]\n      PUSH 0\t\t\tintelligence[_troupHash]\n      KECCAK256 \t\t\tintelligence[_troupHash]\n      SLOAD \t\t\tintelligence[_troupHash]\n      SWAP1 \t\t\treturn intelligence[_troupHash...\n      POP \t\t\treturn intelligence[_troupHash...\n      SWAP2 \t\t\tfunction getIntelligence(bytes...\n      SWAP1 \t\t\tfunction getIntelligence(bytes...\n      POP \t\t\tfunction getIntelligence(bytes...\n      JUMP [out]\t\t\tfunction getIntelligence(bytes...\n    tag 54\t\t\tfunction createTroup(bytes32 _...\n      JUMPDEST \t\t\tfunction createTroup(bytes32 _...\n      PUSH 0\t\t\towner\n      DUP1 \t\t\towner\n      SWAP1 \t\t\towner\n      SLOAD \t\t\towner\n      SWAP1 \t\t\towner\n      PUSH 100\t\t\towner\n      EXP \t\t\towner\n      SWAP1 \t\t\towner\n      DIV \t\t\towner\n      PUSH FFFFFFFFFFFFFFFFFFFFFFFFFFFFFFFFFFFFFFFF\t\t\towner\n      AND \t\t\towner\n      PUSH FFFFFFFFFFFFFFFFFFFFFFFFFFFFFFFFFFFFFFFF\t\t\tmsg.sender == owner\n      AND \t\t\tmsg.sender == owner\n      CALLER \t\t\tmsg.sender\n      PUSH FFFFFFFFFFFFFFFFFFFFFFFFFFFFFFFFFFFFFFFF\t\t\tmsg.sender == owner\n      AND \t\t\tmsg.sender == owner\n      EQ \t\t\tmsg.sender == owner\n      ISZERO \t\t\trequire(msg.sender == owner)\n      ISZERO \t\t\trequire(msg.sender == owner)\n      PUSH [tag] 113\t\t\trequire(msg.sender == owner)\n      JUMPI \t\t\trequire(msg.sender == owner)\n      PUSH 0\t\t\trequire(msg.sender == owner)\n      DUP1 \t\t\trequire(msg.sender == owner)\n      REVERT \t\t\trequire(msg.sender == owner)\n    tag 113\t\t\trequire(msg.sender == owner)\n      JUMPDEST \t\t\trequire(msg.sender == owner)\n      PUSH 2\t\t\texists\n      PUSH 0\t\t\texists[_troupHash]\n      DUP3 \t\t\t_troupHash\n      PUSH 0\t\t\texists[_troupHash]\n      NOT \t\t\texists[_troupHash]\n      AND \t\t\texists[_troupHash]\n      PUSH 0\t\t\texists[_troupHash]\n      NOT \t\t\texists[_troupHash]\n      AND \t\t\texists[_troupHash]\n      DUP2 \t\t\texists[_troupHash]\n      MSTORE \t\t\texists[_troupHash]\n      PUSH 20\t\t\texists[_troupHash]\n      ADD \t\t\texists[_troupHash]\n      SWAP1 \t\t\texists[_troupHash]\n      DUP2 \t\t\texists[_troupHash]\n      MSTORE \t\t\texists[_troupHash]\n      PUSH 20\t\t\texists[_troupHash]\n      ADD \t\t\texists[_troupHash]\n      PUSH 0\t\t\texists[_troupHash]\n      KECCAK256 \t\t\texists[_troupHash]\n      PUSH 0\t\t\texists[_troupHash]\n      SWAP1 \t\t\texists[_troupHash]\n      SLOAD \t\t\texists[_troupHash]\n      SWAP1 \t\t\texists[_troupHash]\n      PUSH 100\t\t\texists[_troupHash]\n      EXP \t\t\texists[_troupHash]\n      SWAP1 \t\t\texists[_troupHash]\n      DIV \t\t\texists[_troupHash]\n      PUSH FF\t\t\texists[_troupHash]\n      AND \t\t\texists[_troupHash]\n      ISZERO \t\t\t!exists[_troupHash]\n      ISZERO \t\t\trequire(!exists[_troupHash])\n      ISZERO \t\t\trequire(!exists[_troupHash])\n      PUSH [tag] 114\t\t\trequire(!exists[_troupHash])\n      JUMPI \t\t\trequire(!exists[_troupHash])\n      PUSH 0\t\t\trequire(!exists[_troupHash])\n      DUP1 \t\t\trequire(!exists[_troupHash])\n      REVERT \t\t\trequire(!exists[_troupHash])\n    tag 114\t\t\trequire(!exists[_troupHash])\n      JUMPDEST \t\t\trequire(!exists[_troupHash])\n      PUSH 1\t\t\ttroupHashes\n      DUP1 \t\t\ttroupHashes.push(_troupHash)\n      SLOAD \t\t\ttroupHashes.push(_troupHash)\n      DUP1 \t\t\ttroupHashes.push(_troupHash)\n      PUSH 1\t\t\ttroupHashes.push(_troupHash)\n      ADD \t\t\ttroupHashes.push(_troupHash)\n      DUP3 \t\t\ttroupHashes.push(_troupHash)\n      DUP2 \t\t\ttroupHashes.push(_troupHash)\n      PUSH [tag] 115\t\t\ttroupHashes.push(_troupHash)\n      SWAP2 \t\t\ttroupHashes.push(_troupHash)\n      SWAP1 \t\t\ttroupHashes.push(_troupHash)\n      PUSH [tag] 116\t\t\ttroupHashes.push(_troupHash)\n      JUMP [in]\t\t\ttroupHashes.push(_troupHash)\n    tag 115\t\t\ttroupHashes.push(_troupHash)\n      JUMPDEST \t\t\ttroupHashes.push(_troupHash)\n      SWAP2 \t\t\ttroupHashes.push(_troupHash)\n      PUSH 0\t\t\ttroupHashes.push(_troupHash)\n      MSTORE \t\t\ttroupHashes.push(_troupHash)\n      PUSH 20\t\t\ttroupHashes.push(_troupHash)\n      PUSH 0\t\t\ttroupHashes.push(_troupHash)\n      KECCAK256 \t\t\ttroupHashes.push(_troupHash)\n      SWAP1 \t\t\ttroupHashes.push(_troupHash)\n      ADD \t\t\ttroupHashes.push(_troupHash)\n      PUSH 0\t\t\ttroupHashes.push(_troupHash)\n      DUP4 \t\t\t_troupHash\n      SWAP1 \t\t\ttroupHashes.push(_troupHash)\n      SWAP2 \t\t\ttroupHashes.push(_troupHash)\n      SWAP1 \t\t\ttroupHashes.push(_troupHash)\n      SWAP2 \t\t\ttroupHashes.push(_troupHash)\n      POP \t\t\ttroupHashes.push(_troupHash)\n      SWAP1 \t\t\ttroupHashes.push(_troupHash)\n      PUSH 0\t\t\ttroupHashes.push(_troupHash)\n      NOT \t\t\ttroupHashes.push(_troupHash)\n      AND \t\t\ttroupHashes.push(_troupHash)\n      SWAP1 \t\t\ttroupHashes.push(_troupHash)\n      SSTORE \t\t\ttroupHashes.push(_troupHash)\n      POP \t\t\ttroupHashes.push(_troupHash)\n      PUSH 1\t\t\ttrue\n      PUSH 2\t\t\texists\n      PUSH 0\t\t\texists[_troupHash]\n      DUP4 \t\t\t_troupHash\n      PUSH 0\t\t\texists[_troupHash]\n      NOT \t\t\texists[_troupHash]\n      AND \t\t\texists[_troupHash]\n      PUSH 0\t\t\texists[_troupHash]\n      NOT \t\t\texists[_troupHash]\n      AND \t\t\texists[_troupHash]\n      DUP2 \t\t\texists[_troupHash]\n      MSTORE \t\t\texists[_troupHash]\n      PUSH 20\t\t\texists[_troupHash]\n      ADD \t\t\texists[_troupHash]\n      SWAP1 \t\t\texists[_troupHash]\n      DUP2 \t\t\texists[_troupHash]\n      MSTORE \t\t\texists[_troupHash]\n      PUSH 20\t\t\texists[_troupHash]\n      ADD \t\t\texists[_troupHash]\n      PUSH 0\t\t\texists[_troupHash]\n      KECCAK256 \t\t\texists[_troupHash]\n      PUSH 0\t\t\texists[_troupHash]\n      PUSH 100\t\t\texists[_troupHash] = true\n      EXP \t\t\texists[_troupHash] = true\n      DUP2 \t\t\texists[_troupHash] = true\n      SLOAD \t\t\texists[_troupHash] = true\n      DUP2 \t\t\texists[_troupHash] = true\n      PUSH FF\t\t\texists[_troupHash] = true\n      MUL \t\t\texists[_troupHash] = true\n      NOT \t\t\texists[_troupHash] = true\n      AND \t\t\texists[_troupHash] = true\n      SWAP1 \t\t\texists[_troupHash] = true\n      DUP4 \t\t\texists[_troupHash] = true\n      ISZERO \t\t\texists[_troupHash] = true\n      ISZERO \t\t\texists[_troupHash] = true\n      MUL \t\t\texists[_troupHash] = true\n      OR \t\t\texists[_troupHash] = true\n      SWAP1 \t\t\texists[_troupHash] = true\n      SSTORE \t\t\texists[_troupHash] = true\n      POP \t\t\texists[_troupHash] = true\n      POP \t\t\tfunction createTroup(bytes32 _...\n      JUMP [out]\t\t\tfunction createTroup(bytes32 _...\n    tag 57\t\t\tfunction getLife(bytes32 _trou...\n      JUMPDEST \t\t\tfunction getLife(bytes32 _trou...\n      PUSH 0\t\t\tuint256\n      PUSH 2\t\t\texists\n      PUSH 0\t\t\texists[_troupHash]\n      DUP4 \t\t\t_troupHash\n      PUSH 0\t\t\texists[_troupHash]\n      NOT \t\t\texists[_troupHash]\n      AND \t\t\texists[_troupHash]\n      PUSH 0\t\t\texists[_troupHash]\n      NOT \t\t\texists[_troupHash]\n      AND \t\t\texists[_troupHash]\n      DUP2 \t\t\texists[_troupHash]\n      MSTORE \t\t\texists[_troupHash]\n      PUSH 20\t\t\texists[_troupHash]\n      ADD \t\t\texists[_troupHash]\n      SWAP1 \t\t\texists[_troupHash]\n      DUP2 \t\t\texists[_troupHash]\n      MSTORE \t\t\texists[_troupHash]\n      PUSH 20\t\t\texists[_troupHash]\n      ADD \t\t\texists[_troupHash]\n      PUSH 0\t\t\texists[_troupHash]\n      KECCAK256 \t\t\texists[_troupHash]\n      PUSH 0\t\t\texists[_troupHash]\n      SWAP1 \t\t\texists[_troupHash]\n      SLOAD \t\t\texists[_troupHash]\n      SWAP1 \t\t\texists[_troupHash]\n      PUSH 100\t\t\texists[_troupHash]\n      EXP \t\t\texists[_troupHash]\n      SWAP1 \t\t\texists[_troupHash]\n      DIV \t\t\texists[_troupHash]\n      PUSH FF\t\t\texists[_troupHash]\n      AND \t\t\texists[_troupHash]\n      ISZERO \t\t\trequire(exists[_troupHash])\n      ISZERO \t\t\trequire(exists[_troupHash])\n      PUSH [tag] 119\t\t\trequire(exists[_troupHash])\n      JUMPI \t\t\trequire(exists[_troupHash])\n      PUSH 0\t\t\trequire(exists[_troupHash])\n      DUP1 \t\t\trequire(exists[_troupHash])\n      REVERT \t\t\trequire(exists[_troupHash])\n    tag 119\t\t\trequire(exists[_troupHash])\n      JUMPDEST \t\t\trequire(exists[_troupHash])\n      PUSH 4\t\t\tlife\n      PUSH 0\t\t\tlife[_troupHash]\n      DUP4 \t\t\t_troupHash\n      PUSH 0\t\t\tlife[_troupHash]\n      NOT \t\t\tlife[_troupHash]\n      AND \t\t\tlife[_troupHash]\n      PUSH 0\t\t\tlife[_troupHash]\n      NOT \t\t\tlife[_troupHash]\n      AND \t\t\tlife[_troupHash]\n      DUP2 \t\t\tlife[_troupHash]\n      MSTORE \t\t\tlife[_troupHash]\n      PUSH 20\t\t\tlife[_troupHash]\n      ADD \t\t\tlife[_troupHash]\n      SWAP1 \t\t\tlife[_troupHash]\n      DUP2 \t\t\tlife[_troupHash]\n      MSTORE \t\t\tlife[_troupHash]\n      PUSH 20\t\t\tlife[_troupHash]\n      ADD \t\t\tlife[_troupHash]\n      PUSH 0\t\t\tlife[_troupHash]\n      KECCAK256 \t\t\tlife[_troupHash]\n      SLOAD \t\t\tlife[_troupHash]\n      SWAP1 \t\t\treturn life[_troupHash]\n      POP \t\t\treturn life[_troupHash]\n      SWAP2 \t\t\tfunction getLife(bytes32 _trou...\n      SWAP1 \t\t\tfunction getLife(bytes32 _trou...\n      POP \t\t\tfunction getLife(bytes32 _trou...\n      JUMP [out]\t\t\tfunction getLife(bytes32 _trou...\n    tag 60\t\t\taddress public owner\n      JUMPDEST \t\t\taddress public owner\n      PUSH 0\t\t\taddress public owner\n      DUP1 \t\t\taddress public owner\n      SWAP1 \t\t\taddress public owner\n      SLOAD \t\t\taddress public owner\n      SWAP1 \t\t\taddress public owner\n      PUSH 100\t\t\taddress public owner\n      EXP \t\t\taddress public owner\n      SWAP1 \t\t\taddress public owner\n      DIV \t\t\taddress public owner\n      PUSH FFFFFFFFFFFFFFFFFFFFFFFFFFFFFFFFFFFFFFFF\t\t\taddress public owner\n      AND \t\t\taddress public owner\n      DUP2 \t\t\taddress public owner\n      JUMP [out]\t\t\taddress public owner\n    tag 63\t\t\tfunction getDexterity(bytes32 ...\n      JUMPDEST \t\t\tfunction getDexterity(bytes32 ...\n      PUSH 0\t\t\tuint256\n      PUSH 2\t\t\texists\n      PUSH 0\t\t\texists[_troupHash]\n      DUP4 \t\t\t_troupHash\n      PUSH 0\t\t\texists[_troupHash]\n      NOT \t\t\texists[_troupHash]\n      AND \t\t\texists[_troupHash]\n      PUSH 0\t\t\texists[_troupHash]\n      NOT \t\t\texists[_troupHash]\n      AND \t\t\texists[_troupHash]\n      DUP2 \t\t\texists[_troupHash]\n      MSTORE \t\t\texists[_troupHash]\n      PUSH 20\t\t\texists[_troupHash]\n      ADD \t\t\texists[_troupHash]\n      SWAP1 \t\t\texists[_troupHash]\n      DUP2 \t\t\texists[_troupHash]\n      MSTORE \t\t\texists[_troupHash]\n      PUSH 20\t\t\texists[_troupHash]\n      ADD \t\t\texists[_troupHash]\n      PUSH 0\t\t\texists[_troupHash]\n      KECCAK256 \t\t\texists[_troupHash]\n      PUSH 0\t\t\texists[_troupHash]\n      SWAP1 \t\t\texists[_troupHash]\n      SLOAD \t\t\texists[_troupHash]\n      SWAP1 \t\t\texists[_troupHash]\n      PUSH 100\t\t\texists[_troupHash]\n      EXP \t\t\texists[_troupHash]\n      SWAP1 \t\t\texists[_troupHash]\n      DIV \t\t\texists[_troupHash]\n      PUSH FF\t\t\texists[_troupHash]\n      AND \t\t\texists[_troupHash]\n      ISZERO \t\t\trequire(exists[_troupHash])\n      ISZERO \t\t\trequire(exists[_troupHash])\n      PUSH [tag] 121\t\t\trequire(exists[_troupHash])\n      JUMPI \t\t\trequire(exists[_troupHash])\n      PUSH 0\t\t\trequire(exists[_troupHash])\n      DUP1 \t\t\trequire(exists[_troupHash])\n      REVERT \t\t\trequire(exists[_troupHash])\n    tag 121\t\t\trequire(exists[_troupHash])\n      JUMPDEST \t\t\trequire(exists[_troupHash])\n      PUSH 7\t\t\tdexterity\n      PUSH 0\t\t\tdexterity[_troupHash]\n      DUP4 \t\t\t_troupHash\n      PUSH 0\t\t\tdexterity[_troupHash]\n      NOT \t\t\tdexterity[_troupHash]\n      AND \t\t\tdexterity[_troupHash]\n      PUSH 0\t\t\tdexterity[_troupHash]\n      NOT \t\t\tdexterity[_troupHash]\n      AND \t\t\tdexterity[_troupHash]\n      DUP2 \t\t\tdexterity[_troupHash]\n      MSTORE \t\t\tdexterity[_troupHash]\n      PUSH 20\t\t\tdexterity[_troupHash]\n      ADD \t\t\tdexterity[_troupHash]\n      SWAP1 \t\t\tdexterity[_troupHash]\n      DUP2 \t\t\tdexterity[_troupHash]\n      MSTORE \t\t\tdexterity[_troupHash]\n      PUSH 20\t\t\tdexterity[_troupHash]\n      ADD \t\t\tdexterity[_troupHash]\n      PUSH 0\t\t\tdexterity[_troupHash]\n      KECCAK256 \t\t\tdexterity[_troupHash]\n      SLOAD \t\t\tdexterity[_troupHash]\n      SWAP1 \t\t\treturn dexterity[_troupHash]\n      POP \t\t\treturn dexterity[_troupHash]\n      SWAP2 \t\t\tfunction getDexterity(bytes32 ...\n      SWAP1 \t\t\tfunction getDexterity(bytes32 ...\n      POP \t\t\tfunction getDexterity(bytes32 ...\n      JUMP [out]\t\t\tfunction getDexterity(bytes32 ...\n    tag 66\t\t\tfunction setWood(bytes32 _trou...\n      JUMPDEST \t\t\tfunction setWood(bytes32 _trou...\n      PUSH 0\t\t\towner\n      DUP1 \t\t\towner\n      SWAP1 \t\t\towner\n      SLOAD \t\t\towner\n      SWAP1 \t\t\towner\n      PUSH 100\t\t\towner\n      EXP \t\t\towner\n      SWAP1 \t\t\towner\n      DIV \t\t\towner\n      PUSH FFFFFFFFFFFFFFFFFFFFFFFFFFFFFFFFFFFFFFFF\t\t\towner\n      AND \t\t\towner\n      PUSH FFFFFFFFFFFFFFFFFFFFFFFFFFFFFFFFFFFFFFFF\t\t\tmsg.sender == owner\n      AND \t\t\tmsg.sender == owner\n      CALLER \t\t\tmsg.sender\n      PUSH FFFFFFFFFFFFFFFFFFFFFFFFFFFFFFFFFFFFFFFF\t\t\tmsg.sender == owner\n      AND \t\t\tmsg.sender == owner\n      EQ \t\t\tmsg.sender == owner\n      ISZERO \t\t\trequire(msg.sender == owner)\n      ISZERO \t\t\trequire(msg.sender == owner)\n      PUSH [tag] 123\t\t\trequire(msg.sender == owner)\n      JUMPI \t\t\trequire(msg.sender == owner)\n      PUSH 0\t\t\trequire(msg.sender == owner)\n      DUP1 \t\t\trequire(msg.sender == owner)\n      REVERT \t\t\trequire(msg.sender == owner)\n    tag 123\t\t\trequire(msg.sender == owner)\n      JUMPDEST \t\t\trequire(msg.sender == owner)\n      PUSH 2\t\t\texists\n      PUSH 0\t\t\texists[_troupHash]\n      DUP4 \t\t\t_troupHash\n      PUSH 0\t\t\texists[_troupHash]\n      NOT \t\t\texists[_troupHash]\n      AND \t\t\texists[_troupHash]\n      PUSH 0\t\t\texists[_troupHash]\n      NOT \t\t\texists[_troupHash]\n      AND \t\t\texists[_troupHash]\n      DUP2 \t\t\texists[_troupHash]\n      MSTORE \t\t\texists[_troupHash]\n      PUSH 20\t\t\texists[_troupHash]\n      ADD \t\t\texists[_troupHash]\n      SWAP1 \t\t\texists[_troupHash]\n      DUP2 \t\t\texists[_troupHash]\n      MSTORE \t\t\texists[_troupHash]\n      PUSH 20\t\t\texists[_troupHash]\n      ADD \t\t\texists[_troupHash]\n      PUSH 0\t\t\texists[_troupHash]\n      KECCAK256 \t\t\texists[_troupHash]\n      PUSH 0\t\t\texists[_troupHash]\n      SWAP1 \t\t\texists[_troupHash]\n      SLOAD \t\t\texists[_troupHash]\n      SWAP1 \t\t\texists[_troupHash]\n      PUSH 100\t\t\texists[_troupHash]\n      EXP \t\t\texists[_troupHash]\n      SWAP1 \t\t\texists[_troupHash]\n      DIV \t\t\texists[_troupHash]\n      PUSH FF\t\t\texists[_troupHash]\n      AND \t\t\texists[_troupHash]\n      ISZERO \t\t\trequire(exists[_troupHash])\n      ISZERO \t\t\trequire(exists[_troupHash])\n      PUSH [tag] 124\t\t\trequire(exists[_troupHash])\n      JUMPI \t\t\trequire(exists[_troupHash])\n      PUSH 0\t\t\trequire(exists[_troupHash])\n      DUP1 \t\t\trequire(exists[_troupHash])\n      REVERT \t\t\trequire(exists[_troupHash])\n    tag 124\t\t\trequire(exists[_troupHash])\n      JUMPDEST \t\t\trequire(exists[_troupHash])\n      DUP1 \t\t\t_amount\n      PUSH 9\t\t\twood\n      PUSH 0\t\t\twood[_troupHash]\n      DUP5 \t\t\t_troupHash\n      PUSH 0\t\t\twood[_troupHash]\n      NOT \t\t\twood[_troupHash]\n      AND \t\t\twood[_troupHash]\n      PUSH 0\t\t\twood[_troupHash]\n      NOT \t\t\twood[_troupHash]\n      AND \t\t\twood[_troupHash]\n      DUP2 \t\t\twood[_troupHash]\n      MSTORE \t\t\twood[_troupHash]\n      PUSH 20\t\t\twood[_troupHash]\n      ADD \t\t\twood[_troupHash]\n      SWAP1 \t\t\twood[_troupHash]\n      DUP2 \t\t\twood[_troupHash]\n      MSTORE \t\t\twood[_troupHash]\n      PUSH 20\t\t\twood[_troupHash]\n      ADD \t\t\twood[_troupHash]\n      PUSH 0\t\t\twood[_troupHash]\n      KECCAK256 \t\t\twood[_troupHash]\n      DUP2 \t\t\twood[_troupHash] = _amount\n      SWAP1 \t\t\twood[_troupHash] = _amount\n      SSTORE \t\t\twood[_troupHash] = _amount\n      POP \t\t\twood[_troupHash] = _amount\n      POP \t\t\tfunction setWood(bytes32 _trou...\n      POP \t\t\tfunction setWood(bytes32 _trou...\n      JUMP [out]\t\t\tfunction setWood(bytes32 _trou...\n    tag 69\t\t\tfunction setLife(bytes32 _trou...\n      JUMPDEST \t\t\tfunction setLife(bytes32 _trou...\n      PUSH 0\t\t\towner\n      DUP1 \t\t\towner\n      SWAP1 \t\t\towner\n      SLOAD \t\t\towner\n      SWAP1 \t\t\towner\n      PUSH 100\t\t\towner\n      EXP \t\t\towner\n      SWAP1 \t\t\towner\n      DIV \t\t\towner\n      PUSH FFFFFFFFFFFFFFFFFFFFFFFFFFFFFFFFFFFFFFFF\t\t\towner\n      AND \t\t\towner\n      PUSH FFFFFFFFFFFFFFFFFFFFFFFFFFFFFFFFFFFFFFFF\t\t\tmsg.sender == owner\n      AND \t\t\tmsg.sender == owner\n      CALLER \t\t\tmsg.sender\n      PUSH FFFFFFFFFFFFFFFFFFFFFFFFFFFFFFFFFFFFFFFF\t\t\tmsg.sender == owner\n      AND \t\t\tmsg.sender == owner\n      EQ \t\t\tmsg.sender == owner\n      ISZERO \t\t\trequire(msg.sender == owner)\n      ISZERO \t\t\trequire(msg.sender == owner)\n      PUSH [tag] 126\t\t\trequire(msg.sender == owner)\n      JUMPI \t\t\trequire(msg.sender == owner)\n      PUSH 0\t\t\trequire(msg.sender == owner)\n      DUP1 \t\t\trequire(msg.sender == owner)\n      REVERT \t\t\trequire(msg.sender == owner)\n    tag 126\t\t\trequire(msg.sender == owner)\n      JUMPDEST \t\t\trequire(msg.sender == owner)\n      PUSH 2\t\t\texists\n      PUSH 0\t\t\texists[_troupHash]\n      DUP4 \t\t\t_troupHash\n      PUSH 0\t\t\texists[_troupHash]\n      NOT \t\t\texists[_troupHash]\n      AND \t\t\texists[_troupHash]\n      PUSH 0\t\t\texists[_troupHash]\n      NOT \t\t\texists[_troupHash]\n      AND \t\t\texists[_troupHash]\n      DUP2 \t\t\texists[_troupHash]\n      MSTORE \t\t\texists[_troupHash]\n      PUSH 20\t\t\texists[_troupHash]\n      ADD \t\t\texists[_troupHash]\n      SWAP1 \t\t\texists[_troupHash]\n      DUP2 \t\t\texists[_troupHash]\n      MSTORE \t\t\texists[_troupHash]\n      PUSH 20\t\t\texists[_troupHash]\n      ADD \t\t\texists[_troupHash]\n      PUSH 0\t\t\texists[_troupHash]\n      KECCAK256 \t\t\texists[_troupHash]\n      PUSH 0\t\t\texists[_troupHash]\n      SWAP1 \t\t\texists[_troupHash]\n      SLOAD \t\t\texists[_troupHash]\n      SWAP1 \t\t\texists[_troupHash]\n      PUSH 100\t\t\texists[_troupHash]\n      EXP \t\t\texists[_troupHash]\n      SWAP1 \t\t\texists[_troupHash]\n      DIV \t\t\texists[_troupHash]\n      PUSH FF\t\t\texists[_troupHash]\n      AND \t\t\texists[_troupHash]\n      ISZERO \t\t\trequire(exists[_troupHash])\n      ISZERO \t\t\trequire(exists[_troupHash])\n      PUSH [tag] 127\t\t\trequire(exists[_troupHash])\n      JUMPI \t\t\trequire(exists[_troupHash])\n      PUSH 0\t\t\trequire(exists[_troupHash])\n      DUP1 \t\t\trequire(exists[_troupHash])\n      REVERT \t\t\trequire(exists[_troupHash])\n    tag 127\t\t\trequire(exists[_troupHash])\n      JUMPDEST \t\t\trequire(exists[_troupHash])\n      DUP1 \t\t\t_amount\n      PUSH 4\t\t\tlife\n      PUSH 0\t\t\tlife[_troupHash]\n      DUP5 \t\t\t_troupHash\n      PUSH 0\t\t\tlife[_troupHash]\n      NOT \t\t\tlife[_troupHash]\n      AND \t\t\tlife[_troupHash]\n      PUSH 0\t\t\tlife[_troupHash]\n      NOT \t\t\tlife[_troupHash]\n      AND \t\t\tlife[_troupHash]\n      DUP2 \t\t\tlife[_troupHash]\n      MSTORE \t\t\tlife[_troupHash]\n      PUSH 20\t\t\tlife[_troupHash]\n      ADD \t\t\tlife[_troupHash]\n      SWAP1 \t\t\tlife[_troupHash]\n      DUP2 \t\t\tlife[_troupHash]\n      MSTORE \t\t\tlife[_troupHash]\n      PUSH 20\t\t\tlife[_troupHash]\n      ADD \t\t\tlife[_troupHash]\n      PUSH 0\t\t\tlife[_troupHash]\n      KECCAK256 \t\t\tlife[_troupHash]\n      DUP2 \t\t\tlife[_troupHash] = _amount\n      SWAP1 \t\t\tlife[_troupHash] = _amount\n      SSTORE \t\t\tlife[_troupHash] = _amount\n      POP \t\t\tlife[_troupHash] = _amount\n      POP \t\t\tfunction setLife(bytes32 _trou...\n      POP \t\t\tfunction setLife(bytes32 _trou...\n      JUMP [out]\t\t\tfunction setLife(bytes32 _trou...\n    tag 72\t\t\tfunction getWood(bytes32 _trou...\n      JUMPDEST \t\t\tfunction getWood(bytes32 _trou...\n      PUSH 0\t\t\tuint256\n      PUSH 2\t\t\texists\n      PUSH 0\t\t\texists[_troupHash]\n      DUP4 \t\t\t_troupHash\n      PUSH 0\t\t\texists[_troupHash]\n      NOT \t\t\texists[_troupHash]\n      AND \t\t\texists[_troupHash]\n      PUSH 0\t\t\texists[_troupHash]\n      NOT \t\t\texists[_troupHash]\n      AND \t\t\texists[_troupHash]\n      DUP2 \t\t\texists[_troupHash]\n      MSTORE \t\t\texists[_troupHash]\n      PUSH 20\t\t\texists[_troupHash]\n      ADD \t\t\texists[_troupHash]\n      SWAP1 \t\t\texists[_troupHash]\n      DUP2 \t\t\texists[_troupHash]\n      MSTORE \t\t\texists[_troupHash]\n      PUSH 20\t\t\texists[_troupHash]\n      ADD \t\t\texists[_troupHash]\n      PUSH 0\t\t\texists[_troupHash]\n      KECCAK256 \t\t\texists[_troupHash]\n      PUSH 0\t\t\texists[_troupHash]\n      SWAP1 \t\t\texists[_troupHash]\n      SLOAD \t\t\texists[_troupHash]\n      SWAP1 \t\t\texists[_troupHash]\n      PUSH 100\t\t\texists[_troupHash]\n      EXP \t\t\texists[_troupHash]\n      SWAP1 \t\t\texists[_troupHash]\n      DIV \t\t\texists[_troupHash]\n      PUSH FF\t\t\texists[_troupHash]\n      AND \t\t\texists[_troupHash]\n      ISZERO \t\t\trequire(exists[_troupHash])\n      ISZERO \t\t\trequire(exists[_troupHash])\n      PUSH [tag] 129\t\t\trequire(exists[_troupHash])\n      JUMPI \t\t\trequire(exists[_troupHash])\n      PUSH 0\t\t\trequire(exists[_troupHash])\n      DUP1 \t\t\trequire(exists[_troupHash])\n      REVERT \t\t\trequire(exists[_troupHash])\n    tag 129\t\t\trequire(exists[_troupHash])\n      JUMPDEST \t\t\trequire(exists[_troupHash])\n      PUSH 9\t\t\twood\n      PUSH 0\t\t\twood[_troupHash]\n      DUP4 \t\t\t_troupHash\n      PUSH 0\t\t\twood[_troupHash]\n      NOT \t\t\twood[_troupHash]\n      AND \t\t\twood[_troupHash]\n      PUSH 0\t\t\twood[_troupHash]\n      NOT \t\t\twood[_troupHash]\n      AND \t\t\twood[_troupHash]\n      DUP2 \t\t\twood[_troupHash]\n      MSTORE \t\t\twood[_troupHash]\n      PUSH 20\t\t\twood[_troupHash]\n      ADD \t\t\twood[_troupHash]\n      SWAP1 \t\t\twood[_troupHash]\n      DUP2 \t\t\twood[_troupHash]\n      MSTORE \t\t\twood[_troupHash]\n      PUSH 20\t\t\twood[_troupHash]\n      ADD \t\t\twood[_troupHash]\n      PUSH 0\t\t\twood[_troupHash]\n      KECCAK256 \t\t\twood[_troupHash]\n      SLOAD \t\t\twood[_troupHash]\n      SWAP1 \t\t\treturn wood[_troupHash]\n      POP \t\t\treturn wood[_troupHash]\n      SWAP2 \t\t\tfunction getWood(bytes32 _trou...\n      SWAP1 \t\t\tfunction getWood(bytes32 _trou...\n      POP \t\t\tfunction getWood(bytes32 _trou...\n      JUMP [out]\t\t\tfunction getWood(bytes32 _trou...\n    tag 75\t\t\tfunction getIndexLength()\\r\\n ...\n      JUMPDEST \t\t\tfunction getIndexLength()\\r\\n ...\n      PUSH 0\t\t\tuint256\n      PUSH 1\t\t\ttroupHashes\n      DUP1 \t\t\ttroupHashes.length\n      SLOAD \t\t\ttroupHashes.length\n      SWAP1 \t\t\ttroupHashes.length\n      POP \t\t\ttroupHashes.length\n      SWAP1 \t\t\treturn troupHashes.length\n      POP \t\t\treturn troupHashes.length\n      SWAP1 \t\t\tfunction getIndexLength()\\r\\n ...\n      JUMP [out]\t\t\tfunction getIndexLength()\\r\\n ...\n    tag 78\t\t\tfunction getStone(bytes32 _tro...\n      JUMPDEST \t\t\tfunction getStone(bytes32 _tro...\n      PUSH 0\t\t\tuint256\n      PUSH 2\t\t\texists\n      PUSH 0\t\t\texists[_troupHash]\n      DUP4 \t\t\t_troupHash\n      PUSH 0\t\t\texists[_troupHash]\n      NOT \t\t\texists[_troupHash]\n      AND \t\t\texists[_troupHash]\n      PUSH 0\t\t\texists[_troupHash]\n      NOT \t\t\texists[_troupHash]\n      AND \t\t\texists[_troupHash]\n      DUP2 \t\t\texists[_troupHash]\n      MSTORE \t\t\texists[_troupHash]\n      PUSH 20\t\t\texists[_troupHash]\n      ADD \t\t\texists[_troupHash]\n      SWAP1 \t\t\texists[_troupHash]\n      DUP2 \t\t\texists[_troupHash]\n      MSTORE \t\t\texists[_troupHash]\n      PUSH 20\t\t\texists[_troupHash]\n      ADD \t\t\texists[_troupHash]\n      PUSH 0\t\t\texists[_troupHash]\n      KECCAK256 \t\t\texists[_troupHash]\n      PUSH 0\t\t\texists[_troupHash]\n      SWAP1 \t\t\texists[_troupHash]\n      SLOAD \t\t\texists[_troupHash]\n      SWAP1 \t\t\texists[_troupHash]\n      PUSH 100\t\t\texists[_troupHash]\n      EXP \t\t\texists[_troupHash]\n      SWAP1 \t\t\texists[_troupHash]\n      DIV \t\t\texists[_troupHash]\n      PUSH FF\t\t\texists[_troupHash]\n      AND \t\t\texists[_troupHash]\n      ISZERO \t\t\trequire(exists[_troupHash])\n      ISZERO \t\t\trequire(exists[_troupHash])\n      PUSH [tag] 132\t\t\trequire(exists[_troupHash])\n      JUMPI \t\t\trequire(exists[_troupHash])\n      PUSH 0\t\t\trequire(exists[_troupHash])\n      DUP1 \t\t\trequire(exists[_troupHash])\n      REVERT \t\t\trequire(exists[_troupHash])\n    tag 132\t\t\trequire(exists[_troupHash])\n      JUMPDEST \t\t\trequire(exists[_troupHash])\n      PUSH A\t\t\tstone\n      PUSH 0\t\t\tstone[_troupHash]\n      DUP4 \t\t\t_troupHash\n      PUSH 0\t\t\tstone[_troupHash]\n      NOT \t\t\tstone[_troupHash]\n      AND \t\t\tstone[_troupHash]\n      PUSH 0\t\t\tstone[_troupHash]\n      NOT \t\t\tstone[_troupHash]\n      AND \t\t\tstone[_troupHash]\n      DUP2 \t\t\tstone[_troupHash]\n      MSTORE \t\t\tstone[_troupHash]\n      PUSH 20\t\t\tstone[_troupHash]\n      ADD \t\t\tstone[_troupHash]\n      SWAP1 \t\t\tstone[_troupHash]\n      DUP2 \t\t\tstone[_troupHash]\n      MSTORE \t\t\tstone[_troupHash]\n      PUSH 20\t\t\tstone[_troupHash]\n      ADD \t\t\tstone[_troupHash]\n      PUSH 0\t\t\tstone[_troupHash]\n      KECCAK256 \t\t\tstone[_troupHash]\n      SLOAD \t\t\tstone[_troupHash]\n      SWAP1 \t\t\treturn stone[_troupHash]\n      POP \t\t\treturn stone[_troupHash]\n      SWAP2 \t\t\tfunction getStone(bytes32 _tro...\n      SWAP1 \t\t\tfunction getStone(bytes32 _tro...\n      POP \t\t\tfunction getStone(bytes32 _tro...\n      JUMP [out]\t\t\tfunction getStone(bytes32 _tro...\n    tag 81\t\t\tfunction getGold(bytes32 _trou...\n      JUMPDEST \t\t\tfunction getGold(bytes32 _trou...\n      PUSH 0\t\t\tuint256\n      PUSH 2\t\t\texists\n      PUSH 0\t\t\texists[_troupHash]\n      DUP4 \t\t\t_troupHash\n      PUSH 0\t\t\texists[_troupHash]\n      NOT \t\t\texists[_troupHash]\n      AND \t\t\texists[_troupHash]\n      PUSH 0\t\t\texists[_troupHash]\n      NOT \t\t\texists[_troupHash]\n      AND \t\t\texists[_troupHash]\n      DUP2 \t\t\texists[_troupHash]\n      MSTORE \t\t\texists[_troupHash]\n      PUSH 20\t\t\texists[_troupHash]\n      ADD \t\t\texists[_troupHash]\n      SWAP1 \t\t\texists[_troupHash]\n      DUP2 \t\t\texists[_troupHash]\n      MSTORE \t\t\texists[_troupHash]\n      PUSH 20\t\t\texists[_troupHash]\n      ADD \t\t\texists[_troupHash]\n      PUSH 0\t\t\texists[_troupHash]\n      KECCAK256 \t\t\texists[_troupHash]\n      PUSH 0\t\t\texists[_troupHash]\n      SWAP1 \t\t\texists[_troupHash]\n      SLOAD \t\t\texists[_troupHash]\n      SWAP1 \t\t\texists[_troupHash]\n      PUSH 100\t\t\texists[_troupHash]\n      EXP \t\t\texists[_troupHash]\n      SWAP1 \t\t\texists[_troupHash]\n      DIV \t\t\texists[_troupHash]\n      PUSH FF\t\t\texists[_troupHash]\n      AND \t\t\texists[_troupHash]\n      ISZERO \t\t\trequire(exists[_troupHash])\n      ISZERO \t\t\trequire(exists[_troupHash])\n      PUSH [tag] 134\t\t\trequire(exists[_troupHash])\n      JUMPI \t\t\trequire(exists[_troupHash])\n      PUSH 0\t\t\trequire(exists[_troupHash])\n      DUP1 \t\t\trequire(exists[_troupHash])\n      REVERT \t\t\trequire(exists[_troupHash])\n    tag 134\t\t\trequire(exists[_troupHash])\n      JUMPDEST \t\t\trequire(exists[_troupHash])\n      PUSH 8\t\t\tgold\n      PUSH 0\t\t\tgold[_troupHash]\n      DUP4 \t\t\t_troupHash\n      PUSH 0\t\t\tgold[_troupHash]\n      NOT \t\t\tgold[_troupHash]\n      AND \t\t\tgold[_troupHash]\n      PUSH 0\t\t\tgold[_troupHash]\n      NOT \t\t\tgold[_troupHash]\n      AND \t\t\tgold[_troupHash]\n      DUP2 \t\t\tgold[_troupHash]\n      MSTORE \t\t\tgold[_troupHash]\n      PUSH 20\t\t\tgold[_troupHash]\n      ADD \t\t\tgold[_troupHash]\n      SWAP1 \t\t\tgold[_troupHash]\n      DUP2 \t\t\tgold[_troupHash]\n      MSTORE \t\t\tgold[_troupHash]\n      PUSH 20\t\t\tgold[_troupHash]\n      ADD \t\t\tgold[_troupHash]\n      PUSH 0\t\t\tgold[_troupHash]\n      KECCAK256 \t\t\tgold[_troupHash]\n      SLOAD \t\t\tgold[_troupHash]\n      SWAP1 \t\t\treturn gold[_troupHash]\n      POP \t\t\treturn gold[_troupHash]\n      SWAP2 \t\t\tfunction getGold(bytes32 _trou...\n      SWAP1 \t\t\tfunction getGold(bytes32 _trou...\n      POP \t\t\tfunction getGold(bytes32 _trou...\n      JUMP [out]\t\t\tfunction getGold(bytes32 _trou...\n    tag 84\t\t\tfunction transferOwnership(add...\n      JUMPDEST \t\t\tfunction transferOwnership(add...\n      PUSH 0\t\t\towner\n      DUP1 \t\t\towner\n      SWAP1 \t\t\towner\n      SLOAD \t\t\towner\n      SWAP1 \t\t\towner\n      PUSH 100\t\t\towner\n      EXP \t\t\towner\n      SWAP1 \t\t\towner\n      DIV \t\t\towner\n      PUSH FFFFFFFFFFFFFFFFFFFFFFFFFFFFFFFFFFFFFFFF\t\t\towner\n      AND \t\t\towner\n      PUSH FFFFFFFFFFFFFFFFFFFFFFFFFFFFFFFFFFFFFFFF\t\t\tmsg.sender == owner\n      AND \t\t\tmsg.sender == owner\n      CALLER \t\t\tmsg.sender\n      PUSH FFFFFFFFFFFFFFFFFFFFFFFFFFFFFFFFFFFFFFFF\t\t\tmsg.sender == owner\n      AND \t\t\tmsg.sender == owner\n      EQ \t\t\tmsg.sender == owner\n      ISZERO \t\t\trequire(msg.sender == owner)\n      ISZERO \t\t\trequire(msg.sender == owner)\n      PUSH [tag] 136\t\t\trequire(msg.sender == owner)\n      JUMPI \t\t\trequire(msg.sender == owner)\n      PUSH 0\t\t\trequire(msg.sender == owner)\n      DUP1 \t\t\trequire(msg.sender == owner)\n      REVERT \t\t\trequire(msg.sender == owner)\n    tag 136\t\t\trequire(msg.sender == owner)\n      JUMPDEST \t\t\trequire(msg.sender == owner)\n      PUSH 0\t\t\t0x0\n      PUSH FFFFFFFFFFFFFFFFFFFFFFFFFFFFFFFFFFFFFFFF\t\t\tnewOwner != address(0x0)\n      AND \t\t\tnewOwner != address(0x0)\n      DUP2 \t\t\tnewOwner\n      PUSH FFFFFFFFFFFFFFFFFFFFFFFFFFFFFFFFFFFFFFFF\t\t\tnewOwner != address(0x0)\n      AND \t\t\tnewOwner != address(0x0)\n      EQ \t\t\tnewOwner != address(0x0)\n      ISZERO \t\t\tnewOwner != address(0x0)\n      ISZERO \t\t\trequire(bool(newOwner != addre...\n      ISZERO \t\t\trequire(bool(newOwner != addre...\n      PUSH [tag] 137\t\t\trequire(bool(newOwner != addre...\n      JUMPI \t\t\trequire(bool(newOwner != addre...\n      PUSH 0\t\t\trequire(bool(newOwner != addre...\n      DUP1 \t\t\trequire(bool(newOwner != addre...\n      REVERT \t\t\trequire(bool(newOwner != addre...\n    tag 137\t\t\trequire(bool(newOwner != addre...\n      JUMPDEST \t\t\trequire(bool(newOwner != addre...\n      DUP1 \t\t\tnewOwner\n      PUSH FFFFFFFFFFFFFFFFFFFFFFFFFFFFFFFFFFFFFFFF\t\t\tOwnershipTransferred(owner, ne...\n      AND \t\t\tOwnershipTransferred(owner, ne...\n      PUSH 0\t\t\towner\n      DUP1 \t\t\towner\n      SWAP1 \t\t\towner\n      SLOAD \t\t\towner\n      SWAP1 \t\t\towner\n      PUSH 100\t\t\towner\n      EXP \t\t\towner\n      SWAP1 \t\t\towner\n      DIV \t\t\towner\n      PUSH FFFFFFFFFFFFFFFFFFFFFFFFFFFFFFFFFFFFFFFF\t\t\towner\n      AND \t\t\towner\n      PUSH FFFFFFFFFFFFFFFFFFFFFFFFFFFFFFFFFFFFFFFF\t\t\tOwnershipTransferred(owner, ne...\n      AND \t\t\tOwnershipTransferred(owner, ne...\n      PUSH 8BE0079C531659141344CD1FD0A4F28419497F9722A3DAAFE3B4186F6B6457E0\t\t\tOwnershipTransferred(owner, ne...\n      PUSH 40\t\t\tOwnershipTransferred(owner, ne...\n      MLOAD \t\t\tOwnershipTransferred(owner, ne...\n      PUSH 40\t\t\tOwnershipTransferred(owner, ne...\n      MLOAD \t\t\tOwnershipTransferred(owner, ne...\n      DUP1 \t\t\tOwnershipTransferred(owner, ne...\n      SWAP2 \t\t\tOwnershipTransferred(owner, ne...\n      SUB \t\t\tOwnershipTransferred(owner, ne...\n      SWAP1 \t\t\tOwnershipTransferred(owner, ne...\n      LOG3 \t\t\tOwnershipTransferred(owner, ne...\n      DUP1 \t\t\tnewOwner\n      PUSH 0\t\t\towner\n      DUP1 \t\t\towner\n      PUSH 100\t\t\towner = newOwner\n      EXP \t\t\towner = newOwner\n      DUP2 \t\t\towner = newOwner\n      SLOAD \t\t\towner = newOwner\n      DUP2 \t\t\towner = newOwner\n      PUSH FFFFFFFFFFFFFFFFFFFFFFFFFFFFFFFFFFFFFFFF\t\t\towner = newOwner\n      MUL \t\t\towner = newOwner\n      NOT \t\t\towner = newOwner\n      AND \t\t\towner = newOwner\n      SWAP1 \t\t\towner = newOwner\n      DUP4 \t\t\towner = newOwner\n      PUSH FFFFFFFFFFFFFFFFFFFFFFFFFFFFFFFFFFFFFFFF\t\t\towner = newOwner\n      AND \t\t\towner = newOwner\n      MUL \t\t\towner = newOwner\n      OR \t\t\towner = newOwner\n      SWAP1 \t\t\towner = newOwner\n      SSTORE \t\t\towner = newOwner\n      POP \t\t\towner = newOwner\n      POP \t\t\tfunction transferOwnership(add...\n      JUMP [out]\t\t\tfunction transferOwnership(add...\n    tag 87\t\t\tfunction setName(bytes32 _trou...\n      JUMPDEST \t\t\tfunction setName(bytes32 _trou...\n      PUSH 0\t\t\towner\n      DUP1 \t\t\towner\n      SWAP1 \t\t\towner\n      SLOAD \t\t\towner\n      SWAP1 \t\t\towner\n      PUSH 100\t\t\towner\n      EXP \t\t\towner\n      SWAP1 \t\t\towner\n      DIV \t\t\towner\n      PUSH FFFFFFFFFFFFFFFFFFFFFFFFFFFFFFFFFFFFFFFF\t\t\towner\n      AND \t\t\towner\n      PUSH FFFFFFFFFFFFFFFFFFFFFFFFFFFFFFFFFFFFFFFF\t\t\tmsg.sender == owner\n      AND \t\t\tmsg.sender == owner\n      CALLER \t\t\tmsg.sender\n      PUSH FFFFFFFFFFFFFFFFFFFFFFFFFFFFFFFFFFFFFFFF\t\t\tmsg.sender == owner\n      AND \t\t\tmsg.sender == owner\n      EQ \t\t\tmsg.sender == owner\n      ISZERO \t\t\trequire(msg.sender == owner)\n      ISZERO \t\t\trequire(msg.sender == owner)\n      PUSH [tag] 139\t\t\trequire(msg.sender == owner)\n      JUMPI \t\t\trequire(msg.sender == owner)\n      PUSH 0\t\t\trequire(msg.sender == owner)\n      DUP1 \t\t\trequire(msg.sender == owner)\n      REVERT \t\t\trequire(msg.sender == owner)\n    tag 139\t\t\trequire(msg.sender == owner)\n      JUMPDEST \t\t\trequire(msg.sender == owner)\n      PUSH 2\t\t\texists\n      PUSH 0\t\t\texists[_troupHash]\n      DUP4 \t\t\t_troupHash\n      PUSH 0\t\t\texists[_troupHash]\n      NOT \t\t\texists[_troupHash]\n      AND \t\t\texists[_troupHash]\n      PUSH 0\t\t\texists[_troupHash]\n      NOT \t\t\texists[_troupHash]\n      AND \t\t\texists[_troupHash]\n      DUP2 \t\t\texists[_troupHash]\n      MSTORE \t\t\texists[_troupHash]\n      PUSH 20\t\t\texists[_troupHash]\n      ADD \t\t\texists[_troupHash]\n      SWAP1 \t\t\texists[_troupHash]\n      DUP2 \t\t\texists[_troupHash]\n      MSTORE \t\t\texists[_troupHash]\n      PUSH 20\t\t\texists[_troupHash]\n      ADD \t\t\texists[_troupHash]\n      PUSH 0\t\t\texists[_troupHash]\n      KECCAK256 \t\t\texists[_troupHash]\n      PUSH 0\t\t\texists[_troupHash]\n      SWAP1 \t\t\texists[_troupHash]\n      SLOAD \t\t\texists[_troupHash]\n      SWAP1 \t\t\texists[_troupHash]\n      PUSH 100\t\t\texists[_troupHash]\n      EXP \t\t\texists[_troupHash]\n      SWAP1 \t\t\texists[_troupHash]\n      DIV \t\t\texists[_troupHash]\n      PUSH FF\t\t\texists[_troupHash]\n      AND \t\t\texists[_troupHash]\n      ISZERO \t\t\trequire(exists[_troupHash])\n      ISZERO \t\t\trequire(exists[_troupHash])\n      PUSH [tag] 140\t\t\trequire(exists[_troupHash])\n      JUMPI \t\t\trequire(exists[_troupHash])\n      PUSH 0\t\t\trequire(exists[_troupHash])\n      DUP1 \t\t\trequire(exists[_troupHash])\n      REVERT \t\t\trequire(exists[_troupHash])\n    tag 140\t\t\trequire(exists[_troupHash])\n      JUMPDEST \t\t\trequire(exists[_troupHash])\n      DUP1 \t\t\t_name\n      PUSH 3\t\t\tnames\n      PUSH 0\t\t\tnames[_troupHash]\n      DUP5 \t\t\t_troupHash\n      PUSH 0\t\t\tnames[_troupHash]\n      NOT \t\t\tnames[_troupHash]\n      AND \t\t\tnames[_troupHash]\n      PUSH 0\t\t\tnames[_troupHash]\n      NOT \t\t\tnames[_troupHash]\n      AND \t\t\tnames[_troupHash]\n      DUP2 \t\t\tnames[_troupHash]\n      MSTORE \t\t\tnames[_troupHash]\n      PUSH 20\t\t\tnames[_troupHash]\n      ADD \t\t\tnames[_troupHash]\n      SWAP1 \t\t\tnames[_troupHash]\n      DUP2 \t\t\tnames[_troupHash]\n      MSTORE \t\t\tnames[_troupHash]\n      PUSH 20\t\t\tnames[_troupHash]\n      ADD \t\t\tnames[_troupHash]\n      PUSH 0\t\t\tnames[_troupHash]\n      KECCAK256 \t\t\tnames[_troupHash]\n      PUSH 0\t\t\tnames[_troupHash]\n      PUSH 100\t\t\tnames[_troupHash] = _name\n      EXP \t\t\tnames[_troupHash] = _name\n      DUP2 \t\t\tnames[_troupHash] = _name\n      SLOAD \t\t\tnames[_troupHash] = _name\n      DUP2 \t\t\tnames[_troupHash] = _name\n      PUSH FFFFFFFFFFFFFFFFFFFFFFFFFFFFFFFF\t\t\tnames[_troupHash] = _name\n      MUL \t\t\tnames[_troupHash] = _name\n      NOT \t\t\tnames[_troupHash] = _name\n      AND \t\t\tnames[_troupHash] = _name\n      SWAP1 \t\t\tnames[_troupHash] = _name\n      DUP4 \t\t\tnames[_troupHash] = _name\n      PUSH 100000000000000000000000000000000\t\t\tnames[_troupHash] = _name\n      SWAP1 \t\t\tnames[_troupHash] = _name\n      DIV \t\t\tnames[_troupHash] = _name\n      MUL \t\t\tnames[_troupHash] = _name\n      OR \t\t\tnames[_troupHash] = _name\n      SWAP1 \t\t\tnames[_troupHash] = _name\n      SSTORE \t\t\tnames[_troupHash] = _name\n      POP \t\t\tnames[_troupHash] = _name\n      POP \t\t\tfunction setName(bytes32 _trou...\n      POP \t\t\tfunction setName(bytes32 _trou...\n      JUMP [out]\t\t\tfunction setName(bytes32 _trou...\n    tag 116\t\t\tcontract TroupStorage {\\r\\n   ...\n      JUMPDEST \t\t\tcontract TroupStorage {\\r\\n   ...\n      DUP2 \t\t\tcontract TroupStorage {\\r\\n   ...\n      SLOAD \t\t\tcontract TroupStorage {\\r\\n   ...\n      DUP2 \t\t\tcontract TroupStorage {\\r\\n   ...\n      DUP4 \t\t\tcontract TroupStorage {\\r\\n   ...\n      SSTORE \t\t\tcontract TroupStorage {\\r\\n   ...\n      DUP2 \t\t\tcontract TroupStorage {\\r\\n   ...\n      DUP2 \t\t\tcontract TroupStorage {\\r\\n   ...\n      ISZERO \t\t\tcontract TroupStorage {\\r\\n   ...\n      GT \t\t\tcontract TroupStorage {\\r\\n   ...\n      PUSH [tag] 141\t\t\tcontract TroupStorage {\\r\\n   ...\n      JUMPI \t\t\tcontract TroupStorage {\\r\\n   ...\n      DUP2 \t\t\tcontract TroupStorage {\\r\\n   ...\n      DUP4 \t\t\tcontract TroupStorage {\\r\\n   ...\n      PUSH 0\t\t\tcontract TroupStorage {\\r\\n   ...\n      MSTORE \t\t\tcontract TroupStorage {\\r\\n   ...\n      PUSH 20\t\t\tcontract TroupStorage {\\r\\n   ...\n      PUSH 0\t\t\tcontract TroupStorage {\\r\\n   ...\n      KECCAK256 \t\t\tcontract TroupStorage {\\r\\n   ...\n      SWAP2 \t\t\tcontract TroupStorage {\\r\\n   ...\n      DUP3 \t\t\tcontract TroupStorage {\\r\\n   ...\n      ADD \t\t\tcontract TroupStorage {\\r\\n   ...\n      SWAP2 \t\t\tcontract TroupStorage {\\r\\n   ...\n      ADD \t\t\tcontract TroupStorage {\\r\\n   ...\n      PUSH [tag] 142\t\t\tcontract TroupStorage {\\r\\n   ...\n      SWAP2 \t\t\tcontract TroupStorage {\\r\\n   ...\n      SWAP1 \t\t\tcontract TroupStorage {\\r\\n   ...\n      PUSH [tag] 143\t\t\tcontract TroupStorage {\\r\\n   ...\n      JUMP [in]\t\t\tcontract TroupStorage {\\r\\n   ...\n    tag 142\t\t\tcontract TroupStorage {\\r\\n   ...\n      JUMPDEST \t\t\tcontract TroupStorage {\\r\\n   ...\n    tag 141\t\t\tcontract TroupStorage {\\r\\n   ...\n      JUMPDEST \t\t\tcontract TroupStorage {\\r\\n   ...\n      POP \t\t\tcontract TroupStorage {\\r\\n   ...\n      POP \t\t\tcontract TroupStorage {\\r\\n   ...\n      POP \t\t\tcontract TroupStorage {\\r\\n   ...\n      JUMP [out]\t\t\tcontract TroupStorage {\\r\\n   ...\n    tag 143\t\t\tcontract TroupStorage {\\r\\n   ...\n      JUMPDEST \t\t\tcontract TroupStorage {\\r\\n   ...\n      PUSH [tag] 144\t\t\tcontract TroupStorage {\\r\\n   ...\n      SWAP2 \t\t\tcontract TroupStorage {\\r\\n   ...\n      SWAP1 \t\t\tcontract TroupStorage {\\r\\n   ...\n    tag 145\t\t\tcontract TroupStorage {\\r\\n   ...\n      JUMPDEST \t\t\tcontract TroupStorage {\\r\\n   ...\n      DUP1 \t\t\tcontract TroupStorage {\\r\\n   ...\n      DUP3 \t\t\tcontract TroupStorage {\\r\\n   ...\n      GT \t\t\tcontract TroupStorage {\\r\\n   ...\n      ISZERO \t\t\tcontract TroupStorage {\\r\\n   ...\n      PUSH [tag] 146\t\t\tcontract TroupStorage {\\r\\n   ...\n      JUMPI \t\t\tcontract TroupStorage {\\r\\n   ...\n      PUSH 0\t\t\tcontract TroupStorage {\\r\\n   ...\n      DUP2 \t\t\tcontract TroupStorage {\\r\\n   ...\n      PUSH 0\t\t\tcontract TroupStorage {\\r\\n   ...\n      SWAP1 \t\t\tcontract TroupStorage {\\r\\n   ...\n      SSTORE \t\t\tcontract TroupStorage {\\r\\n   ...\n      POP \t\t\tcontract TroupStorage {\\r\\n   ...\n      PUSH 1\t\t\tcontract TroupStorage {\\r\\n   ...\n      ADD \t\t\tcontract TroupStorage {\\r\\n   ...\n      PUSH [tag] 145\t\t\tcontract TroupStorage {\\r\\n   ...\n      JUMP \t\t\tcontract TroupStorage {\\r\\n   ...\n    tag 146\t\t\tcontract TroupStorage {\\r\\n   ...\n      JUMPDEST \t\t\tcontract TroupStorage {\\r\\n   ...\n      POP \t\t\tcontract TroupStorage {\\r\\n   ...\n      SWAP1 \t\t\tcontract TroupStorage {\\r\\n   ...\n      JUMP \t\t\tcontract TroupStorage {\\r\\n   ...\n    tag 144\t\t\tcontract TroupStorage {\\r\\n   ...\n      JUMPDEST \t\t\tcontract TroupStorage {\\r\\n   ...\n      SWAP1 \t\t\tcontract TroupStorage {\\r\\n   ...\n      JUMP [out]\t\t\tcontract TroupStorage {\\r\\n   ...\n    .data\n"
}